{
  "_format": "hh-sol-artifact-1",
  "contractName": "Market",
  "sourceName": "contracts/Market.sol",
  "abi": [
    {
      "inputs": [
        {
          "internalType": "address",
          "name": "_outbox",
          "type": "address"
        },
        {
          "internalType": "uint32",
          "name": "_selfDomainid",
          "type": "uint32"
        }
      ],
      "stateMutability": "nonpayable",
      "type": "constructor"
    },
    {
      "anonymous": false,
      "inputs": [
        {
          "indexed": false,
          "internalType": "address",
          "name": "nftContractAddress",
          "type": "address"
        },
        {
          "indexed": false,
          "internalType": "uint256",
          "name": "tokenId",
          "type": "uint256"
        },
        {
          "indexed": false,
          "internalType": "address",
          "name": "seller",
          "type": "address"
        },
        {
          "indexed": false,
          "internalType": "uint256",
          "name": "price",
          "type": "uint256"
        }
      ],
      "name": "Bought",
      "type": "event"
    },
    {
      "anonymous": false,
      "inputs": [
        {
          "indexed": false,
          "internalType": "address",
          "name": "nftContractAddress",
          "type": "address"
        },
        {
          "indexed": false,
          "internalType": "uint256",
          "name": "tokenId",
          "type": "uint256"
        },
        {
          "indexed": false,
          "internalType": "address",
          "name": "seller",
          "type": "address"
        },
        {
          "indexed": false,
          "internalType": "uint256",
          "name": "price",
          "type": "uint256"
        }
      ],
      "name": "Listed",
      "type": "event"
    },
    {
      "anonymous": false,
      "inputs": [
        {
          "indexed": true,
          "internalType": "address",
          "name": "previousOwner",
          "type": "address"
        },
        {
          "indexed": true,
          "internalType": "address",
          "name": "newOwner",
          "type": "address"
        }
      ],
      "name": "OwnershipTransferred",
      "type": "event"
    },
    {
      "inputs": [
        {
          "internalType": "uint32",
          "name": "originDomainId",
          "type": "uint32"
        },
        {
          "internalType": "address",
          "name": "originZipChainContractAddress",
          "type": "address"
        },
        {
          "internalType": "address",
          "name": "nftContractAddress",
          "type": "address"
        },
        {
          "internalType": "uint256",
          "name": "tokenId",
          "type": "uint256"
        },
        {
          "internalType": "address payable",
          "name": "seller",
          "type": "address"
        },
        {
          "internalType": "uint32",
          "name": "currencyId",
          "type": "uint32"
        }
      ],
      "name": "buy",
      "outputs": [],
      "stateMutability": "payable",
      "type": "function"
    },
    {
      "inputs": [
        {
          "internalType": "address",
          "name": "nftContractAddress",
          "type": "address"
        },
        {
          "internalType": "uint256",
          "name": "tokenId",
          "type": "uint256"
        }
      ],
      "name": "cancelListing",
      "outputs": [],
      "stateMutability": "nonpayable",
      "type": "function"
    },
    {
      "inputs": [
        {
          "internalType": "uint32",
          "name": "",
          "type": "uint32"
        }
      ],
      "name": "currencyIdToChainlinkContract",
      "outputs": [
        {
          "internalType": "address",
          "name": "",
          "type": "address"
        }
      ],
      "stateMutability": "view",
      "type": "function"
    },
    {
      "inputs": [
        {
          "internalType": "uint32",
          "name": "",
          "type": "uint32"
        }
      ],
      "name": "currencyIdToCurrencyContractAddress",
      "outputs": [
        {
          "internalType": "address",
          "name": "",
          "type": "address"
        }
      ],
      "stateMutability": "view",
      "type": "function"
    },
    {
      "inputs": [
        {
          "internalType": "uint32",
          "name": "",
          "type": "uint32"
        }
      ],
      "name": "domainToContractAddress",
      "outputs": [
        {
          "internalType": "bytes32",
          "name": "",
          "type": "bytes32"
        }
      ],
      "stateMutability": "view",
      "type": "function"
    },
    {
      "inputs": [
        {
          "internalType": "uint32",
          "name": "domainId",
          "type": "uint32"
        }
      ],
      "name": "getChainlinkContractAddress",
      "outputs": [
        {
          "internalType": "address",
          "name": "",
          "type": "address"
        }
      ],
      "stateMutability": "view",
      "type": "function"
    },
    {
      "inputs": [
        {
          "internalType": "uint32",
          "name": "domainId",
          "type": "uint32"
        },
        {
          "internalType": "address",
          "name": "nftContractAddress",
          "type": "address"
        },
        {
          "internalType": "uint256",
          "name": "tokenId",
          "type": "uint256"
        }
      ],
      "name": "getListInformation",
      "outputs": [
        {
          "internalType": "address",
          "name": "",
          "type": "address"
        },
        {
          "internalType": "uint256",
          "name": "",
          "type": "uint256"
        },
        {
          "internalType": "uint32",
          "name": "",
          "type": "uint32"
        }
      ],
      "stateMutability": "view",
      "type": "function"
    },
    {
      "inputs": [
        {
          "internalType": "uint32",
          "name": "domainId",
          "type": "uint32"
        }
      ],
      "name": "getResisteredContract",
      "outputs": [
        {
          "internalType": "address",
          "name": "",
          "type": "address"
        }
      ],
      "stateMutability": "view",
      "type": "function"
    },
    {
      "inputs": [
        {
          "internalType": "uint32",
          "name": "_origin",
          "type": "uint32"
        },
        {
          "internalType": "bytes32",
          "name": "_sender",
          "type": "bytes32"
        },
        {
          "internalType": "bytes",
          "name": "_messageBody",
          "type": "bytes"
        }
      ],
      "name": "handle",
      "outputs": [],
      "stateMutability": "nonpayable",
      "type": "function"
    },
    {
      "inputs": [
        {
          "internalType": "address",
          "name": "nftContractAddress",
          "type": "address"
        },
        {
          "internalType": "uint256",
          "name": "tokenId",
          "type": "uint256"
        },
        {
          "internalType": "uint256",
          "name": "price",
          "type": "uint256"
        },
        {
          "internalType": "uint32",
          "name": "currencyId",
          "type": "uint32"
        },
        {
          "internalType": "uint32",
          "name": "destinationDomainId",
          "type": "uint32"
        },
        {
          "internalType": "address",
          "name": "destinationZipChainContractAddress",
          "type": "address"
        }
      ],
      "name": "list",
      "outputs": [],
      "stateMutability": "nonpayable",
      "type": "function"
    },
    {
      "inputs": [
        {
          "internalType": "bytes32",
          "name": "",
          "type": "bytes32"
        }
      ],
      "name": "listedCurrency",
      "outputs": [
        {
          "internalType": "uint32",
          "name": "",
          "type": "uint32"
        }
      ],
      "stateMutability": "view",
      "type": "function"
    },
    {
      "inputs": [
        {
          "internalType": "bytes32",
          "name": "",
          "type": "bytes32"
        }
      ],
      "name": "listedPrice",
      "outputs": [
        {
          "internalType": "uint256",
          "name": "",
          "type": "uint256"
        }
      ],
      "stateMutability": "view",
      "type": "function"
    },
    {
      "inputs": [],
      "name": "outbox",
      "outputs": [
        {
          "internalType": "address",
          "name": "",
          "type": "address"
        }
      ],
      "stateMutability": "view",
      "type": "function"
    },
    {
      "inputs": [],
      "name": "owner",
      "outputs": [
        {
          "internalType": "address",
          "name": "",
          "type": "address"
        }
      ],
      "stateMutability": "view",
      "type": "function"
    },
    {
      "inputs": [
        {
          "internalType": "bytes32",
          "name": "",
          "type": "bytes32"
        }
      ],
      "name": "paidPrice",
      "outputs": [
        {
          "internalType": "uint256",
          "name": "",
          "type": "uint256"
        }
      ],
      "stateMutability": "view",
      "type": "function"
    },
    {
      "inputs": [],
      "name": "renounceOwnership",
      "outputs": [],
      "stateMutability": "nonpayable",
      "type": "function"
    },
    {
      "inputs": [],
      "name": "selfDomainId",
      "outputs": [
        {
          "internalType": "uint32",
          "name": "",
          "type": "uint32"
        }
      ],
      "stateMutability": "view",
      "type": "function"
    },
    {
      "inputs": [
        {
          "internalType": "bytes32",
          "name": "",
          "type": "bytes32"
        }
      ],
      "name": "sellerAddress",
      "outputs": [
        {
          "internalType": "address",
          "name": "",
          "type": "address"
        }
      ],
      "stateMutability": "view",
      "type": "function"
    },
    {
      "inputs": [
        {
          "internalType": "uint32",
          "name": "currencyId",
          "type": "uint32"
        },
        {
          "internalType": "address",
          "name": "contractAddress",
          "type": "address"
        }
      ],
      "name": "setChainlinkContract",
      "outputs": [],
      "stateMutability": "nonpayable",
      "type": "function"
    },
    {
      "inputs": [
        {
          "internalType": "uint32",
          "name": "domainId",
          "type": "uint32"
        },
        {
          "internalType": "address",
          "name": "contractAddress",
          "type": "address"
        }
      ],
      "name": "setContract",
      "outputs": [],
      "stateMutability": "nonpayable",
      "type": "function"
    },
    {
      "inputs": [
        {
          "internalType": "uint32",
          "name": "currencyId",
          "type": "uint32"
        },
        {
          "internalType": "address",
          "name": "currencyContractAddress",
          "type": "address"
        }
      ],
      "name": "setCurrencyContractAddress",
      "outputs": [],
      "stateMutability": "nonpayable",
      "type": "function"
    },
    {
      "inputs": [
        {
          "internalType": "uint32",
          "name": "domainId",
          "type": "uint32"
        }
      ],
      "name": "setSelfDomainId",
      "outputs": [],
      "stateMutability": "nonpayable",
      "type": "function"
    },
    {
      "inputs": [
        {
          "internalType": "address",
          "name": "newOwner",
          "type": "address"
        }
      ],
      "name": "transferOwnership",
      "outputs": [],
      "stateMutability": "nonpayable",
      "type": "function"
    }
  ],
  "bytecode": "0x60806040523480156200001157600080fd5b506040516200324038038062003240833981810160405281019062000037919062000238565b620000576200004b620000c160201b60201c565b620000c960201b60201c565b81600260006101000a81548173ffffffffffffffffffffffffffffffffffffffff021916908373ffffffffffffffffffffffffffffffffffffffff16021790555080600260146101000a81548163ffffffff021916908363ffffffff16021790555050506200027f565b600033905090565b60008060009054906101000a900473ffffffffffffffffffffffffffffffffffffffff169050816000806101000a81548173ffffffffffffffffffffffffffffffffffffffff021916908373ffffffffffffffffffffffffffffffffffffffff1602179055508173ffffffffffffffffffffffffffffffffffffffff168173ffffffffffffffffffffffffffffffffffffffff167f8be0079c531659141344cd1fd0a4f28419497f9722a3daafe3b4186f6b6457e060405160405180910390a35050565b600080fd5b600073ffffffffffffffffffffffffffffffffffffffff82169050919050565b6000620001bf8262000192565b9050919050565b620001d181620001b2565b8114620001dd57600080fd5b50565b600081519050620001f181620001c6565b92915050565b600063ffffffff82169050919050565b6200021281620001f7565b81146200021e57600080fd5b50565b600081519050620002328162000207565b92915050565b600080604083850312156200025257620002516200018d565b5b60006200026285828601620001e0565b9250506020620002758582860162000221565b9150509250929050565b612fb1806200028f6000396000f3fe6080604052600436106101405760003560e01c80637f51c0ae116100b6578063b5b57b891161006f578063b5b57b8914610471578063c1e6ac71146104ae578063ce11e6ab146104eb578063dbb11b1d14610516578063e20d27f214610553578063f2fde38b1461057c57610140565b80637f51c0ae1461033b578063805898f6146103785780638461b2f0146103a15780638da5cb5b146103e0578063a80e1a3d1461040b578063b2ddee061461044857610140565b80632e36a5db116101085780632e36a5db1461022f5780633f669f301461026c57806356d5d475146102955780636383847c146102be578063715018a6146102e75780637c62cb7c146102fe57610140565b806308bfc700146101455780630c34d6981461018257806310ac595c146101ad578063131d9343146101d65780632b79a4bf14610213575b600080fd5b34801561015157600080fd5b5061016c60048036038101906101679190611cfd565b6105a5565b6040516101799190611d6b565b60405180910390f35b34801561018e57600080fd5b506101976105d8565b6040516101a49190611da5565b60405180910390f35b3480156101b957600080fd5b506101d460048036038101906101cf9190611e18565b6105ee565b005b3480156101e257600080fd5b506101fd60048036038101906101f89190611cfd565b610658565b60405161020a9190611e71565b60405180910390f35b61022d60048036038101906102289190611ef6565b610670565b005b34801561023b57600080fd5b5061025660048036038101906102519190611cfd565b610b75565b6040516102639190611e71565b60405180910390f35b34801561027857600080fd5b50610293600480360381019061028e9190611e18565b610b8d565b005b3480156102a157600080fd5b506102bc60048036038101906102b79190611fe8565b610bf7565b005b3480156102ca57600080fd5b506102e560048036038101906102e09190611e18565b611248565b005b3480156102f357600080fd5b506102fc611280565b005b34801561030a57600080fd5b506103256004803603810190610320919061205c565b611294565b6040516103329190611d6b565b60405180910390f35b34801561034757600080fd5b50610362600480360381019061035d919061205c565b6112dd565b60405161036f9190611d6b565b60405180910390f35b34801561038457600080fd5b5061039f600480360381019061039a919061205c565b61130e565b005b3480156103ad57600080fd5b506103c860048036038101906103c39190612089565b61133a565b6040516103d7939291906120dc565b60405180910390f35b3480156103ec57600080fd5b506103f561142a565b6040516104029190611d6b565b60405180910390f35b34801561041757600080fd5b50610432600480360381019061042d919061205c565b611453565b60405161043f9190612122565b60405180910390f35b34801561045457600080fd5b5061046f600480360381019061046a919061213d565b61146b565b005b34801561047d57600080fd5b5061049860048036038101906104939190611cfd565b6115c3565b6040516104a59190611da5565b60405180910390f35b3480156104ba57600080fd5b506104d560048036038101906104d0919061205c565b6115e6565b6040516104e29190611d6b565b60405180910390f35b3480156104f757600080fd5b50610500611619565b60405161050d9190611d6b565b60405180910390f35b34801561052257600080fd5b5061053d6004803603810190610538919061205c565b61163f565b60405161054a9190611d6b565b60405180910390f35b34801561055f57600080fd5b5061057a6004803603810190610575919061217d565b611672565b005b34801561058857600080fd5b506105a3600480360381019061059e919061220a565b61188a565b005b60036020528060005260406000206000915054906101000a900473ffffffffffffffffffffffffffffffffffffffff1681565b600260149054906101000a900463ffffffff1681565b6105f661190e565b80600960008463ffffffff1663ffffffff16815260200190815260200160002060006101000a81548173ffffffffffffffffffffffffffffffffffffffff021916908373ffffffffffffffffffffffffffffffffffffffff1602179055505050565b60066020528060005260406000206000915090505481565b600073ffffffffffffffffffffffffffffffffffffffff16600860008363ffffffff1663ffffffff16815260200190815260200160002060009054906101000a900473ffffffffffffffffffffffffffffffffffffffff1673ffffffffffffffffffffffffffffffffffffffff16141561071f576040517f08c379a000000000000000000000000000000000000000000000000000000000815260040161071690612294565b60405180910390fd5b600086858585604051602001610738949392919061237c565b6040516020818303038152906040528051906020012090506000600460008381526020019081526020016000205414158061079d575060006005600083815260200190815260200160002060009054906101000a900463ffffffff1663ffffffff1614155b6107a657600080fd5b6005600082815260200190815260200160002060009054906101000a900463ffffffff1663ffffffff168263ffffffff1614156108a05734600460008381526020019081526020016000205411156107fd57600080fd5b60008786863360405160200161081694939291906123ca565b60405160208183030381529060405280519060200120905034600660008381526020019081526020016000208190555061088e88888888333489600260149054906101000a900463ffffffff163060405160200161087a979695949392919061245b565b60405160208183030381529060405261198c565b61089a88878787611a4b565b50610b1c565b6000600860008463ffffffff1663ffffffff16815260200190815260200160002060009054906101000a900473ffffffffffffffffffffffffffffffffffffffff1690506000600860006005600086815260200190815260200160002060009054906101000a900463ffffffff1663ffffffff1663ffffffff16815260200190815260200160002060009054906101000a900473ffffffffffffffffffffffffffffffffffffffff16905060008273ffffffffffffffffffffffffffffffffffffffff1663feaf968c6040518163ffffffff1660e01b815260040160a06040518083038186803b15801561099357600080fd5b505afa1580156109a7573d6000803e3d6000fd5b505050506040513d601f19601f820116820180604052508101906109cb919061256b565b50505091505060008273ffffffffffffffffffffffffffffffffffffffff1663feaf968c6040518163ffffffff1660e01b815260040160a06040518083038186803b158015610a1957600080fd5b505afa158015610a2d573d6000803e3d6000fd5b505050506040513d601f19601f82011682018060405250810190610a51919061256b565b5050509150503482610a639190612615565b600460008781526020019081526020016000205482610a829190612615565b1115610ac3576040517f08c379a0000000000000000000000000000000000000000000000000000000008152600401610aba906126e1565b60405180910390fd5b610b0b8b8b8b8b33348c600260149054906101000a900463ffffffff1630604051602001610af7979695949392919061245b565b60405160208183030381529060405261198c565b610b178b8a8a8a611a4b565b505050505b7fbe39bcb4b5645ce3e99dc49d095db856201db6af874a4d39b96cd1ed4a06a11d8585856004600086815260200190815260200160002054604051610b649493929190612760565b60405180910390a150505050505050565b60046020528060005260406000206000915090505481565b610b9561190e565b80600860008463ffffffff1663ffffffff16815260200190815260200160002060006101000a81548173ffffffffffffffffffffffffffffffffffffffff021916908373ffffffffffffffffffffffffffffffffffffffff1602179055505050565b8383600080600760008563ffffffff1663ffffffff16815260200190815260200160002054905080831415610c2b57600191505b6000806000806000806000808d8d810190610c4691906128e6565b97509750975097509750975097509750600082888888604051602001610c6f94939291906129b8565b604051602081830303815290604052805190602001209050600060036000600260149054906101000a900463ffffffff168b8b604051602001610cb493929190612a06565b60405160208183030381529060405280519060200120815260200190815260200160002060009054906101000a900473ffffffffffffffffffffffffffffffffffffffff1690506000600260149054906101000a900463ffffffff168a8a84604051602001610d2694939291906129b8565b6040516020818303038152906040528051906020012090506000858b8b604051602001610d5593929190612a06565b604051602081830303815290604052805190602001209050610dac8c6040518060400160405280600781526020017f4c697374696e6700000000000000000000000000000000000000000000000000815250611b5e565b15610e5257886003600083815260200190815260200160002060006101000a81548173ffffffffffffffffffffffffffffffffffffffff021916908373ffffffffffffffffffffffffffffffffffffffff160217905550876004600086815260200190815260200160002081905550866005600086815260200190815260200160002060006101000a81548163ffffffff021916908363ffffffff160217905550611231565b610e918c6040518060400160405280600781526020017f54726164696e6700000000000000000000000000000000000000000000000000815250611b5e565b15610fe357600060046000848152602001908152602001600020541480610ee1575060006005600084815260200190815260200160002060009054906101000a900463ffffffff1663ffffffff16145b15610f2d57610f1c86868d8d8d8d8d8d8d604051602001610f089796959493929190612a8f565b60405160208183030381529060405261198c565b50505050505050505050505061123e565b8a73ffffffffffffffffffffffffffffffffffffffff166323b872dd308b8d6040518463ffffffff1660e01b8152600401610f6a93929190612b12565b600060405180830381600087803b158015610f8457600080fd5b505af1158015610f98573d6000803e3d6000fd5b50505050610fd286868d8d8d8d8d8d8d604051602001610fbe9796959493929190612b95565b60405160208183030381529060405261198c565b610fde868c8c86611a4b565b611230565b6110228c6040518060400160405280600781526020017f436f6e6669726d00000000000000000000000000000000000000000000000000815250611b5e565b156111515760036000600260149054906101000a900463ffffffff168d8d60405160200161105293929190612a06565b60405160208183030381529060405280519060200120815260200190815260200160002060009054906101000a900473ffffffffffffffffffffffffffffffffffffffff1673ffffffffffffffffffffffffffffffffffffffff166108fc60066000600260149054906101000a900463ffffffff168f8f8f6040516020016110dd94939291906129b8565b604051602081830303815290604052805190602001208152602001908152602001600020549081150290604051600060405180830381858888f1935050505015801561112d573d6000803e3d6000fd5b5061114c600260149054906101000a900463ffffffff168c8c8c611a4b565b61122f565b6111908c6040518060400160405280600881526020017f5265766572746564000000000000000000000000000000000000000000000000815250611b5e565b1561122e578873ffffffffffffffffffffffffffffffffffffffff166108fc60066000600260149054906101000a900463ffffffff168f8f8f6040516020016111dc94939291906129b8565b604051602081830303815290604052805190602001208152602001908152602001600020549081150290604051600060405180830381858888f1935050505015801561122c573d6000803e3d6000fd5b505b5b5b5b5050505050505050505050505b5050505050505050565b61125061190e565b61125981611bb7565b600760008463ffffffff1663ffffffff168152602001908152602001600020819055505050565b61128861190e565b6112926000611bda565b565b6000600860008363ffffffff1663ffffffff16815260200190815260200160002060009054906101000a900473ffffffffffffffffffffffffffffffffffffffff169050919050565b6000611307600760008463ffffffff1663ffffffff16815260200190815260200160002054611c9e565b9050919050565b61131661190e565b80600260146101000a81548163ffffffff021916908363ffffffff16021790555050565b60008060008086868660405160200161135593929190612a06565b60405160208183030381529060405280519060200120905060006003600083815260200190815260200160002060009054906101000a900473ffffffffffffffffffffffffffffffffffffffff169050878787836040516020016113bc94939291906129b8565b60405160208183030381529060405280519060200120915060006004600084815260200190815260200160002054905060006005600085815260200190815260200160002060009054906101000a900463ffffffff1690508282829650965096505050505093509350939050565b60008060009054906101000a900473ffffffffffffffffffffffffffffffffffffffff16905090565b60076020528060005260406000206000915090505481565b6000600260149054906101000a900463ffffffff16838360405160200161149493929190612a06565b6040516020818303038152906040528051906020012090506003600082815260200190815260200160002060009054906101000a900473ffffffffffffffffffffffffffffffffffffffff1673ffffffffffffffffffffffffffffffffffffffff163373ffffffffffffffffffffffffffffffffffffffff161461151757600080fd5b8273ffffffffffffffffffffffffffffffffffffffff166323b872dd3033856040518463ffffffff1660e01b815260040161155493929190612b12565b600060405180830381600087803b15801561156e57600080fd5b505af1158015611582573d6000803e3d6000fd5b50505050600073ffffffffffffffffffffffffffffffffffffffff166003600083815260200190815260200160002060009054906101000a90505050505050565b60056020528060005260406000206000915054906101000a900463ffffffff1681565b60086020528060005260406000206000915054906101000a900473ffffffffffffffffffffffffffffffffffffffff1681565b600260009054906101000a900473ffffffffffffffffffffffffffffffffffffffff1681565b60096020528060005260406000206000915054906101000a900473ffffffffffffffffffffffffffffffffffffffff1681565b8573ffffffffffffffffffffffffffffffffffffffff166323b872dd3330886040518463ffffffff1660e01b81526004016116af93929190612b12565b600060405180830381600087803b1580156116c957600080fd5b505af11580156116dd573d6000803e3d6000fd5b505050503360036000600260149054906101000a900463ffffffff16898960405160200161170d93929190612a06565b60405160208183030381529060405280519060200120815260200190815260200160002060006101000a81548173ffffffffffffffffffffffffffffffffffffffff021916908373ffffffffffffffffffffffffffffffffffffffff1602179055506117b782828888338989600260149054906101000a900463ffffffff16306040516020016117a39796959493929190612c64565b60405160208183030381529060405261198c565b6000600260149054906101000a900463ffffffff168787336040516020016117e294939291906129b8565b604051602081830303815290604052805190602001209050846004600083815260200190815260200160002081905550836005600083815260200190815260200160002060006101000a81548163ffffffff021916908363ffffffff1602179055507f8b06cda60618abf2b2d07227f9dd63ec6349ca3269ce0eb18d49122a48362ad8878733886040516118799493929190612ce7565b60405180910390a150505050505050565b61189261190e565b600073ffffffffffffffffffffffffffffffffffffffff168173ffffffffffffffffffffffffffffffffffffffff161415611902576040517f08c379a00000000000000000000000000000000000000000000000000000000081526004016118f990612d9e565b60405180910390fd5b61190b81611bda565b50565b611916611cab565b73ffffffffffffffffffffffffffffffffffffffff1661193461142a565b73ffffffffffffffffffffffffffffffffffffffff161461198a576040517f08c379a000000000000000000000000000000000000000000000000000000000815260040161198190612e0a565b60405180910390fd5b565b600260009054906101000a900473ffffffffffffffffffffffffffffffffffffffff1673ffffffffffffffffffffffffffffffffffffffff1663fa31de01846119d485611bb7565b846040518463ffffffff1660e01b81526004016119f393929190612eb2565b602060405180830381600087803b158015611a0d57600080fd5b505af1158015611a21573d6000803e3d6000fd5b505050506040513d601f19601f82011682018060405250810190611a459190612ef0565b50505050565b600060036000600260149054906101000a900463ffffffff168686604051602001611a7893929190612a06565b60405160208183030381529060405280519060200120815260200190815260200160002060006101000a81548173ffffffffffffffffffffffffffffffffffffffff021916908373ffffffffffffffffffffffffffffffffffffffff160217905550600084848484604051602001611af394939291906129b8565b60405160208183030381529060405280519060200120905060006005600083815260200190815260200160002060006101000a81548163ffffffff021916908363ffffffff160217905550600060046000838152602001908152602001600020819055505050505050565b600081604051602001611b719190612f64565b6040516020818303038152906040528051906020012083604051602001611b989190612f64565b6040516020818303038152906040528051906020012014905092915050565b60008173ffffffffffffffffffffffffffffffffffffffff1660001b9050919050565b60008060009054906101000a900473ffffffffffffffffffffffffffffffffffffffff169050816000806101000a81548173ffffffffffffffffffffffffffffffffffffffff021916908373ffffffffffffffffffffffffffffffffffffffff1602179055508173ffffffffffffffffffffffffffffffffffffffff168173ffffffffffffffffffffffffffffffffffffffff167f8be0079c531659141344cd1fd0a4f28419497f9722a3daafe3b4186f6b6457e060405160405180910390a35050565b60008160001c9050919050565b600033905090565b6000604051905090565b600080fd5b600080fd5b6000819050919050565b611cda81611cc7565b8114611ce557600080fd5b50565b600081359050611cf781611cd1565b92915050565b600060208284031215611d1357611d12611cbd565b5b6000611d2184828501611ce8565b91505092915050565b600073ffffffffffffffffffffffffffffffffffffffff82169050919050565b6000611d5582611d2a565b9050919050565b611d6581611d4a565b82525050565b6000602082019050611d806000830184611d5c565b92915050565b600063ffffffff82169050919050565b611d9f81611d86565b82525050565b6000602082019050611dba6000830184611d96565b92915050565b611dc981611d86565b8114611dd457600080fd5b50565b600081359050611de681611dc0565b92915050565b611df581611d4a565b8114611e0057600080fd5b50565b600081359050611e1281611dec565b92915050565b60008060408385031215611e2f57611e2e611cbd565b5b6000611e3d85828601611dd7565b9250506020611e4e85828601611e03565b9150509250929050565b6000819050919050565b611e6b81611e58565b82525050565b6000602082019050611e866000830184611e62565b92915050565b611e9581611e58565b8114611ea057600080fd5b50565b600081359050611eb281611e8c565b92915050565b6000611ec382611d2a565b9050919050565b611ed381611eb8565b8114611ede57600080fd5b50565b600081359050611ef081611eca565b92915050565b60008060008060008060c08789031215611f1357611f12611cbd565b5b6000611f2189828a01611dd7565b9650506020611f3289828a01611e03565b9550506040611f4389828a01611e03565b9450506060611f5489828a01611ea3565b9350506080611f6589828a01611ee1565b92505060a0611f7689828a01611dd7565b9150509295509295509295565b600080fd5b600080fd5b600080fd5b60008083601f840112611fa857611fa7611f83565b5b8235905067ffffffffffffffff811115611fc557611fc4611f88565b5b602083019150836001820283011115611fe157611fe0611f8d565b5b9250929050565b6000806000806060858703121561200257612001611cbd565b5b600061201087828801611dd7565b945050602061202187828801611ce8565b935050604085013567ffffffffffffffff81111561204257612041611cc2565b5b61204e87828801611f92565b925092505092959194509250565b60006020828403121561207257612071611cbd565b5b600061208084828501611dd7565b91505092915050565b6000806000606084860312156120a2576120a1611cbd565b5b60006120b086828701611dd7565b93505060206120c186828701611e03565b92505060406120d286828701611ea3565b9150509250925092565b60006060820190506120f16000830186611d5c565b6120fe6020830185611e62565b61210b6040830184611d96565b949350505050565b61211c81611cc7565b82525050565b60006020820190506121376000830184612113565b92915050565b6000806040838503121561215457612153611cbd565b5b600061216285828601611e03565b925050602061217385828601611ea3565b9150509250929050565b60008060008060008060c0878903121561219a57612199611cbd565b5b60006121a889828a01611e03565b96505060206121b989828a01611ea3565b95505060406121ca89828a01611ea3565b94505060606121db89828a01611dd7565b93505060806121ec89828a01611dd7565b92505060a06121fd89828a01611e03565b9150509295509295509295565b6000602082840312156122205761221f611cbd565b5b600061222e84828501611e03565b91505092915050565b600082825260208201905092915050565b7f546869732063757272656e63792069736e277420737570706f72746564000000600082015250565b600061227e601d83612237565b915061228982612248565b602082019050919050565b600060208201905081810360008301526122ad81612271565b9050919050565b60008160e01b9050919050565b60006122cc826122b4565b9050919050565b6122e46122df82611d86565b6122c1565b82525050565b60008160601b9050919050565b6000612302826122ea565b9050919050565b6000612314826122f7565b9050919050565b61232c61232782611d4a565b612309565b82525050565b6000819050919050565b61234d61234882611e58565b612332565b82525050565b600061235e826122f7565b9050919050565b61237661237182611eb8565b612353565b82525050565b600061238882876122d3565b600482019150612398828661231b565b6014820191506123a8828561233c565b6020820191506123b88284612365565b60148201915081905095945050505050565b60006080820190506123df6000830187611d96565b6123ec6020830186611d5c565b6123f96040830185611e62565b6124066060830184611d5c565b95945050505050565b7f54726164696e6700000000000000000000000000000000000000000000000000600082015250565b6000612445600783612237565b91506124508261240f565b602082019050919050565b600061010082019050818103600083015261247581612438565b9050612484602083018a611d5c565b6124916040830189611e62565b61249e6060830188611d5c565b6124ab6080830187611e62565b6124b860a0830186611d96565b6124c560c0830185611d96565b6124d260e0830184611d5c565b98975050505050505050565b600069ffffffffffffffffffff82169050919050565b6124fd816124de565b811461250857600080fd5b50565b60008151905061251a816124f4565b92915050565b6000819050919050565b61253381612520565b811461253e57600080fd5b50565b6000815190506125508161252a565b92915050565b60008151905061256581611e8c565b92915050565b600080600080600060a0868803121561258757612586611cbd565b5b60006125958882890161250b565b95505060206125a688828901612541565b94505060406125b788828901612556565b93505060606125c888828901612556565b92505060806125d98882890161250b565b9150509295509295909350565b7f4e487b7100000000000000000000000000000000000000000000000000000000600052601160045260246000fd5b600061262082611e58565b915061262b83611e58565b9250817fffffffffffffffffffffffffffffffffffffffffffffffffffffffffffffffff0483118215151615612664576126636125e6565b5b828202905092915050565b7f4d61726b65742e736f6c3a206c6973746564507269636520616e642053656e6460008201527f696e67507269636520617265206e6f74206d6174636865640000000000000000602082015250565b60006126cb603883612237565b91506126d68261266f565b604082019050919050565b600060208201905081810360008301526126fa816126be565b9050919050565b6000819050919050565b600061272661272161271c84611d2a565b612701565b611d2a565b9050919050565b60006127388261270b565b9050919050565b600061274a8261272d565b9050919050565b61275a8161273f565b82525050565b60006080820190506127756000830187611d5c565b6127826020830186611e62565b61278f6040830185612751565b61279c6060830184611e62565b95945050505050565b600080fd5b6000601f19601f8301169050919050565b7f4e487b7100000000000000000000000000000000000000000000000000000000600052604160045260246000fd5b6127f3826127aa565b810181811067ffffffffffffffff82111715612812576128116127bb565b5b80604052505050565b6000612825611cb3565b905061283182826127ea565b919050565b600067ffffffffffffffff821115612851576128506127bb565b5b61285a826127aa565b9050602081019050919050565b82818337600083830152505050565b600061288961288484612836565b61281b565b9050828152602081018484840111156128a5576128a46127a5565b5b6128b0848285612867565b509392505050565b600082601f8301126128cd576128cc611f83565b5b81356128dd848260208601612876565b91505092915050565b600080600080600080600080610100898b03121561290757612906611cbd565b5b600089013567ffffffffffffffff81111561292557612924611cc2565b5b6129318b828c016128b8565b98505060206129428b828c01611ee1565b97505060406129538b828c01611ea3565b96505060606129648b828c01611ee1565b95505060806129758b828c01611ea3565b94505060a06129868b828c01611dd7565b93505060c06129978b828c01611dd7565b92505060e06129a88b828c01611ee1565b9150509295985092959890939650565b60006129c482876122d3565b6004820191506129d4828661231b565b6014820191506129e4828561233c565b6020820191506129f4828461231b565b60148201915081905095945050505050565b6000612a1282866122d3565b600482019150612a22828561231b565b601482019150612a32828461233c565b602082019150819050949350505050565b7f5265766572746564000000000000000000000000000000000000000000000000600082015250565b6000612a79600883612237565b9150612a8482612a43565b602082019050919050565b6000610100820190508181036000830152612aa981612a6c565b9050612ab8602083018a611d5c565b612ac56040830189611e62565b612ad26060830188611d5c565b612adf6080830187611e62565b612aec60a0830186611d96565b612af960c0830185611d96565b612b0660e0830184611d5c565b98975050505050505050565b6000606082019050612b276000830186611d5c565b612b346020830185611d5c565b612b416040830184611e62565b949350505050565b7f436f6e6669726d64000000000000000000000000000000000000000000000000600082015250565b6000612b7f600883612237565b9150612b8a82612b49565b602082019050919050565b6000610100820190508181036000830152612baf81612b72565b9050612bbe602083018a611d5c565b612bcb6040830189611e62565b612bd86060830188611d5c565b612be56080830187611e62565b612bf260a0830186611d96565b612bff60c0830185611d96565b612c0c60e0830184611d5c565b98975050505050505050565b7f4c697374696e6700000000000000000000000000000000000000000000000000600082015250565b6000612c4e600783612237565b9150612c5982612c18565b602082019050919050565b6000610100820190508181036000830152612c7e81612c41565b9050612c8d602083018a611d5c565b612c9a6040830189611e62565b612ca76060830188611d5c565b612cb46080830187611e62565b612cc160a0830186611d96565b612cce60c0830185611d96565b612cdb60e0830184611d5c565b98975050505050505050565b6000608082019050612cfc6000830187611d5c565b612d096020830186611e62565b612d166040830185611d5c565b612d236060830184611e62565b95945050505050565b7f4f776e61626c653a206e6577206f776e657220697320746865207a65726f206160008201527f6464726573730000000000000000000000000000000000000000000000000000602082015250565b6000612d88602683612237565b9150612d9382612d2c565b604082019050919050565b60006020820190508181036000830152612db781612d7b565b9050919050565b7f4f776e61626c653a2063616c6c6572206973206e6f7420746865206f776e6572600082015250565b6000612df4602083612237565b9150612dff82612dbe565b602082019050919050565b60006020820190508181036000830152612e2381612de7565b9050919050565b600081519050919050565b600082825260208201905092915050565b60005b83811015612e64578082015181840152602081019050612e49565b83811115612e73576000848401525b50505050565b6000612e8482612e2a565b612e8e8185612e35565b9350612e9e818560208601612e46565b612ea7816127aa565b840191505092915050565b6000606082019050612ec76000830186611d96565b612ed46020830185612113565b8181036040830152612ee68184612e79565b9050949350505050565b600060208284031215612f0657612f05611cbd565b5b6000612f1484828501612556565b91505092915050565b600081519050919050565b600081905092915050565b6000612f3e82612f1d565b612f488185612f28565b9350612f58818560208601612e46565b80840191505092915050565b6000612f708284612f33565b91508190509291505056fea2646970667358221220758e455ad3997216798b3bb839625053893873d701e6fc9215a24a9ea17848d864736f6c63430008090033",
  "linkReferences": {},
  "deployedLinkReferences": {}
}