{
  "_format": "hh-sol-artifact-1",
  "contractName": "Market",
  "sourceName": "contracts/Market.sol",
  "abi": [
    {
      "inputs": [
        {
          "internalType": "address",
          "name": "_outbox",
          "type": "address"
        },
        {
          "internalType": "uint32",
          "name": "_selfDomainid",
          "type": "uint32"
        }
      ],
      "stateMutability": "nonpayable",
      "type": "constructor"
    },
    {
      "anonymous": false,
      "inputs": [
        {
          "indexed": false,
          "internalType": "address",
          "name": "nftContractAddress",
          "type": "address"
        },
        {
          "indexed": false,
          "internalType": "uint256",
          "name": "tokenId",
          "type": "uint256"
        },
        {
          "indexed": false,
          "internalType": "address",
          "name": "seller",
          "type": "address"
        },
        {
          "indexed": false,
          "internalType": "uint256",
          "name": "price",
          "type": "uint256"
        }
      ],
      "name": "Bought",
      "type": "event"
    },
    {
      "anonymous": false,
      "inputs": [
        {
          "indexed": false,
          "internalType": "address",
          "name": "nftContractAddress",
          "type": "address"
        },
        {
          "indexed": false,
          "internalType": "uint256",
          "name": "tokenId",
          "type": "uint256"
        },
        {
          "indexed": false,
          "internalType": "address",
          "name": "seller",
          "type": "address"
        },
        {
          "indexed": false,
          "internalType": "uint256",
          "name": "price",
          "type": "uint256"
        }
      ],
      "name": "Listed",
      "type": "event"
    },
    {
      "anonymous": false,
      "inputs": [
        {
          "indexed": true,
          "internalType": "address",
          "name": "previousOwner",
          "type": "address"
        },
        {
          "indexed": true,
          "internalType": "address",
          "name": "newOwner",
          "type": "address"
        }
      ],
      "name": "OwnershipTransferred",
      "type": "event"
    },
    {
      "inputs": [
        {
          "internalType": "uint32",
          "name": "domainId",
          "type": "uint32"
        },
        {
          "internalType": "address",
          "name": "contractAddress",
          "type": "address"
        },
        {
          "internalType": "address",
          "name": "nftContractAddress",
          "type": "address"
        },
        {
          "internalType": "uint256",
          "name": "tokenId",
          "type": "uint256"
        },
        {
          "internalType": "address payable",
          "name": "seller",
          "type": "address"
        },
        {
          "internalType": "uint32",
          "name": "currencyId",
          "type": "uint32"
        }
      ],
      "name": "buy",
      "outputs": [],
      "stateMutability": "payable",
      "type": "function"
    },
    {
      "inputs": [
        {
          "internalType": "uint32",
          "name": "domainId",
          "type": "uint32"
        },
        {
          "internalType": "address",
          "name": "contractAddress",
          "type": "address"
        },
        {
          "internalType": "address",
          "name": "nftContractAddress",
          "type": "address"
        },
        {
          "internalType": "uint256",
          "name": "tokenId",
          "type": "uint256"
        },
        {
          "internalType": "address payable",
          "name": "seller",
          "type": "address"
        },
        {
          "internalType": "uint32",
          "name": "currencyId",
          "type": "uint32"
        },
        {
          "internalType": "uint256",
          "name": "sendPrice",
          "type": "uint256"
        }
      ],
      "name": "buyWithERC20",
      "outputs": [],
      "stateMutability": "nonpayable",
      "type": "function"
    },
    {
      "inputs": [
        {
          "internalType": "address",
          "name": "nftContractAddress",
          "type": "address"
        },
        {
          "internalType": "uint256",
          "name": "tokenId",
          "type": "uint256"
        }
      ],
      "name": "cancelListing",
      "outputs": [],
      "stateMutability": "nonpayable",
      "type": "function"
    },
    {
      "inputs": [
        {
          "internalType": "uint32",
          "name": "",
          "type": "uint32"
        }
      ],
      "name": "currencyIdToChainlinkContract",
      "outputs": [
        {
          "internalType": "address",
          "name": "",
          "type": "address"
        }
      ],
      "stateMutability": "view",
      "type": "function"
    },
    {
      "inputs": [
        {
          "internalType": "uint32",
          "name": "",
          "type": "uint32"
        }
      ],
      "name": "currencyIdToCurrencyContractAddress",
      "outputs": [
        {
          "internalType": "address",
          "name": "",
          "type": "address"
        }
      ],
      "stateMutability": "view",
      "type": "function"
    },
    {
      "inputs": [
        {
          "internalType": "uint32",
          "name": "",
          "type": "uint32"
        }
      ],
      "name": "domainToContractAddress",
      "outputs": [
        {
          "internalType": "bytes32",
          "name": "",
          "type": "bytes32"
        }
      ],
      "stateMutability": "view",
      "type": "function"
    },
    {
      "inputs": [
        {
          "internalType": "uint32",
          "name": "domainId",
          "type": "uint32"
        }
      ],
      "name": "getChainlinkContractAddress",
      "outputs": [
        {
          "internalType": "address",
          "name": "",
          "type": "address"
        }
      ],
      "stateMutability": "view",
      "type": "function"
    },
    {
      "inputs": [
        {
          "internalType": "uint32",
          "name": "domainId",
          "type": "uint32"
        },
        {
          "internalType": "address",
          "name": "nftContractAddress",
          "type": "address"
        },
        {
          "internalType": "uint256",
          "name": "tokenId",
          "type": "uint256"
        }
      ],
      "name": "getListInformation",
      "outputs": [
        {
          "internalType": "address",
          "name": "",
          "type": "address"
        },
        {
          "internalType": "uint256",
          "name": "",
          "type": "uint256"
        },
        {
          "internalType": "uint32",
          "name": "",
          "type": "uint32"
        }
      ],
      "stateMutability": "view",
      "type": "function"
    },
    {
      "inputs": [
        {
          "internalType": "uint32",
          "name": "domainId",
          "type": "uint32"
        }
      ],
      "name": "getResisteredContract",
      "outputs": [
        {
          "internalType": "address",
          "name": "",
          "type": "address"
        }
      ],
      "stateMutability": "view",
      "type": "function"
    },
    {
      "inputs": [
        {
          "internalType": "uint32",
          "name": "_origin",
          "type": "uint32"
        },
        {
          "internalType": "bytes32",
          "name": "_sender",
          "type": "bytes32"
        },
        {
          "internalType": "bytes",
          "name": "_messageBody",
          "type": "bytes"
        }
      ],
      "name": "handle",
      "outputs": [],
      "stateMutability": "nonpayable",
      "type": "function"
    },
    {
      "inputs": [
        {
          "internalType": "address",
          "name": "nftContractAddress",
          "type": "address"
        },
        {
          "internalType": "uint256",
          "name": "tokenId",
          "type": "uint256"
        },
        {
          "internalType": "uint256",
          "name": "price",
          "type": "uint256"
        },
        {
          "internalType": "uint32",
          "name": "currencyId",
          "type": "uint32"
        },
        {
          "internalType": "uint32",
          "name": "domainIdTo",
          "type": "uint32"
        },
        {
          "internalType": "address",
          "name": "ourContractAddress",
          "type": "address"
        }
      ],
      "name": "list",
      "outputs": [],
      "stateMutability": "nonpayable",
      "type": "function"
    },
    {
      "inputs": [
        {
          "internalType": "bytes32",
          "name": "",
          "type": "bytes32"
        }
      ],
      "name": "listedCurrency",
      "outputs": [
        {
          "internalType": "uint32",
          "name": "",
          "type": "uint32"
        }
      ],
      "stateMutability": "view",
      "type": "function"
    },
    {
      "inputs": [
        {
          "internalType": "bytes32",
          "name": "",
          "type": "bytes32"
        }
      ],
      "name": "listedPrice",
      "outputs": [
        {
          "internalType": "uint256",
          "name": "",
          "type": "uint256"
        }
      ],
      "stateMutability": "view",
      "type": "function"
    },
    {
      "inputs": [],
      "name": "outbox",
      "outputs": [
        {
          "internalType": "address",
          "name": "",
          "type": "address"
        }
      ],
      "stateMutability": "view",
      "type": "function"
    },
    {
      "inputs": [],
      "name": "owner",
      "outputs": [
        {
          "internalType": "address",
          "name": "",
          "type": "address"
        }
      ],
      "stateMutability": "view",
      "type": "function"
    },
    {
      "inputs": [],
      "name": "renounceOwnership",
      "outputs": [],
      "stateMutability": "nonpayable",
      "type": "function"
    },
    {
      "inputs": [],
      "name": "selfDomainId",
      "outputs": [
        {
          "internalType": "uint32",
          "name": "",
          "type": "uint32"
        }
      ],
      "stateMutability": "view",
      "type": "function"
    },
    {
      "inputs": [
        {
          "internalType": "bytes32",
          "name": "",
          "type": "bytes32"
        }
      ],
      "name": "sellerAddress",
      "outputs": [
        {
          "internalType": "address",
          "name": "",
          "type": "address"
        }
      ],
      "stateMutability": "view",
      "type": "function"
    },
    {
      "inputs": [
        {
          "internalType": "uint32",
          "name": "currencyId",
          "type": "uint32"
        },
        {
          "internalType": "address",
          "name": "contractAddress",
          "type": "address"
        }
      ],
      "name": "setChainlinkContract",
      "outputs": [],
      "stateMutability": "nonpayable",
      "type": "function"
    },
    {
      "inputs": [
        {
          "internalType": "uint32",
          "name": "domainId",
          "type": "uint32"
        },
        {
          "internalType": "address",
          "name": "contractAddress",
          "type": "address"
        }
      ],
      "name": "setContract",
      "outputs": [],
      "stateMutability": "nonpayable",
      "type": "function"
    },
    {
      "inputs": [
        {
          "internalType": "uint32",
          "name": "currencyId",
          "type": "uint32"
        },
        {
          "internalType": "address",
          "name": "currencyContractAddress",
          "type": "address"
        }
      ],
      "name": "setCurrencyContractAddress",
      "outputs": [],
      "stateMutability": "nonpayable",
      "type": "function"
    },
    {
      "inputs": [
        {
          "internalType": "uint32",
          "name": "domainId",
          "type": "uint32"
        }
      ],
      "name": "setSelfDomainId",
      "outputs": [],
      "stateMutability": "nonpayable",
      "type": "function"
    },
    {
      "inputs": [
        {
          "internalType": "uint32",
          "name": "domainId",
          "type": "uint32"
        },
        {
          "internalType": "address",
          "name": "nftContractAddress",
          "type": "address"
        },
        {
          "internalType": "uint256",
          "name": "tokenId",
          "type": "uint256"
        },
        {
          "internalType": "address payable",
          "name": "seller",
          "type": "address"
        },
        {
          "internalType": "uint32",
          "name": "currencyId",
          "type": "uint32"
        },
        {
          "internalType": "uint256",
          "name": "msgValue",
          "type": "uint256"
        }
      ],
      "name": "testGetPriceMultiple",
      "outputs": [
        {
          "internalType": "uint256[2]",
          "name": "",
          "type": "uint256[2]"
        }
      ],
      "stateMutability": "view",
      "type": "function"
    },
    {
      "inputs": [
        {
          "internalType": "address",
          "name": "newOwner",
          "type": "address"
        }
      ],
      "name": "transferOwnership",
      "outputs": [],
      "stateMutability": "nonpayable",
      "type": "function"
    }
  ],
  "bytecode": "0x60806040523480156200001157600080fd5b506040516200386d3803806200386d833981810160405281019062000037919062000238565b620000576200004b620000c160201b60201c565b620000c960201b60201c565b81600260006101000a81548173ffffffffffffffffffffffffffffffffffffffff021916908373ffffffffffffffffffffffffffffffffffffffff16021790555080600260146101000a81548163ffffffff021916908363ffffffff16021790555050506200027f565b600033905090565b60008060009054906101000a900473ffffffffffffffffffffffffffffffffffffffff169050816000806101000a81548173ffffffffffffffffffffffffffffffffffffffff021916908373ffffffffffffffffffffffffffffffffffffffff1602179055508173ffffffffffffffffffffffffffffffffffffffff168173ffffffffffffffffffffffffffffffffffffffff167f8be0079c531659141344cd1fd0a4f28419497f9722a3daafe3b4186f6b6457e060405160405180910390a35050565b600080fd5b600073ffffffffffffffffffffffffffffffffffffffff82169050919050565b6000620001bf8262000192565b9050919050565b620001d181620001b2565b8114620001dd57600080fd5b50565b600081519050620001f181620001c6565b92915050565b600063ffffffff82169050919050565b6200021281620001f7565b81146200021e57600080fd5b50565b600081519050620002328162000207565b92915050565b600080604083850312156200025257620002516200018d565b5b60006200026285828601620001e0565b9250506020620002758582860162000221565b9150509250929050565b6135de806200028f6000396000f3fe60806040526004361061014b5760003560e01c80637f51c0ae116100b6578063b5b57b891161006f578063b5b57b89146104a5578063c1e6ac71146104e2578063ce11e6ab1461051f578063dbb11b1d1461054a578063e20d27f214610587578063f2fde38b146105b05761014b565b80637f51c0ae1461036f578063805898f6146103ac5780638461b2f0146103d55780638da5cb5b14610414578063a80e1a3d1461043f578063b2ddee061461047c5761014b565b806356d5d4751161010857806356d5d475146102635780635b96635e1461028c5780636383847c146102c9578063715018a6146102f257806378cd336f146103095780637c62cb7c146103325761014b565b806308bfc700146101505780630c34d6981461018d57806310ac595c146101b85780632b79a4bf146101e15780632e36a5db146101fd5780633f669f301461023a575b600080fd5b34801561015c57600080fd5b506101776004803603810190610172919061222e565b6105d9565b604051610184919061229c565b60405180910390f35b34801561019957600080fd5b506101a261060c565b6040516101af91906122d6565b60405180910390f35b3480156101c457600080fd5b506101df60048036038101906101da9190612349565b610622565b005b6101fb60048036038101906101f691906123fd565b61068c565b005b34801561020957600080fd5b50610224600480360381019061021f919061222e565b610be2565b6040516102319190612499565b60405180910390f35b34801561024657600080fd5b50610261600480360381019061025c9190612349565b610bfa565b005b34801561026f57600080fd5b5061028a60048036038101906102859190612519565b610c64565b005b34801561029857600080fd5b506102b360048036038101906102ae919061258d565b610f5b565b6040516102c091906126c5565b60405180910390f35b3480156102d557600080fd5b506102f060048036038101906102eb9190612349565b6111cb565b005b3480156102fe57600080fd5b50610307611203565b005b34801561031557600080fd5b50610330600480360381019061032b91906126e0565b611217565b005b34801561033e57600080fd5b5061035960048036038101906103549190612782565b611891565b604051610366919061229c565b60405180910390f35b34801561037b57600080fd5b5061039660048036038101906103919190612782565b6118da565b6040516103a3919061229c565b60405180910390f35b3480156103b857600080fd5b506103d360048036038101906103ce9190612782565b61190b565b005b3480156103e157600080fd5b506103fc60048036038101906103f791906127af565b611937565b60405161040b93929190612802565b60405180910390f35b34801561042057600080fd5b50610429611a27565b604051610436919061229c565b60405180910390f35b34801561044b57600080fd5b5061046660048036038101906104619190612782565b611a50565b6040516104739190612848565b60405180910390f35b34801561048857600080fd5b506104a3600480360381019061049e9190612863565b611a68565b005b3480156104b157600080fd5b506104cc60048036038101906104c7919061222e565b611bac565b6040516104d991906122d6565b60405180910390f35b3480156104ee57600080fd5b5061050960048036038101906105049190612782565b611bcf565b604051610516919061229c565b60405180910390f35b34801561052b57600080fd5b50610534611c02565b604051610541919061229c565b60405180910390f35b34801561055657600080fd5b50610571600480360381019061056c9190612782565b611c28565b60405161057e919061229c565b60405180910390f35b34801561059357600080fd5b506105ae60048036038101906105a991906128a3565b611c5b565b005b3480156105bc57600080fd5b506105d760048036038101906105d29190612930565b611e5d565b005b60036020528060005260406000206000915054906101000a900473ffffffffffffffffffffffffffffffffffffffff1681565b600260149054906101000a900463ffffffff1681565b61062a611ee1565b80600860008463ffffffff1663ffffffff16815260200190815260200160002060006101000a81548173ffffffffffffffffffffffffffffffffffffffff021916908373ffffffffffffffffffffffffffffffffffffffff1602179055505050565b600073ffffffffffffffffffffffffffffffffffffffff16600760008363ffffffff1663ffffffff16815260200190815260200160002060009054906101000a900473ffffffffffffffffffffffffffffffffffffffff1673ffffffffffffffffffffffffffffffffffffffff16141561073b576040517f08c379a0000000000000000000000000000000000000000000000000000000008152600401610732906129ba565b60405180910390fd5b6000868585856040516020016107549493929190612aa2565b604051602081830303815290604052805190602001209050600060046000838152602001908152602001600020541415806107b9575060006005600083815260200190815260200160002060009054906101000a900463ffffffff1663ffffffff1614155b6107c257600080fd5b6005600082815260200190815260200160002060009054906101000a900463ffffffff1663ffffffff168263ffffffff1614156108c957346004600083815260200190815260200160002054111561081957600080fd5b8273ffffffffffffffffffffffffffffffffffffffff166108fc60046000848152602001908152602001600020549081150290604051600060405180830381858888f19350505050158015610872573d6000803e3d6000fd5b506108bb878787873360046000888152602001908152602001600020546000806040516020016108a796959493929190612b8e565b604051602081830303815290604052611f5f565b6108c48161201e565b610b89565b6000600760008463ffffffff1663ffffffff16815260200190815260200160002060009054906101000a900473ffffffffffffffffffffffffffffffffffffffff1690506000600760006005600086815260200190815260200160002060009054906101000a900463ffffffff1663ffffffff1663ffffffff16815260200190815260200160002060009054906101000a900473ffffffffffffffffffffffffffffffffffffffff16905060008273ffffffffffffffffffffffffffffffffffffffff1663feaf968c6040518163ffffffff1660e01b815260040160a06040518083038186803b1580156109bc57600080fd5b505afa1580156109d0573d6000803e3d6000fd5b505050506040513d601f19601f820116820180604052508101906109f49190612c8f565b50505091505060008273ffffffffffffffffffffffffffffffffffffffff1663feaf968c6040518163ffffffff1660e01b815260040160a06040518083038186803b158015610a4257600080fd5b505afa158015610a56573d6000803e3d6000fd5b505050506040513d601f19601f82011682018060405250810190610a7a9190612c8f565b5050509150503482610a8c9190612d39565b600460008781526020019081526020016000205482610aab9190612d39565b1115610aec576040517f08c379a0000000000000000000000000000000000000000000000000000000008152600401610ae390612e05565b60405180910390fd5b8673ffffffffffffffffffffffffffffffffffffffff166108fc349081150290604051600060405180830381858888f19350505050158015610b32573d6000803e3d6000fd5b50610b7b8b8b8b8b33600460008c815260200190815260200160002054600080604051602001610b6796959493929190612b8e565b604051602081830303815290604052611f5f565b610b848561201e565b505050505b7fbe39bcb4b5645ce3e99dc49d095db856201db6af874a4d39b96cd1ed4a06a11d8585856004600086815260200190815260200160002054604051610bd19493929190612e7a565b60405180910390a150505050505050565b60046020528060005260406000206000915090505481565b610c02611ee1565b80600760008463ffffffff1663ffffffff16815260200190815260200160002060006101000a81548173ffffffffffffffffffffffffffffffffffffffff021916908373ffffffffffffffffffffffffffffffffffffffff1602179055505050565b8383600080600660008563ffffffff1663ffffffff16815260200190815260200160002054905080831415610c9857600191505b6000806000806000808b8b810190610cb09190613000565b95509550955095509550955060008e868686604051602001610cd594939291906130a9565b60405160208183030381529060405280519060200120905060008f8787604051602001610d04939291906130f7565b604051602081830303815290604052805190602001209050610d5b886040518060400160405280600781526020017f4c697374696e670000000000000000000000000000000000000000000000000081525061206d565b15610dfd57846003600083815260200190815260200160002060006101000a81548173ffffffffffffffffffffffffffffffffffffffff021916908373ffffffffffffffffffffffffffffffffffffffff160217905550836004600084815260200190815260200160002081905550826005600084815260200190815260200160002060006101000a81548163ffffffff021916908363ffffffff1602179055505b610e3c886040518060400160405280600781526020017f54726164696e670000000000000000000000000000000000000000000000000081525061206d565b15610f49578673ffffffffffffffffffffffffffffffffffffffff166323b872dd3087896040518463ffffffff1660e01b8152600401610e7e93929190613134565b600060405180830381600087803b158015610e9857600080fd5b505af1158015610eac573d6000803e3d6000fd5b50505050600060036000600260149054906101000a900463ffffffff168a8a604051602001610edd939291906130f7565b60405160208183030381529060405280519060200120815260200190815260200160002060006101000a81548173ffffffffffffffffffffffffffffffffffffffff021916908373ffffffffffffffffffffffffffffffffffffffff160217905550610f488261201e565b5b50505050505050505050505050505050565b610f636121c2565b610f6b6121c2565b600088888888604051602001610f849493929190612aa2565b6040516020818303038152906040528051906020012090506000600760008763ffffffff1663ffffffff16815260200190815260200160002060009054906101000a900473ffffffffffffffffffffffffffffffffffffffff1690506000600760006005600086815260200190815260200160002060009054906101000a900463ffffffff1663ffffffff1663ffffffff16815260200190815260200160002060009054906101000a900473ffffffffffffffffffffffffffffffffffffffff16905060008273ffffffffffffffffffffffffffffffffffffffff1663feaf968c6040518163ffffffff1660e01b815260040160a06040518083038186803b15801561108f57600080fd5b505afa1580156110a3573d6000803e3d6000fd5b505050506040513d601f19601f820116820180604052508101906110c79190612c8f565b50505091505060008273ffffffffffffffffffffffffffffffffffffffff1663feaf968c6040518163ffffffff1660e01b815260040160a06040518083038186803b15801561111557600080fd5b505afa158015611129573d6000803e3d6000fd5b505050506040513d601f19601f8201168201806040525081019061114d9190612c8f565b5050509150506004600086815260200190815260200160002054816111729190612d39565b866000600281106111865761118561316b565b5b602002018181525050878261119b9190612d39565b866001600281106111af576111ae61316b565b5b6020020181815250508596505050505050509695505050505050565b6111d3611ee1565b6111dc816120c6565b600660008463ffffffff1663ffffffff168152602001908152602001600020819055505050565b61120b611ee1565b61121560006120e9565b565b600073ffffffffffffffffffffffffffffffffffffffff16600760008463ffffffff1663ffffffff16815260200190815260200160002060009054906101000a900473ffffffffffffffffffffffffffffffffffffffff1673ffffffffffffffffffffffffffffffffffffffff1614156112c6576040517f08c379a00000000000000000000000000000000000000000000000000000000081526004016112bd906129ba565b60405180910390fd5b6000878686866040516020016112df9493929190612aa2565b60405160208183030381529060405280519060200120905060006004600083815260200190815260200160002054141580611344575060006005600083815260200190815260200160002060009054906101000a900463ffffffff1663ffffffff1614155b61134d57600080fd5b6005600082815260200190815260200160002060009054906101000a900463ffffffff1663ffffffff168363ffffffff1614156114dc5781600460008381526020019081526020016000205411156113a457600080fd5b600860008463ffffffff1663ffffffff16815260200190815260200160002060009054906101000a900473ffffffffffffffffffffffffffffffffffffffff1673ffffffffffffffffffffffffffffffffffffffff166323b872dd338660046000868152602001908152602001600020546040518463ffffffff1660e01b81526004016114339392919061319a565b602060405180830381600087803b15801561144d57600080fd5b505af1158015611461573d6000803e3d6000fd5b505050506040513d601f19601f820116820180604052508101906114859190613209565b506114ce888888883360046000888152602001908152602001600020546000806040516020016114ba96959493929190612b8e565b604051602081830303815290604052611f5f565b6114d78161201e565b611837565b6000600760008563ffffffff1663ffffffff16815260200190815260200160002060009054906101000a900473ffffffffffffffffffffffffffffffffffffffff1690506000600760006005600086815260200190815260200160002060009054906101000a900463ffffffff1663ffffffff1663ffffffff16815260200190815260200160002060009054906101000a900473ffffffffffffffffffffffffffffffffffffffff16905060008273ffffffffffffffffffffffffffffffffffffffff1663feaf968c6040518163ffffffff1660e01b815260040160a06040518083038186803b1580156115cf57600080fd5b505afa1580156115e3573d6000803e3d6000fd5b505050506040513d601f19601f820116820180604052508101906116079190612c8f565b50505091505060008273ffffffffffffffffffffffffffffffffffffffff1663feaf968c6040518163ffffffff1660e01b815260040160a06040518083038186803b15801561165557600080fd5b505afa158015611669573d6000803e3d6000fd5b505050506040513d601f19601f8201168201806040525081019061168d9190612c8f565b505050915050858261169f9190612d39565b6004600087815260200190815260200160002054826116be9190612d39565b11156116ff576040517f08c379a00000000000000000000000000000000000000000000000000000000081526004016116f690612e05565b60405180910390fd5b600860008863ffffffff1663ffffffff16815260200190815260200160002060009054906101000a900473ffffffffffffffffffffffffffffffffffffffff1673ffffffffffffffffffffffffffffffffffffffff166323b872dd338a600460008a8152602001908152602001600020546040518463ffffffff1660e01b815260040161178e9392919061319a565b602060405180830381600087803b1580156117a857600080fd5b505af11580156117bc573d6000803e3d6000fd5b505050506040513d601f19601f820116820180604052508101906117e09190613209565b506118298c8c8c8c33600460008c81526020019081526020016000205460008060405160200161181596959493929190612b8e565b604051602081830303815290604052611f5f565b6118328561201e565b505050505b7fbe39bcb4b5645ce3e99dc49d095db856201db6af874a4d39b96cd1ed4a06a11d868686600460008681526020019081526020016000205460405161187f9493929190612e7a565b60405180910390a15050505050505050565b6000600760008363ffffffff1663ffffffff16815260200190815260200160002060009054906101000a900473ffffffffffffffffffffffffffffffffffffffff169050919050565b6000611904600660008463ffffffff1663ffffffff168152602001908152602001600020546121ad565b9050919050565b611913611ee1565b80600260146101000a81548163ffffffff021916908363ffffffff16021790555050565b600080600080868686604051602001611952939291906130f7565b60405160208183030381529060405280519060200120905060006003600083815260200190815260200160002060009054906101000a900473ffffffffffffffffffffffffffffffffffffffff169050878787836040516020016119b994939291906130a9565b60405160208183030381529060405280519060200120915060006004600084815260200190815260200160002054905060006005600085815260200190815260200160002060009054906101000a900463ffffffff1690508282829650965096505050505093509350939050565b60008060009054906101000a900473ffffffffffffffffffffffffffffffffffffffff16905090565b60066020528060005260406000206000915090505481565b60008282604051602001611a7d929190613236565b6040516020818303038152906040528051906020012090506003600082815260200190815260200160002060009054906101000a900473ffffffffffffffffffffffffffffffffffffffff1673ffffffffffffffffffffffffffffffffffffffff163373ffffffffffffffffffffffffffffffffffffffff1614611b0057600080fd5b8273ffffffffffffffffffffffffffffffffffffffff166323b872dd3033856040518463ffffffff1660e01b8152600401611b3d93929190613134565b600060405180830381600087803b158015611b5757600080fd5b505af1158015611b6b573d6000803e3d6000fd5b50505050600073ffffffffffffffffffffffffffffffffffffffff166003600083815260200190815260200160002060009054906101000a90505050505050565b60056020528060005260406000206000915054906101000a900463ffffffff1681565b60076020528060005260406000206000915054906101000a900473ffffffffffffffffffffffffffffffffffffffff1681565b600260009054906101000a900473ffffffffffffffffffffffffffffffffffffffff1681565b60086020528060005260406000206000915054906101000a900473ffffffffffffffffffffffffffffffffffffffff1681565b8573ffffffffffffffffffffffffffffffffffffffff166323b872dd3330886040518463ffffffff1660e01b8152600401611c9893929190613134565b600060405180830381600087803b158015611cb257600080fd5b505af1158015611cc6573d6000803e3d6000fd5b505050503360036000600260149054906101000a900463ffffffff168989604051602001611cf6939291906130f7565b60405160208183030381529060405280519060200120815260200190815260200160002060006101000a81548173ffffffffffffffffffffffffffffffffffffffff021916908373ffffffffffffffffffffffffffffffffffffffff160217905550611d8a82828888338989604051602001611d769594939291906132ae565b604051602081830303815290604052611f5f565b6000600260149054906101000a900463ffffffff16878733604051602001611db594939291906130a9565b604051602081830303815290604052805190602001209050846004600083815260200190815260200160002081905550836005600083815260200190815260200160002060006101000a81548163ffffffff021916908363ffffffff1602179055507f8b06cda60618abf2b2d07227f9dd63ec6349ca3269ce0eb18d49122a48362ad887873388604051611e4c9493929190613314565b60405180910390a150505050505050565b611e65611ee1565b600073ffffffffffffffffffffffffffffffffffffffff168173ffffffffffffffffffffffffffffffffffffffff161415611ed5576040517f08c379a0000000000000000000000000000000000000000000000000000000008152600401611ecc906133cb565b60405180910390fd5b611ede816120e9565b50565b611ee96121ba565b73ffffffffffffffffffffffffffffffffffffffff16611f07611a27565b73ffffffffffffffffffffffffffffffffffffffff1614611f5d576040517f08c379a0000000000000000000000000000000000000000000000000000000008152600401611f5490613437565b60405180910390fd5b565b600260009054906101000a900473ffffffffffffffffffffffffffffffffffffffff1673ffffffffffffffffffffffffffffffffffffffff1663fa31de0184611fa7856120c6565b846040518463ffffffff1660e01b8152600401611fc6939291906134df565b602060405180830381600087803b158015611fe057600080fd5b505af1158015611ff4573d6000803e3d6000fd5b505050506040513d601f19601f82011682018060405250810190612018919061351d565b50505050565b60006005600083815260200190815260200160002060006101000a81548163ffffffff021916908363ffffffff1602179055506000600460008381526020019081526020016000208190555050565b6000816040516020016120809190613591565b60405160208183030381529060405280519060200120836040516020016120a79190613591565b6040516020818303038152906040528051906020012014905092915050565b60008173ffffffffffffffffffffffffffffffffffffffff1660001b9050919050565b60008060009054906101000a900473ffffffffffffffffffffffffffffffffffffffff169050816000806101000a81548173ffffffffffffffffffffffffffffffffffffffff021916908373ffffffffffffffffffffffffffffffffffffffff1602179055508173ffffffffffffffffffffffffffffffffffffffff168173ffffffffffffffffffffffffffffffffffffffff167f8be0079c531659141344cd1fd0a4f28419497f9722a3daafe3b4186f6b6457e060405160405180910390a35050565b60008160001c9050919050565b600033905090565b6040518060400160405280600290602082028036833780820191505090505090565b6000604051905090565b600080fd5b600080fd5b6000819050919050565b61220b816121f8565b811461221657600080fd5b50565b60008135905061222881612202565b92915050565b600060208284031215612244576122436121ee565b5b600061225284828501612219565b91505092915050565b600073ffffffffffffffffffffffffffffffffffffffff82169050919050565b60006122868261225b565b9050919050565b6122968161227b565b82525050565b60006020820190506122b1600083018461228d565b92915050565b600063ffffffff82169050919050565b6122d0816122b7565b82525050565b60006020820190506122eb60008301846122c7565b92915050565b6122fa816122b7565b811461230557600080fd5b50565b600081359050612317816122f1565b92915050565b6123268161227b565b811461233157600080fd5b50565b6000813590506123438161231d565b92915050565b600080604083850312156123605761235f6121ee565b5b600061236e85828601612308565b925050602061237f85828601612334565b9150509250929050565b6000819050919050565b61239c81612389565b81146123a757600080fd5b50565b6000813590506123b981612393565b92915050565b60006123ca8261225b565b9050919050565b6123da816123bf565b81146123e557600080fd5b50565b6000813590506123f7816123d1565b92915050565b60008060008060008060c0878903121561241a576124196121ee565b5b600061242889828a01612308565b965050602061243989828a01612334565b955050604061244a89828a01612334565b945050606061245b89828a016123aa565b935050608061246c89828a016123e8565b92505060a061247d89828a01612308565b9150509295509295509295565b61249381612389565b82525050565b60006020820190506124ae600083018461248a565b92915050565b600080fd5b600080fd5b600080fd5b60008083601f8401126124d9576124d86124b4565b5b8235905067ffffffffffffffff8111156124f6576124f56124b9565b5b602083019150836001820283011115612512576125116124be565b5b9250929050565b60008060008060608587031215612533576125326121ee565b5b600061254187828801612308565b945050602061255287828801612219565b935050604085013567ffffffffffffffff811115612573576125726121f3565b5b61257f878288016124c3565b925092505092959194509250565b60008060008060008060c087890312156125aa576125a96121ee565b5b60006125b889828a01612308565b96505060206125c989828a01612334565b95505060406125da89828a016123aa565b94505060606125eb89828a016123e8565b93505060806125fc89828a01612308565b92505060a061260d89828a016123aa565b9150509295509295509295565b600060029050919050565b600081905092915050565b6000819050919050565b61264381612389565b82525050565b6000612655838361263a565b60208301905092915050565b6000602082019050919050565b6126778161261a565b6126818184612625565b925061268c82612630565b8060005b838110156126bd5781516126a48782612649565b96506126af83612661565b925050600181019050612690565b505050505050565b60006040820190506126da600083018461266e565b92915050565b600080600080600080600060e0888a0312156126ff576126fe6121ee565b5b600061270d8a828b01612308565b975050602061271e8a828b01612334565b965050604061272f8a828b01612334565b95505060606127408a828b016123aa565b94505060806127518a828b016123e8565b93505060a06127628a828b01612308565b92505060c06127738a828b016123aa565b91505092959891949750929550565b600060208284031215612798576127976121ee565b5b60006127a684828501612308565b91505092915050565b6000806000606084860312156127c8576127c76121ee565b5b60006127d686828701612308565b93505060206127e786828701612334565b92505060406127f8868287016123aa565b9150509250925092565b6000606082019050612817600083018661228d565b612824602083018561248a565b61283160408301846122c7565b949350505050565b612842816121f8565b82525050565b600060208201905061285d6000830184612839565b92915050565b6000806040838503121561287a576128796121ee565b5b600061288885828601612334565b9250506020612899858286016123aa565b9150509250929050565b60008060008060008060c087890312156128c0576128bf6121ee565b5b60006128ce89828a01612334565b96505060206128df89828a016123aa565b95505060406128f089828a016123aa565b945050606061290189828a01612308565b935050608061291289828a01612308565b92505060a061292389828a01612334565b9150509295509295509295565b600060208284031215612946576129456121ee565b5b600061295484828501612334565b91505092915050565b600082825260208201905092915050565b7f546869732063757272656e63792069736e277420737570706f72746564000000600082015250565b60006129a4601d8361295d565b91506129af8261296e565b602082019050919050565b600060208201905081810360008301526129d381612997565b9050919050565b60008160e01b9050919050565b60006129f2826129da565b9050919050565b612a0a612a05826122b7565b6129e7565b82525050565b60008160601b9050919050565b6000612a2882612a10565b9050919050565b6000612a3a82612a1d565b9050919050565b612a52612a4d8261227b565b612a2f565b82525050565b6000819050919050565b612a73612a6e82612389565b612a58565b82525050565b6000612a8482612a1d565b9050919050565b612a9c612a97826123bf565b612a79565b82525050565b6000612aae82876129f9565b600482019150612abe8286612a41565b601482019150612ace8285612a62565b602082019150612ade8284612a8b565b60148201915081905095945050505050565b7f54726164696e6700000000000000000000000000000000000000000000000000600082015250565b6000612b2660078361295d565b9150612b3182612af0565b602082019050919050565b6000819050919050565b600060ff82169050919050565b6000819050919050565b6000612b78612b73612b6e84612b3c565b612b53565b612b46565b9050919050565b612b8881612b5d565b82525050565b600060e0820190508181036000830152612ba781612b19565b9050612bb6602083018961228d565b612bc3604083018861248a565b612bd0606083018761228d565b612bdd608083018661248a565b612bea60a0830185612b7f565b612bf760c0830184612b7f565b979650505050505050565b600069ffffffffffffffffffff82169050919050565b612c2181612c02565b8114612c2c57600080fd5b50565b600081519050612c3e81612c18565b92915050565b6000819050919050565b612c5781612c44565b8114612c6257600080fd5b50565b600081519050612c7481612c4e565b92915050565b600081519050612c8981612393565b92915050565b600080600080600060a08688031215612cab57612caa6121ee565b5b6000612cb988828901612c2f565b9550506020612cca88828901612c65565b9450506040612cdb88828901612c7a565b9350506060612cec88828901612c7a565b9250506080612cfd88828901612c2f565b9150509295509295909350565b7f4e487b7100000000000000000000000000000000000000000000000000000000600052601160045260246000fd5b6000612d4482612389565b9150612d4f83612389565b9250817fffffffffffffffffffffffffffffffffffffffffffffffffffffffffffffffff0483118215151615612d8857612d87612d0a565b5b828202905092915050565b7f4d61726b65742e736f6c3a206c6973746564507269636520616e642053656e6460008201527f696e67507269636520617265206e6f74206d6174636865640000000000000000602082015250565b6000612def60388361295d565b9150612dfa82612d93565b604082019050919050565b60006020820190508181036000830152612e1e81612de2565b9050919050565b6000612e40612e3b612e368461225b565b612b53565b61225b565b9050919050565b6000612e5282612e25565b9050919050565b6000612e6482612e47565b9050919050565b612e7481612e59565b82525050565b6000608082019050612e8f600083018761228d565b612e9c602083018661248a565b612ea96040830185612e6b565b612eb6606083018461248a565b95945050505050565b600080fd5b6000601f19601f8301169050919050565b7f4e487b7100000000000000000000000000000000000000000000000000000000600052604160045260246000fd5b612f0d82612ec4565b810181811067ffffffffffffffff82111715612f2c57612f2b612ed5565b5b80604052505050565b6000612f3f6121e4565b9050612f4b8282612f04565b919050565b600067ffffffffffffffff821115612f6b57612f6a612ed5565b5b612f7482612ec4565b9050602081019050919050565b82818337600083830152505050565b6000612fa3612f9e84612f50565b612f35565b905082815260208101848484011115612fbf57612fbe612ebf565b5b612fca848285612f81565b509392505050565b600082601f830112612fe757612fe66124b4565b5b8135612ff7848260208601612f90565b91505092915050565b60008060008060008060c0878903121561301d5761301c6121ee565b5b600087013567ffffffffffffffff81111561303b5761303a6121f3565b5b61304789828a01612fd2565b965050602061305889828a016123e8565b955050604061306989828a016123aa565b945050606061307a89828a016123e8565b935050608061308b89828a016123aa565b92505060a061309c89828a01612308565b9150509295509295509295565b60006130b582876129f9565b6004820191506130c58286612a41565b6014820191506130d58285612a62565b6020820191506130e58284612a41565b60148201915081905095945050505050565b600061310382866129f9565b6004820191506131138285612a41565b6014820191506131238284612a62565b602082019150819050949350505050565b6000606082019050613149600083018661228d565b613156602083018561228d565b613163604083018461248a565b949350505050565b7f4e487b7100000000000000000000000000000000000000000000000000000000600052603260045260246000fd5b60006060820190506131af600083018661228d565b6131bc6020830185612e6b565b6131c9604083018461248a565b949350505050565b60008115159050919050565b6131e6816131d1565b81146131f157600080fd5b50565b600081519050613203816131dd565b92915050565b60006020828403121561321f5761321e6121ee565b5b600061322d848285016131f4565b91505092915050565b60006132428285612a41565b6014820191506132528284612a62565b6020820191508190509392505050565b7f4c697374696e6700000000000000000000000000000000000000000000000000600082015250565b600061329860078361295d565b91506132a382613262565b602082019050919050565b600060c08201905081810360008301526132c78161328b565b90506132d6602083018861228d565b6132e3604083018761248a565b6132f0606083018661228d565b6132fd608083018561248a565b61330a60a08301846122c7565b9695505050505050565b6000608082019050613329600083018761228d565b613336602083018661248a565b613343604083018561228d565b613350606083018461248a565b95945050505050565b7f4f776e61626c653a206e6577206f776e657220697320746865207a65726f206160008201527f6464726573730000000000000000000000000000000000000000000000000000602082015250565b60006133b560268361295d565b91506133c082613359565b604082019050919050565b600060208201905081810360008301526133e4816133a8565b9050919050565b7f4f776e61626c653a2063616c6c6572206973206e6f7420746865206f776e6572600082015250565b600061342160208361295d565b915061342c826133eb565b602082019050919050565b6000602082019050818103600083015261345081613414565b9050919050565b600081519050919050565b600082825260208201905092915050565b60005b83811015613491578082015181840152602081019050613476565b838111156134a0576000848401525b50505050565b60006134b182613457565b6134bb8185613462565b93506134cb818560208601613473565b6134d481612ec4565b840191505092915050565b60006060820190506134f460008301866122c7565b6135016020830185612839565b818103604083015261351381846134a6565b9050949350505050565b600060208284031215613533576135326121ee565b5b600061354184828501612c7a565b91505092915050565b600081519050919050565b600081905092915050565b600061356b8261354a565b6135758185613555565b9350613585818560208601613473565b80840191505092915050565b600061359d8284613560565b91508190509291505056fea26469706673582212202a6eae5568bcd717a9dbd6d1e866bcdca768c495660d4be7b174e4986f15dc1564736f6c63430008090033",
  "linkReferences": {},
  "deployedLinkReferences": {}
}