{
  "_format": "hh-sol-artifact-1",
  "contractName": "Market",
  "sourceName": "contracts/Market.sol",
  "abi": [
    {
      "inputs": [
        {
          "internalType": "address",
          "name": "_outbox",
          "type": "address"
        },
        {
          "internalType": "uint32",
          "name": "_selfDomainid",
          "type": "uint32"
        },
        {
          "internalType": "address",
          "name": "_pushCommContractAddress",
          "type": "address"
        },
        {
          "internalType": "address",
          "name": "_pushChannelAddress",
          "type": "address"
        }
      ],
      "stateMutability": "nonpayable",
      "type": "constructor"
    },
    {
      "anonymous": false,
      "inputs": [
        {
          "indexed": false,
          "internalType": "address",
          "name": "nftContractAddress",
          "type": "address"
        },
        {
          "indexed": false,
          "internalType": "uint256",
          "name": "tokenId",
          "type": "uint256"
        },
        {
          "indexed": false,
          "internalType": "address",
          "name": "seller",
          "type": "address"
        },
        {
          "indexed": false,
          "internalType": "uint256",
          "name": "price",
          "type": "uint256"
        }
      ],
      "name": "Bought",
      "type": "event"
    },
    {
      "anonymous": false,
      "inputs": [
        {
          "indexed": false,
          "internalType": "address",
          "name": "nftContractAddress",
          "type": "address"
        },
        {
          "indexed": false,
          "internalType": "uint256",
          "name": "tokenId",
          "type": "uint256"
        },
        {
          "indexed": false,
          "internalType": "address",
          "name": "seller",
          "type": "address"
        },
        {
          "indexed": false,
          "internalType": "uint256",
          "name": "price",
          "type": "uint256"
        }
      ],
      "name": "Listed",
      "type": "event"
    },
    {
      "anonymous": false,
      "inputs": [
        {
          "indexed": true,
          "internalType": "address",
          "name": "previousOwner",
          "type": "address"
        },
        {
          "indexed": true,
          "internalType": "address",
          "name": "newOwner",
          "type": "address"
        }
      ],
      "name": "OwnershipTransferred",
      "type": "event"
    },
    {
      "inputs": [
        {
          "internalType": "uint32",
          "name": "originDomainId",
          "type": "uint32"
        },
        {
          "internalType": "address",
          "name": "originZipChainContractAddress",
          "type": "address"
        },
        {
          "internalType": "address",
          "name": "nftContractAddress",
          "type": "address"
        },
        {
          "internalType": "uint256",
          "name": "tokenId",
          "type": "uint256"
        },
        {
          "internalType": "address payable",
          "name": "seller",
          "type": "address"
        },
        {
          "internalType": "uint32",
          "name": "currencyId",
          "type": "uint32"
        }
      ],
      "name": "buy",
      "outputs": [],
      "stateMutability": "payable",
      "type": "function"
    },
    {
      "inputs": [
        {
          "internalType": "uint32",
          "name": "domainId",
          "type": "uint32"
        },
        {
          "internalType": "address",
          "name": "contractAddress",
          "type": "address"
        },
        {
          "internalType": "address",
          "name": "nftContractAddress",
          "type": "address"
        },
        {
          "internalType": "uint256",
          "name": "tokenId",
          "type": "uint256"
        },
        {
          "internalType": "address payable",
          "name": "seller",
          "type": "address"
        },
        {
          "internalType": "uint32",
          "name": "currencyId",
          "type": "uint32"
        },
        {
          "internalType": "uint256",
          "name": "sendPrice",
          "type": "uint256"
        }
      ],
      "name": "buyWithERC20",
      "outputs": [],
      "stateMutability": "nonpayable",
      "type": "function"
    },
    {
      "inputs": [
        {
          "internalType": "address",
          "name": "nftContractAddress",
          "type": "address"
        },
        {
          "internalType": "uint256",
          "name": "tokenId",
          "type": "uint256"
        }
      ],
      "name": "cancelListing",
      "outputs": [],
      "stateMutability": "nonpayable",
      "type": "function"
    },
    {
      "inputs": [
        {
          "internalType": "uint32",
          "name": "",
          "type": "uint32"
        }
      ],
      "name": "currencyIdToChainlinkContract",
      "outputs": [
        {
          "internalType": "address",
          "name": "",
          "type": "address"
        }
      ],
      "stateMutability": "view",
      "type": "function"
    },
    {
      "inputs": [
        {
          "internalType": "uint32",
          "name": "",
          "type": "uint32"
        }
      ],
      "name": "currencyIdToCurrencyContractAddress",
      "outputs": [
        {
          "internalType": "address",
          "name": "",
          "type": "address"
        }
      ],
      "stateMutability": "view",
      "type": "function"
    },
    {
      "inputs": [
        {
          "internalType": "uint32",
          "name": "",
          "type": "uint32"
        }
      ],
      "name": "domainToContractAddress",
      "outputs": [
        {
          "internalType": "bytes32",
          "name": "",
          "type": "bytes32"
        }
      ],
      "stateMutability": "view",
      "type": "function"
    },
    {
      "inputs": [
        {
          "internalType": "uint32",
          "name": "domainId",
          "type": "uint32"
        }
      ],
      "name": "getChainlinkContractAddress",
      "outputs": [
        {
          "internalType": "address",
          "name": "",
          "type": "address"
        }
      ],
      "stateMutability": "view",
      "type": "function"
    },
    {
      "inputs": [
        {
          "internalType": "uint32",
          "name": "domainId",
          "type": "uint32"
        },
        {
          "internalType": "address",
          "name": "nftContractAddress",
          "type": "address"
        },
        {
          "internalType": "uint256",
          "name": "tokenId",
          "type": "uint256"
        }
      ],
      "name": "getListInformation",
      "outputs": [
        {
          "internalType": "address",
          "name": "",
          "type": "address"
        },
        {
          "internalType": "uint256",
          "name": "",
          "type": "uint256"
        },
        {
          "internalType": "uint32",
          "name": "",
          "type": "uint32"
        }
      ],
      "stateMutability": "view",
      "type": "function"
    },
    {
      "inputs": [
        {
          "internalType": "uint32",
          "name": "domainId",
          "type": "uint32"
        }
      ],
      "name": "getResisteredContract",
      "outputs": [
        {
          "internalType": "address",
          "name": "",
          "type": "address"
        }
      ],
      "stateMutability": "view",
      "type": "function"
    },
    {
      "inputs": [
        {
          "internalType": "uint32",
          "name": "_origin",
          "type": "uint32"
        },
        {
          "internalType": "bytes32",
          "name": "_sender",
          "type": "bytes32"
        },
        {
          "internalType": "bytes",
          "name": "_messageBody",
          "type": "bytes"
        }
      ],
      "name": "handle",
      "outputs": [],
      "stateMutability": "nonpayable",
      "type": "function"
    },
    {
      "inputs": [
        {
          "internalType": "address",
          "name": "nftContractAddress",
          "type": "address"
        },
        {
          "internalType": "uint256",
          "name": "tokenId",
          "type": "uint256"
        },
        {
          "internalType": "uint256",
          "name": "price",
          "type": "uint256"
        },
        {
          "internalType": "uint32",
          "name": "currencyId",
          "type": "uint32"
        },
        {
          "internalType": "uint32",
          "name": "destinationDomainId",
          "type": "uint32"
        },
        {
          "internalType": "address",
          "name": "destinationZipChainContractAddress",
          "type": "address"
        }
      ],
      "name": "list",
      "outputs": [],
      "stateMutability": "nonpayable",
      "type": "function"
    },
    {
      "inputs": [
        {
          "internalType": "bytes32",
          "name": "",
          "type": "bytes32"
        }
      ],
      "name": "listedCurrency",
      "outputs": [
        {
          "internalType": "uint32",
          "name": "",
          "type": "uint32"
        }
      ],
      "stateMutability": "view",
      "type": "function"
    },
    {
      "inputs": [
        {
          "internalType": "bytes32",
          "name": "",
          "type": "bytes32"
        }
      ],
      "name": "listedPrice",
      "outputs": [
        {
          "internalType": "uint256",
          "name": "",
          "type": "uint256"
        }
      ],
      "stateMutability": "view",
      "type": "function"
    },
    {
      "inputs": [],
      "name": "outbox",
      "outputs": [
        {
          "internalType": "address",
          "name": "",
          "type": "address"
        }
      ],
      "stateMutability": "view",
      "type": "function"
    },
    {
      "inputs": [],
      "name": "owner",
      "outputs": [
        {
          "internalType": "address",
          "name": "",
          "type": "address"
        }
      ],
      "stateMutability": "view",
      "type": "function"
    },
    {
      "inputs": [
        {
          "internalType": "bytes32",
          "name": "",
          "type": "bytes32"
        }
      ],
      "name": "paidPrice",
      "outputs": [
        {
          "internalType": "uint256",
          "name": "",
          "type": "uint256"
        }
      ],
      "stateMutability": "view",
      "type": "function"
    },
    {
      "inputs": [],
      "name": "pushChannelAddress",
      "outputs": [
        {
          "internalType": "address",
          "name": "",
          "type": "address"
        }
      ],
      "stateMutability": "view",
      "type": "function"
    },
    {
      "inputs": [],
      "name": "pushCommContractAddress",
      "outputs": [
        {
          "internalType": "address",
          "name": "",
          "type": "address"
        }
      ],
      "stateMutability": "view",
      "type": "function"
    },
    {
      "inputs": [],
      "name": "renounceOwnership",
      "outputs": [],
      "stateMutability": "nonpayable",
      "type": "function"
    },
    {
      "inputs": [],
      "name": "selfDomainId",
      "outputs": [
        {
          "internalType": "uint32",
          "name": "",
          "type": "uint32"
        }
      ],
      "stateMutability": "view",
      "type": "function"
    },
    {
      "inputs": [
        {
          "internalType": "bytes32",
          "name": "",
          "type": "bytes32"
        }
      ],
      "name": "sellerAddress",
      "outputs": [
        {
          "internalType": "address",
          "name": "",
          "type": "address"
        }
      ],
      "stateMutability": "view",
      "type": "function"
    },
    {
      "inputs": [
        {
          "internalType": "uint32",
          "name": "currencyId",
          "type": "uint32"
        },
        {
          "internalType": "address",
          "name": "contractAddress",
          "type": "address"
        }
      ],
      "name": "setChainlinkContract",
      "outputs": [],
      "stateMutability": "nonpayable",
      "type": "function"
    },
    {
      "inputs": [
        {
          "internalType": "uint32",
          "name": "domainId",
          "type": "uint32"
        },
        {
          "internalType": "address",
          "name": "contractAddress",
          "type": "address"
        }
      ],
      "name": "setContract",
      "outputs": [],
      "stateMutability": "nonpayable",
      "type": "function"
    },
    {
      "inputs": [
        {
          "internalType": "uint32",
          "name": "currencyId",
          "type": "uint32"
        },
        {
          "internalType": "address",
          "name": "currencyContractAddress",
          "type": "address"
        }
      ],
      "name": "setCurrencyContractAddress",
      "outputs": [],
      "stateMutability": "nonpayable",
      "type": "function"
    },
    {
      "inputs": [
        {
          "internalType": "address",
          "name": "_address",
          "type": "address"
        }
      ],
      "name": "setPushChannelAddress",
      "outputs": [],
      "stateMutability": "nonpayable",
      "type": "function"
    },
    {
      "inputs": [
        {
          "internalType": "address",
          "name": "_contractAddress",
          "type": "address"
        }
      ],
      "name": "setPushCommContractAddress",
      "outputs": [],
      "stateMutability": "nonpayable",
      "type": "function"
    },
    {
      "inputs": [
        {
          "internalType": "uint32",
          "name": "domainId",
          "type": "uint32"
        }
      ],
      "name": "setSelfDomainId",
      "outputs": [],
      "stateMutability": "nonpayable",
      "type": "function"
    },
    {
      "inputs": [
        {
          "internalType": "uint32",
          "name": "domainId",
          "type": "uint32"
        },
        {
          "internalType": "address",
          "name": "nftContractAddress",
          "type": "address"
        },
        {
          "internalType": "uint256",
          "name": "tokenId",
          "type": "uint256"
        },
        {
          "internalType": "address payable",
          "name": "seller",
          "type": "address"
        },
        {
          "internalType": "uint32",
          "name": "currencyId",
          "type": "uint32"
        },
        {
          "internalType": "uint256",
          "name": "msgValue",
          "type": "uint256"
        }
      ],
      "name": "testGetPriceMultiple",
      "outputs": [
        {
          "internalType": "uint256[2]",
          "name": "",
          "type": "uint256[2]"
        }
      ],
      "stateMutability": "view",
      "type": "function"
    },
    {
      "inputs": [
        {
          "internalType": "address",
          "name": "newOwner",
          "type": "address"
        }
      ],
      "name": "transferOwnership",
      "outputs": [],
      "stateMutability": "nonpayable",
      "type": "function"
    }
  ],
  "bytecode": "0x60806040523480156200001157600080fd5b50604051620049b8380380620049b88339818101604052810190620000379190620002bc565b620000576200004b6200014560201b60201c565b6200014d60201b60201c565b83600260006101000a81548173ffffffffffffffffffffffffffffffffffffffff021916908373ffffffffffffffffffffffffffffffffffffffff16021790555082600260146101000a81548163ffffffff021916908363ffffffff16021790555081600360006101000a81548173ffffffffffffffffffffffffffffffffffffffff021916908373ffffffffffffffffffffffffffffffffffffffff16021790555080600460006101000a81548173ffffffffffffffffffffffffffffffffffffffff021916908373ffffffffffffffffffffffffffffffffffffffff160217905550505050506200032e565b600033905090565b60008060009054906101000a900473ffffffffffffffffffffffffffffffffffffffff169050816000806101000a81548173ffffffffffffffffffffffffffffffffffffffff021916908373ffffffffffffffffffffffffffffffffffffffff1602179055508173ffffffffffffffffffffffffffffffffffffffff168173ffffffffffffffffffffffffffffffffffffffff167f8be0079c531659141344cd1fd0a4f28419497f9722a3daafe3b4186f6b6457e060405160405180910390a35050565b600080fd5b600073ffffffffffffffffffffffffffffffffffffffff82169050919050565b6000620002438262000216565b9050919050565b620002558162000236565b81146200026157600080fd5b50565b60008151905062000275816200024a565b92915050565b600063ffffffff82169050919050565b62000296816200027b565b8114620002a257600080fd5b50565b600081519050620002b6816200028b565b92915050565b60008060008060808587031215620002d957620002d862000211565b5b6000620002e98782880162000264565b9450506020620002fc87828801620002a5565b93505060406200030f8782880162000264565b9250506060620003228782880162000264565b91505092959194509250565b61467a806200033e6000396000f3fe6080604052600436106101c25760003560e01c80637c62cb7c116100f7578063b5b57b8911610095578063d707d1c011610064578063d707d1c01461067d578063dbb11b1d146106a6578063e20d27f2146106e3578063f2fde38b1461070c576101c2565b8063b5b57b89146105af578063b9ace35e146105ec578063c1e6ac7114610615578063ce11e6ab14610652576101c2565b80638461b2f0116100d15780638461b2f0146104df5780638da5cb5b1461051e578063a80e1a3d14610549578063b2ddee0614610586576101c2565b80637c62cb7c1461043c5780637f51c0ae14610479578063805898f6146104b6576101c2565b806356d5d475116101645780636383847c1161013e5780636383847c146103a8578063715018a6146103d157806373465185146103e857806378cd336f14610413576101c2565b806356d5d475146103175780635b96635e146103405780635efad6261461037d576101c2565b8063131d9343116101a0578063131d9343146102585780632b79a4bf146102955780632e36a5db146102b15780633f669f30146102ee576101c2565b806308bfc700146101c75780630c34d6981461020457806310ac595c1461022f575b600080fd5b3480156101d357600080fd5b506101ee60048036038101906101e99190612c5d565b610735565b6040516101fb9190612ccb565b60405180910390f35b34801561021057600080fd5b50610219610768565b6040516102269190612d05565b60405180910390f35b34801561023b57600080fd5b5061025660048036038101906102519190612d78565b61077e565b005b34801561026457600080fd5b5061027f600480360381019061027a9190612c5d565b6107e8565b60405161028c9190612dd1565b60405180910390f35b6102af60048036038101906102aa9190612e56565b610800565b005b3480156102bd57600080fd5b506102d860048036038101906102d39190612c5d565b610d05565b6040516102e59190612dd1565b60405180910390f35b3480156102fa57600080fd5b5061031560048036038101906103109190612d78565b610d1d565b005b34801561032357600080fd5b5061033e60048036038101906103399190612f48565b610d87565b005b34801561034c57600080fd5b5061036760048036038101906103629190612fbc565b6117b0565b60405161037491906130f4565b60405180910390f35b34801561038957600080fd5b50610392611a20565b60405161039f9190612ccb565b60405180910390f35b3480156103b457600080fd5b506103cf60048036038101906103ca9190612d78565b611a46565b005b3480156103dd57600080fd5b506103e6611a7e565b005b3480156103f457600080fd5b506103fd611a92565b60405161040a9190612ccb565b60405180910390f35b34801561041f57600080fd5b5061043a6004803603810190610435919061310f565b611ab8565b005b34801561044857600080fd5b50610463600480360381019061045e91906131b1565b61213a565b6040516104709190612ccb565b60405180910390f35b34801561048557600080fd5b506104a0600480360381019061049b91906131b1565b612183565b6040516104ad9190612ccb565b60405180910390f35b3480156104c257600080fd5b506104dd60048036038101906104d891906131b1565b6121b4565b005b3480156104eb57600080fd5b50610506600480360381019061050191906131de565b6121e0565b60405161051593929190613231565b60405180910390f35b34801561052a57600080fd5b506105336122d0565b6040516105409190612ccb565b60405180910390f35b34801561055557600080fd5b50610570600480360381019061056b91906131b1565b6122f9565b60405161057d9190613277565b60405180910390f35b34801561059257600080fd5b506105ad60048036038101906105a89190613292565b612311565b005b3480156105bb57600080fd5b506105d660048036038101906105d19190612c5d565b612469565b6040516105e39190612d05565b60405180910390f35b3480156105f857600080fd5b50610613600480360381019061060e91906132d2565b61248c565b005b34801561062157600080fd5b5061063c600480360381019061063791906131b1565b6124d8565b6040516106499190612ccb565b60405180910390f35b34801561065e57600080fd5b5061066761250b565b6040516106749190612ccb565b60405180910390f35b34801561068957600080fd5b506106a4600480360381019061069f91906132d2565b612531565b005b3480156106b257600080fd5b506106cd60048036038101906106c891906131b1565b61257d565b6040516106da9190612ccb565b60405180910390f35b3480156106ef57600080fd5b5061070a600480360381019061070591906132ff565b6125b0565b005b34801561071857600080fd5b50610733600480360381019061072e91906132d2565b6127c8565b005b60056020528060005260406000206000915054906101000a900473ffffffffffffffffffffffffffffffffffffffff1681565b600260149054906101000a900463ffffffff1681565b61078661284c565b80600b60008463ffffffff1663ffffffff16815260200190815260200160002060006101000a81548173ffffffffffffffffffffffffffffffffffffffff021916908373ffffffffffffffffffffffffffffffffffffffff1602179055505050565b60086020528060005260406000206000915090505481565b600073ffffffffffffffffffffffffffffffffffffffff16600a60008363ffffffff1663ffffffff16815260200190815260200160002060009054906101000a900473ffffffffffffffffffffffffffffffffffffffff1673ffffffffffffffffffffffffffffffffffffffff1614156108af576040517f08c379a00000000000000000000000000000000000000000000000000000000081526004016108a6906133e9565b60405180910390fd5b6000868585856040516020016108c894939291906134d1565b6040516020818303038152906040528051906020012090506000600660008381526020019081526020016000205414158061092d575060006007600083815260200190815260200160002060009054906101000a900463ffffffff1663ffffffff1614155b61093657600080fd5b6007600082815260200190815260200160002060009054906101000a900463ffffffff1663ffffffff168263ffffffff161415610a3057346006600083815260200190815260200160002054111561098d57600080fd5b6000878686336040516020016109a6949392919061351f565b604051602081830303815290604052805190602001209050346008600083815260200190815260200160002081905550610a1e88888888333489600260149054906101000a900463ffffffff1630604051602001610a0a97969594939291906135b0565b6040516020818303038152906040526128ca565b610a2a88878787612989565b50610cac565b6000600a60008463ffffffff1663ffffffff16815260200190815260200160002060009054906101000a900473ffffffffffffffffffffffffffffffffffffffff1690506000600a60006007600086815260200190815260200160002060009054906101000a900463ffffffff1663ffffffff1663ffffffff16815260200190815260200160002060009054906101000a900473ffffffffffffffffffffffffffffffffffffffff16905060008273ffffffffffffffffffffffffffffffffffffffff1663feaf968c6040518163ffffffff1660e01b815260040160a06040518083038186803b158015610b2357600080fd5b505afa158015610b37573d6000803e3d6000fd5b505050506040513d601f19601f82011682018060405250810190610b5b91906136c0565b50505091505060008273ffffffffffffffffffffffffffffffffffffffff1663feaf968c6040518163ffffffff1660e01b815260040160a06040518083038186803b158015610ba957600080fd5b505afa158015610bbd573d6000803e3d6000fd5b505050506040513d601f19601f82011682018060405250810190610be191906136c0565b5050509150503482610bf3919061376a565b600660008781526020019081526020016000205482610c12919061376a565b1115610c53576040517f08c379a0000000000000000000000000000000000000000000000000000000008152600401610c4a90613836565b60405180910390fd5b610c9b8b8b8b8b33348c600260149054906101000a900463ffffffff1630604051602001610c8797969594939291906135b0565b6040516020818303038152906040526128ca565b610ca78b8a8a8a612989565b505050505b7fbe39bcb4b5645ce3e99dc49d095db856201db6af874a4d39b96cd1ed4a06a11d8585856006600086815260200190815260200160002054604051610cf494939291906138b5565b60405180910390a150505050505050565b60066020528060005260406000206000915090505481565b610d2561284c565b80600a60008463ffffffff1663ffffffff16815260200190815260200160002060006101000a81548173ffffffffffffffffffffffffffffffffffffffff021916908373ffffffffffffffffffffffffffffffffffffffff1602179055505050565b8383600080600960008563ffffffff1663ffffffff16815260200190815260200160002054905080831415610dbb57600191505b6000806000806000806000808d8d810190610dd69190613a3b565b97509750975097509750975097509750600082888888604051602001610dff9493929190613b0d565b604051602081830303815290604052805190602001209050600060056000600260149054906101000a900463ffffffff168b8b604051602001610e4493929190613b5b565b60405160208183030381529060405280519060200120815260200190815260200160002060009054906101000a900473ffffffffffffffffffffffffffffffffffffffff1690506000600260149054906101000a900463ffffffff168a8a84604051602001610eb69493929190613b0d565b6040516020818303038152906040528051906020012090506000858b8b604051602001610ee593929190613b5b565b604051602081830303815290604052805190602001209050610f3c8c6040518060400160405280600781526020017f4c697374696e6700000000000000000000000000000000000000000000000000815250612a9c565b15610fe257886005600083815260200190815260200160002060006101000a81548173ffffffffffffffffffffffffffffffffffffffff021916908373ffffffffffffffffffffffffffffffffffffffff160217905550876006600086815260200190815260200160002081905550866007600086815260200190815260200160002060006101000a81548163ffffffff021916908363ffffffff160217905550611799565b6110218c6040518060400160405280600781526020017f54726164696e6700000000000000000000000000000000000000000000000000815250612a9c565b1561154b57600060066000848152602001908152602001600020541480611071575060006007600084815260200190815260200160002060009054906101000a900463ffffffff1663ffffffff16145b15611241576110ac86868d8d8d8d8d8d8d6040516020016110989796959493929190613be4565b6040516020818303038152906040526128ca565b600073ffffffffffffffffffffffffffffffffffffffff16600360009054906101000a900473ffffffffffffffffffffffffffffffffffffffff1673ffffffffffffffffffffffffffffffffffffffff161415801561115a5750600073ffffffffffffffffffffffffffffffffffffffff16600460009054906101000a900473ffffffffffffffffffffffffffffffffffffffff1673ffffffffffffffffffffffffffffffffffffffff1614155b1561123057600360009054906101000a900473ffffffffffffffffffffffffffffffffffffffff1673ffffffffffffffffffffffffffffffffffffffff1663ba3d69d7600460009054906101000a900473ffffffffffffffffffffffffffffffffffffffff168b6040516020016111d090613dee565b6040516020818303038152906040526040518463ffffffff1660e01b81526004016111fd93929190613ecd565b600060405180830381600087803b15801561121757600080fd5b505af115801561122b573d6000803e3d6000fd5b505050505b5050505050505050505050506117a6565b8a73ffffffffffffffffffffffffffffffffffffffff166323b872dd308b8d6040518463ffffffff1660e01b815260040161127e93929190613f0b565b600060405180830381600087803b15801561129857600080fd5b505af11580156112ac573d6000803e3d6000fd5b505050506112e686868d8d8d8d8d8d8d6040516020016112d29796959493929190613f8e565b6040516020818303038152906040526128ca565b600073ffffffffffffffffffffffffffffffffffffffff16600360009054906101000a900473ffffffffffffffffffffffffffffffffffffffff1673ffffffffffffffffffffffffffffffffffffffff16141580156113945750600073ffffffffffffffffffffffffffffffffffffffff16600460009054906101000a900473ffffffffffffffffffffffffffffffffffffffff1673ffffffffffffffffffffffffffffffffffffffff1614155b1561153a57600360009054906101000a900473ffffffffffffffffffffffffffffffffffffffff1673ffffffffffffffffffffffffffffffffffffffff1663ba3d69d7600460009054906101000a900473ffffffffffffffffffffffffffffffffffffffff168b60405160200161140a906140cf565b6040516020818303038152906040526040518463ffffffff1660e01b815260040161143793929190613ecd565b600060405180830381600087803b15801561145157600080fd5b505af1158015611465573d6000803e3d6000fd5b50505050600360009054906101000a900473ffffffffffffffffffffffffffffffffffffffff1673ffffffffffffffffffffffffffffffffffffffff1663ba3d69d7600460009054906101000a900473ffffffffffffffffffffffffffffffffffffffff16856040516020016114da906141be565b6040516020818303038152906040526040518463ffffffff1660e01b815260040161150793929190613ecd565b600060405180830381600087803b15801561152157600080fd5b505af1158015611535573d6000803e3d6000fd5b505050505b611546868c8c86612989565b611798565b61158a8c6040518060400160405280600781526020017f436f6e6669726d00000000000000000000000000000000000000000000000000815250612a9c565b156116b95760056000600260149054906101000a900463ffffffff168d8d6040516020016115ba93929190613b5b565b60405160208183030381529060405280519060200120815260200190815260200160002060009054906101000a900473ffffffffffffffffffffffffffffffffffffffff1673ffffffffffffffffffffffffffffffffffffffff166108fc60086000600260149054906101000a900463ffffffff168f8f8f6040516020016116459493929190613b0d565b604051602081830303815290604052805190602001208152602001908152602001600020549081150290604051600060405180830381858888f19350505050158015611695573d6000803e3d6000fd5b506116b4600260149054906101000a900463ffffffff168c8c8c612989565b611797565b6116f88c6040518060400160405280600881526020017f5265766572746564000000000000000000000000000000000000000000000000815250612a9c565b15611796578873ffffffffffffffffffffffffffffffffffffffff166108fc60086000600260149054906101000a900463ffffffff168f8f8f6040516020016117449493929190613b0d565b604051602081830303815290604052805190602001208152602001908152602001600020549081150290604051600060405180830381858888f19350505050158015611794573d6000803e3d6000fd5b505b5b5b5b5050505050505050505050505b5050505050505050565b6117b8612bf1565b6117c0612bf1565b6000888888886040516020016117d994939291906134d1565b6040516020818303038152906040528051906020012090506000600a60008763ffffffff1663ffffffff16815260200190815260200160002060009054906101000a900473ffffffffffffffffffffffffffffffffffffffff1690506000600a60006007600086815260200190815260200160002060009054906101000a900463ffffffff1663ffffffff1663ffffffff16815260200190815260200160002060009054906101000a900473ffffffffffffffffffffffffffffffffffffffff16905060008273ffffffffffffffffffffffffffffffffffffffff1663feaf968c6040518163ffffffff1660e01b815260040160a06040518083038186803b1580156118e457600080fd5b505afa1580156118f8573d6000803e3d6000fd5b505050506040513d601f19601f8201168201806040525081019061191c91906136c0565b50505091505060008273ffffffffffffffffffffffffffffffffffffffff1663feaf968c6040518163ffffffff1660e01b815260040160a06040518083038186803b15801561196a57600080fd5b505afa15801561197e573d6000803e3d6000fd5b505050506040513d601f19601f820116820180604052508101906119a291906136c0565b5050509150506006600086815260200190815260200160002054816119c7919061376a565b866000600281106119db576119da614215565b5b60200201818152505087826119f0919061376a565b86600160028110611a0457611a03614215565b5b6020020181815250508596505050505050509695505050505050565b600460009054906101000a900473ffffffffffffffffffffffffffffffffffffffff1681565b611a4e61284c565b611a5781612af5565b600960008463ffffffff1663ffffffff168152602001908152602001600020819055505050565b611a8661284c565b611a906000612b18565b565b600360009054906101000a900473ffffffffffffffffffffffffffffffffffffffff1681565b600073ffffffffffffffffffffffffffffffffffffffff16600a60008463ffffffff1663ffffffff16815260200190815260200160002060009054906101000a900473ffffffffffffffffffffffffffffffffffffffff1673ffffffffffffffffffffffffffffffffffffffff161415611b67576040517f08c379a0000000000000000000000000000000000000000000000000000000008152600401611b5e906133e9565b60405180910390fd5b600087868686604051602001611b8094939291906134d1565b60405160208183030381529060405280519060200120905060006006600083815260200190815260200160002054141580611be5575060006007600083815260200190815260200160002060009054906101000a900463ffffffff1663ffffffff1614155b611bee57600080fd5b6007600082815260200190815260200160002060009054906101000a900463ffffffff1663ffffffff168363ffffffff161415611d81578160066000838152602001908152602001600020541115611c4557600080fd5b600b60008463ffffffff1663ffffffff16815260200190815260200160002060009054906101000a900473ffffffffffffffffffffffffffffffffffffffff1673ffffffffffffffffffffffffffffffffffffffff166323b872dd333060066000868152602001908152602001600020546040518463ffffffff1660e01b8152600401611cd493929190613f0b565b602060405180830381600087803b158015611cee57600080fd5b505af1158015611d02573d6000803e3d6000fd5b505050506040513d601f19601f82011682018060405250810190611d26919061427c565b50611d708888888833600080600260149054906101000a900463ffffffff1630604051602001611d5c97969594939291906142f1565b6040516020818303038152906040526128ca565b611d7c88878787612989565b6120e0565b6000600a60008563ffffffff1663ffffffff16815260200190815260200160002060009054906101000a900473ffffffffffffffffffffffffffffffffffffffff1690506000600a60006007600086815260200190815260200160002060009054906101000a900463ffffffff1663ffffffff1663ffffffff16815260200190815260200160002060009054906101000a900473ffffffffffffffffffffffffffffffffffffffff16905060008273ffffffffffffffffffffffffffffffffffffffff1663feaf968c6040518163ffffffff1660e01b815260040160a06040518083038186803b158015611e7457600080fd5b505afa158015611e88573d6000803e3d6000fd5b505050506040513d601f19601f82011682018060405250810190611eac91906136c0565b50505091505060008273ffffffffffffffffffffffffffffffffffffffff1663feaf968c6040518163ffffffff1660e01b815260040160a06040518083038186803b158015611efa57600080fd5b505afa158015611f0e573d6000803e3d6000fd5b505050506040513d601f19601f82011682018060405250810190611f3291906136c0565b5050509150508582611f44919061376a565b600660008781526020019081526020016000205482611f63919061376a565b1115611fa4576040517f08c379a0000000000000000000000000000000000000000000000000000000008152600401611f9b90613836565b60405180910390fd5b600b60008863ffffffff1663ffffffff16815260200190815260200160002060009054906101000a900473ffffffffffffffffffffffffffffffffffffffff1673ffffffffffffffffffffffffffffffffffffffff166323b872dd3330600660008a8152602001908152602001600020546040518463ffffffff1660e01b815260040161203393929190613f0b565b602060405180830381600087803b15801561204d57600080fd5b505af1158015612061573d6000803e3d6000fd5b505050506040513d601f19601f82011682018060405250810190612085919061427c565b506120cf8c8c8c8c33600080600260149054906101000a900463ffffffff16306040516020016120bb97969594939291906142f1565b6040516020818303038152906040526128ca565b6120db8c8b8b8b612989565b505050505b7fbe39bcb4b5645ce3e99dc49d095db856201db6af874a4d39b96cd1ed4a06a11d868686600660008681526020019081526020016000205460405161212894939291906138b5565b60405180910390a15050505050505050565b6000600a60008363ffffffff1663ffffffff16815260200190815260200160002060009054906101000a900473ffffffffffffffffffffffffffffffffffffffff169050919050565b60006121ad600960008463ffffffff1663ffffffff16815260200190815260200160002054612bdc565b9050919050565b6121bc61284c565b80600260146101000a81548163ffffffff021916908363ffffffff16021790555050565b6000806000808686866040516020016121fb93929190613b5b565b60405160208183030381529060405280519060200120905060006005600083815260200190815260200160002060009054906101000a900473ffffffffffffffffffffffffffffffffffffffff169050878787836040516020016122629493929190613b0d565b60405160208183030381529060405280519060200120915060006006600084815260200190815260200160002054905060006007600085815260200190815260200160002060009054906101000a900463ffffffff1690508282829650965096505050505093509350939050565b60008060009054906101000a900473ffffffffffffffffffffffffffffffffffffffff16905090565b60096020528060005260406000206000915090505481565b6000600260149054906101000a900463ffffffff16838360405160200161233a93929190613b5b565b6040516020818303038152906040528051906020012090506005600082815260200190815260200160002060009054906101000a900473ffffffffffffffffffffffffffffffffffffffff1673ffffffffffffffffffffffffffffffffffffffff163373ffffffffffffffffffffffffffffffffffffffff16146123bd57600080fd5b8273ffffffffffffffffffffffffffffffffffffffff166323b872dd3033856040518463ffffffff1660e01b81526004016123fa93929190613f0b565b600060405180830381600087803b15801561241457600080fd5b505af1158015612428573d6000803e3d6000fd5b50505050600073ffffffffffffffffffffffffffffffffffffffff166005600083815260200190815260200160002060009054906101000a90505050505050565b60076020528060005260406000206000915054906101000a900463ffffffff1681565b61249461284c565b80600360006101000a81548173ffffffffffffffffffffffffffffffffffffffff021916908373ffffffffffffffffffffffffffffffffffffffff16021790555050565b600a6020528060005260406000206000915054906101000a900473ffffffffffffffffffffffffffffffffffffffff1681565b600260009054906101000a900473ffffffffffffffffffffffffffffffffffffffff1681565b61253961284c565b80600460006101000a81548173ffffffffffffffffffffffffffffffffffffffff021916908373ffffffffffffffffffffffffffffffffffffffff16021790555050565b600b6020528060005260406000206000915054906101000a900473ffffffffffffffffffffffffffffffffffffffff1681565b8573ffffffffffffffffffffffffffffffffffffffff166323b872dd3330886040518463ffffffff1660e01b81526004016125ed93929190613f0b565b600060405180830381600087803b15801561260757600080fd5b505af115801561261b573d6000803e3d6000fd5b505050503360056000600260149054906101000a900463ffffffff16898960405160200161264b93929190613b5b565b60405160208183030381529060405280519060200120815260200190815260200160002060006101000a81548173ffffffffffffffffffffffffffffffffffffffff021916908373ffffffffffffffffffffffffffffffffffffffff1602179055506126f582828888338989600260149054906101000a900463ffffffff16306040516020016126e197969594939291906143c0565b6040516020818303038152906040526128ca565b6000600260149054906101000a900463ffffffff168787336040516020016127209493929190613b0d565b604051602081830303815290604052805190602001209050846006600083815260200190815260200160002081905550836007600083815260200190815260200160002060006101000a81548163ffffffff021916908363ffffffff1602179055507f8b06cda60618abf2b2d07227f9dd63ec6349ca3269ce0eb18d49122a48362ad8878733886040516127b79493929190614443565b60405180910390a150505050505050565b6127d061284c565b600073ffffffffffffffffffffffffffffffffffffffff168173ffffffffffffffffffffffffffffffffffffffff161415612840576040517f08c379a0000000000000000000000000000000000000000000000000000000008152600401612837906144fa565b60405180910390fd5b61284981612b18565b50565b612854612be9565b73ffffffffffffffffffffffffffffffffffffffff166128726122d0565b73ffffffffffffffffffffffffffffffffffffffff16146128c8576040517f08c379a00000000000000000000000000000000000000000000000000000000081526004016128bf90614566565b60405180910390fd5b565b600260009054906101000a900473ffffffffffffffffffffffffffffffffffffffff1673ffffffffffffffffffffffffffffffffffffffff1663fa31de018461291285612af5565b846040518463ffffffff1660e01b815260040161293193929190614586565b602060405180830381600087803b15801561294b57600080fd5b505af115801561295f573d6000803e3d6000fd5b505050506040513d601f19601f8201168201806040525081019061298391906145c4565b50505050565b600060056000600260149054906101000a900463ffffffff1686866040516020016129b693929190613b5b565b60405160208183030381529060405280519060200120815260200190815260200160002060006101000a81548173ffffffffffffffffffffffffffffffffffffffff021916908373ffffffffffffffffffffffffffffffffffffffff160217905550600084848484604051602001612a319493929190613b0d565b60405160208183030381529060405280519060200120905060006007600083815260200190815260200160002060006101000a81548163ffffffff021916908363ffffffff160217905550600060066000838152602001908152602001600020819055505050505050565b600081604051602001612aaf919061462d565b6040516020818303038152906040528051906020012083604051602001612ad6919061462d565b6040516020818303038152906040528051906020012014905092915050565b60008173ffffffffffffffffffffffffffffffffffffffff1660001b9050919050565b60008060009054906101000a900473ffffffffffffffffffffffffffffffffffffffff169050816000806101000a81548173ffffffffffffffffffffffffffffffffffffffff021916908373ffffffffffffffffffffffffffffffffffffffff1602179055508173ffffffffffffffffffffffffffffffffffffffff168173ffffffffffffffffffffffffffffffffffffffff167f8be0079c531659141344cd1fd0a4f28419497f9722a3daafe3b4186f6b6457e060405160405180910390a35050565b60008160001c9050919050565b600033905090565b6040518060400160405280600290602082028036833780820191505090505090565b6000604051905090565b600080fd5b600080fd5b6000819050919050565b612c3a81612c27565b8114612c4557600080fd5b50565b600081359050612c5781612c31565b92915050565b600060208284031215612c7357612c72612c1d565b5b6000612c8184828501612c48565b91505092915050565b600073ffffffffffffffffffffffffffffffffffffffff82169050919050565b6000612cb582612c8a565b9050919050565b612cc581612caa565b82525050565b6000602082019050612ce06000830184612cbc565b92915050565b600063ffffffff82169050919050565b612cff81612ce6565b82525050565b6000602082019050612d1a6000830184612cf6565b92915050565b612d2981612ce6565b8114612d3457600080fd5b50565b600081359050612d4681612d20565b92915050565b612d5581612caa565b8114612d6057600080fd5b50565b600081359050612d7281612d4c565b92915050565b60008060408385031215612d8f57612d8e612c1d565b5b6000612d9d85828601612d37565b9250506020612dae85828601612d63565b9150509250929050565b6000819050919050565b612dcb81612db8565b82525050565b6000602082019050612de66000830184612dc2565b92915050565b612df581612db8565b8114612e0057600080fd5b50565b600081359050612e1281612dec565b92915050565b6000612e2382612c8a565b9050919050565b612e3381612e18565b8114612e3e57600080fd5b50565b600081359050612e5081612e2a565b92915050565b60008060008060008060c08789031215612e7357612e72612c1d565b5b6000612e8189828a01612d37565b9650506020612e9289828a01612d63565b9550506040612ea389828a01612d63565b9450506060612eb489828a01612e03565b9350506080612ec589828a01612e41565b92505060a0612ed689828a01612d37565b9150509295509295509295565b600080fd5b600080fd5b600080fd5b60008083601f840112612f0857612f07612ee3565b5b8235905067ffffffffffffffff811115612f2557612f24612ee8565b5b602083019150836001820283011115612f4157612f40612eed565b5b9250929050565b60008060008060608587031215612f6257612f61612c1d565b5b6000612f7087828801612d37565b9450506020612f8187828801612c48565b935050604085013567ffffffffffffffff811115612fa257612fa1612c22565b5b612fae87828801612ef2565b925092505092959194509250565b60008060008060008060c08789031215612fd957612fd8612c1d565b5b6000612fe789828a01612d37565b9650506020612ff889828a01612d63565b955050604061300989828a01612e03565b945050606061301a89828a01612e41565b935050608061302b89828a01612d37565b92505060a061303c89828a01612e03565b9150509295509295509295565b600060029050919050565b600081905092915050565b6000819050919050565b61307281612db8565b82525050565b60006130848383613069565b60208301905092915050565b6000602082019050919050565b6130a681613049565b6130b08184613054565b92506130bb8261305f565b8060005b838110156130ec5781516130d38782613078565b96506130de83613090565b9250506001810190506130bf565b505050505050565b6000604082019050613109600083018461309d565b92915050565b600080600080600080600060e0888a03121561312e5761312d612c1d565b5b600061313c8a828b01612d37565b975050602061314d8a828b01612d63565b965050604061315e8a828b01612d63565b955050606061316f8a828b01612e03565b94505060806131808a828b01612e41565b93505060a06131918a828b01612d37565b92505060c06131a28a828b01612e03565b91505092959891949750929550565b6000602082840312156131c7576131c6612c1d565b5b60006131d584828501612d37565b91505092915050565b6000806000606084860312156131f7576131f6612c1d565b5b600061320586828701612d37565b935050602061321686828701612d63565b925050604061322786828701612e03565b9150509250925092565b60006060820190506132466000830186612cbc565b6132536020830185612dc2565b6132606040830184612cf6565b949350505050565b61327181612c27565b82525050565b600060208201905061328c6000830184613268565b92915050565b600080604083850312156132a9576132a8612c1d565b5b60006132b785828601612d63565b92505060206132c885828601612e03565b9150509250929050565b6000602082840312156132e8576132e7612c1d565b5b60006132f684828501612d63565b91505092915050565b60008060008060008060c0878903121561331c5761331b612c1d565b5b600061332a89828a01612d63565b965050602061333b89828a01612e03565b955050604061334c89828a01612e03565b945050606061335d89828a01612d37565b935050608061336e89828a01612d37565b92505060a061337f89828a01612d63565b9150509295509295509295565b600082825260208201905092915050565b7f546869732063757272656e63792069736e277420737570706f72746564000000600082015250565b60006133d3601d8361338c565b91506133de8261339d565b602082019050919050565b60006020820190508181036000830152613402816133c6565b9050919050565b60008160e01b9050919050565b600061342182613409565b9050919050565b61343961343482612ce6565b613416565b82525050565b60008160601b9050919050565b60006134578261343f565b9050919050565b60006134698261344c565b9050919050565b61348161347c82612caa565b61345e565b82525050565b6000819050919050565b6134a261349d82612db8565b613487565b82525050565b60006134b38261344c565b9050919050565b6134cb6134c682612e18565b6134a8565b82525050565b60006134dd8287613428565b6004820191506134ed8286613470565b6014820191506134fd8285613491565b60208201915061350d82846134ba565b60148201915081905095945050505050565b60006080820190506135346000830187612cf6565b6135416020830186612cbc565b61354e6040830185612dc2565b61355b6060830184612cbc565b95945050505050565b7f54726164696e6700000000000000000000000000000000000000000000000000600082015250565b600061359a60078361338c565b91506135a582613564565b602082019050919050565b60006101008201905081810360008301526135ca8161358d565b90506135d9602083018a612cbc565b6135e66040830189612dc2565b6135f36060830188612cbc565b6136006080830187612dc2565b61360d60a0830186612cf6565b61361a60c0830185612cf6565b61362760e0830184612cbc565b98975050505050505050565b600069ffffffffffffffffffff82169050919050565b61365281613633565b811461365d57600080fd5b50565b60008151905061366f81613649565b92915050565b6000819050919050565b61368881613675565b811461369357600080fd5b50565b6000815190506136a58161367f565b92915050565b6000815190506136ba81612dec565b92915050565b600080600080600060a086880312156136dc576136db612c1d565b5b60006136ea88828901613660565b95505060206136fb88828901613696565b945050604061370c888289016136ab565b935050606061371d888289016136ab565b925050608061372e88828901613660565b9150509295509295909350565b7f4e487b7100000000000000000000000000000000000000000000000000000000600052601160045260246000fd5b600061377582612db8565b915061378083612db8565b9250817fffffffffffffffffffffffffffffffffffffffffffffffffffffffffffffffff04831182151516156137b9576137b861373b565b5b828202905092915050565b7f4d61726b65742e736f6c3a206c6973746564507269636520616e642053656e6460008201527f696e67507269636520617265206e6f74206d6174636865640000000000000000602082015250565b600061382060388361338c565b915061382b826137c4565b604082019050919050565b6000602082019050818103600083015261384f81613813565b9050919050565b6000819050919050565b600061387b61387661387184612c8a565b613856565b612c8a565b9050919050565b600061388d82613860565b9050919050565b600061389f82613882565b9050919050565b6138af81613894565b82525050565b60006080820190506138ca6000830187612cbc565b6138d76020830186612dc2565b6138e460408301856138a6565b6138f16060830184612dc2565b95945050505050565b600080fd5b6000601f19601f8301169050919050565b7f4e487b7100000000000000000000000000000000000000000000000000000000600052604160045260246000fd5b613948826138ff565b810181811067ffffffffffffffff8211171561396757613966613910565b5b80604052505050565b600061397a612c13565b9050613986828261393f565b919050565b600067ffffffffffffffff8211156139a6576139a5613910565b5b6139af826138ff565b9050602081019050919050565b82818337600083830152505050565b60006139de6139d98461398b565b613970565b9050828152602081018484840111156139fa576139f96138fa565b5b613a058482856139bc565b509392505050565b600082601f830112613a2257613a21612ee3565b5b8135613a328482602086016139cb565b91505092915050565b600080600080600080600080610100898b031215613a5c57613a5b612c1d565b5b600089013567ffffffffffffffff811115613a7a57613a79612c22565b5b613a868b828c01613a0d565b9850506020613a978b828c01612e41565b9750506040613aa88b828c01612e03565b9650506060613ab98b828c01612e41565b9550506080613aca8b828c01612e03565b94505060a0613adb8b828c01612d37565b93505060c0613aec8b828c01612d37565b92505060e0613afd8b828c01612e41565b9150509295985092959890939650565b6000613b198287613428565b600482019150613b298286613470565b601482019150613b398285613491565b602082019150613b498284613470565b60148201915081905095945050505050565b6000613b678286613428565b600482019150613b778285613470565b601482019150613b878284613491565b602082019150819050949350505050565b7f5265766572746564000000000000000000000000000000000000000000000000600082015250565b6000613bce60088361338c565b9150613bd982613b98565b602082019050919050565b6000610100820190508181036000830152613bfe81613bc1565b9050613c0d602083018a612cbc565b613c1a6040830189612dc2565b613c276060830188612cbc565b613c346080830187612dc2565b613c4160a0830186612cf6565b613c4e60c0830185612cf6565b613c5b60e0830184612cbc565b98975050505050505050565b600081905092915050565b7f3000000000000000000000000000000000000000000000000000000000000000600082015250565b6000613ca8600183613c67565b9150613cb382613c72565b600182019050919050565b7f2b00000000000000000000000000000000000000000000000000000000000000600082015250565b6000613cf4600183613c67565b9150613cff82613cbe565b600182019050919050565b7f3300000000000000000000000000000000000000000000000000000000000000600082015250565b6000613d40600183613c67565b9150613d4b82613d0a565b600182019050919050565b7f4661696c65640000000000000000000000000000000000000000000000000000600082015250565b6000613d8c600683613c67565b9150613d9782613d56565b600682019050919050565b7f596f752068617665206661696c656420746f207075726368617365204e465400600082015250565b6000613dd8601f83613c67565b9150613de382613da2565b601f82019050919050565b6000613df982613c9b565b9150613e0482613ce7565b9150613e0f82613d33565b9150613e1a82613ce7565b9150613e2582613d7f565b9150613e3082613ce7565b9150613e3b82613dcb565b9150819050919050565b600081519050919050565b600082825260208201905092915050565b60005b83811015613e7f578082015181840152602081019050613e64565b83811115613e8e576000848401525b50505050565b6000613e9f82613e45565b613ea98185613e50565b9350613eb9818560208601613e61565b613ec2816138ff565b840191505092915050565b6000606082019050613ee26000830186612cbc565b613eef6020830185612cbc565b8181036040830152613f018184613e94565b9050949350505050565b6000606082019050613f206000830186612cbc565b613f2d6020830185612cbc565b613f3a6040830184612dc2565b949350505050565b7f436f6e6669726d64000000000000000000000000000000000000000000000000600082015250565b6000613f7860088361338c565b9150613f8382613f42565b602082019050919050565b6000610100820190508181036000830152613fa881613f6b565b9050613fb7602083018a612cbc565b613fc46040830189612dc2565b613fd16060830188612cbc565b613fde6080830187612dc2565b613feb60a0830186612cf6565b613ff860c0830185612cf6565b61400560e0830184612cbc565b98975050505050505050565b7f5375636365737300000000000000000000000000000000000000000000000000600082015250565b6000614047600783613c67565b915061405282614011565b600782019050919050565b7f596f752068617665207375636365737366756c6c79207075726368617365642060008201527f4e46542021000000000000000000000000000000000000000000000000000000602082015250565b60006140b9602583613c67565b91506140c48261405d565b602582019050919050565b60006140da82613c9b565b91506140e582613ce7565b91506140f082613d33565b91506140fb82613ce7565b91506141068261403a565b915061411182613ce7565b915061411c826140ac565b9150819050919050565b7f536f6c6400000000000000000000000000000000000000000000000000000000600082015250565b600061415c600483613c67565b915061416782614126565b600482019050919050565b7f596f7572206c6973746564204e46542077617320736f6c640000000000000000600082015250565b60006141a8601883613c67565b91506141b382614172565b601882019050919050565b60006141c982613c9b565b91506141d482613ce7565b91506141df82613d33565b91506141ea82613ce7565b91506141f58261414f565b915061420082613ce7565b915061420b8261419b565b9150819050919050565b7f4e487b7100000000000000000000000000000000000000000000000000000000600052603260045260246000fd5b60008115159050919050565b61425981614244565b811461426457600080fd5b50565b60008151905061427681614250565b92915050565b60006020828403121561429257614291612c1d565b5b60006142a084828501614267565b91505092915050565b6000819050919050565b600060ff82169050919050565b60006142db6142d66142d1846142a9565b613856565b6142b3565b9050919050565b6142eb816142c0565b82525050565b600061010082019050818103600083015261430b8161358d565b905061431a602083018a612cbc565b6143276040830189612dc2565b6143346060830188612cbc565b61434160808301876142e2565b61434e60a08301866142e2565b61435b60c0830185612cf6565b61436860e0830184612cbc565b98975050505050505050565b7f4c697374696e6700000000000000000000000000000000000000000000000000600082015250565b60006143aa60078361338c565b91506143b582614374565b602082019050919050565b60006101008201905081810360008301526143da8161439d565b90506143e9602083018a612cbc565b6143f66040830189612dc2565b6144036060830188612cbc565b6144106080830187612dc2565b61441d60a0830186612cf6565b61442a60c0830185612cf6565b61443760e0830184612cbc565b98975050505050505050565b60006080820190506144586000830187612cbc565b6144656020830186612dc2565b6144726040830185612cbc565b61447f6060830184612dc2565b95945050505050565b7f4f776e61626c653a206e6577206f776e657220697320746865207a65726f206160008201527f6464726573730000000000000000000000000000000000000000000000000000602082015250565b60006144e460268361338c565b91506144ef82614488565b604082019050919050565b60006020820190508181036000830152614513816144d7565b9050919050565b7f4f776e61626c653a2063616c6c6572206973206e6f7420746865206f776e6572600082015250565b600061455060208361338c565b915061455b8261451a565b602082019050919050565b6000602082019050818103600083015261457f81614543565b9050919050565b600060608201905061459b6000830186612cf6565b6145a86020830185613268565b81810360408301526145ba8184613e94565b9050949350505050565b6000602082840312156145da576145d9612c1d565b5b60006145e8848285016136ab565b91505092915050565b600081519050919050565b6000614607826145f1565b6146118185613c67565b9350614621818560208601613e61565b80840191505092915050565b600061463982846145fc565b91508190509291505056fea26469706673582212207dbac10338ab07e62ff7bb8a302aa42b008b09d8b331886be6498fd239cf1bdd64736f6c63430008090033",
  "linkReferences": {},
  "deployedLinkReferences": {}
}