{"contracts/Market.sol":{"Market":{"abi":[{"inputs":[{"internalType":"address","name":"_outbox","type":"address"},{"internalType":"uint32","name":"_selfDomainid","type":"uint32"}],"stateMutability":"nonpayable","type":"constructor"},{"anonymous":false,"inputs":[{"indexed":false,"internalType":"address","name":"nftContractAddress","type":"address"},{"indexed":false,"internalType":"uint256","name":"tokenId","type":"uint256"},{"indexed":false,"internalType":"address","name":"seller","type":"address"},{"indexed":false,"internalType":"uint256","name":"price","type":"uint256"}],"name":"Bought","type":"event"},{"anonymous":false,"inputs":[{"indexed":false,"internalType":"address","name":"nftContractAddress","type":"address"},{"indexed":false,"internalType":"uint256","name":"tokenId","type":"uint256"},{"indexed":false,"internalType":"address","name":"seller","type":"address"},{"indexed":false,"internalType":"uint256","name":"price","type":"uint256"}],"name":"Listed","type":"event"},{"anonymous":false,"inputs":[{"indexed":true,"internalType":"address","name":"previousOwner","type":"address"},{"indexed":true,"internalType":"address","name":"newOwner","type":"address"}],"name":"OwnershipTransferred","type":"event"},{"inputs":[{"internalType":"uint32","name":"domainId","type":"uint32"},{"internalType":"address","name":"contractAddress","type":"address"},{"internalType":"address","name":"nftContractAddress","type":"address"},{"internalType":"uint256","name":"tokenId","type":"uint256"},{"internalType":"address payable","name":"seller","type":"address"},{"internalType":"uint32","name":"currencyId","type":"uint32"}],"name":"buy","outputs":[],"stateMutability":"payable","type":"function"},{"inputs":[{"internalType":"uint32","name":"domainId","type":"uint32"},{"internalType":"address","name":"contractAddress","type":"address"},{"internalType":"address","name":"nftContractAddress","type":"address"},{"internalType":"uint256","name":"tokenId","type":"uint256"},{"internalType":"address payable","name":"seller","type":"address"},{"internalType":"uint32","name":"currencyId","type":"uint32"},{"internalType":"uint256","name":"sendPrice","type":"uint256"}],"name":"buyWithERC20","outputs":[],"stateMutability":"nonpayable","type":"function"},{"inputs":[{"internalType":"address","name":"nftContractAddress","type":"address"},{"internalType":"uint256","name":"tokenId","type":"uint256"}],"name":"cancelListing","outputs":[],"stateMutability":"nonpayable","type":"function"},{"inputs":[{"internalType":"uint32","name":"","type":"uint32"}],"name":"currencyIdToChainlinkContract","outputs":[{"internalType":"address","name":"","type":"address"}],"stateMutability":"view","type":"function"},{"inputs":[{"internalType":"uint32","name":"","type":"uint32"}],"name":"currencyIdToCurrencyContractAddress","outputs":[{"internalType":"address","name":"","type":"address"}],"stateMutability":"view","type":"function"},{"inputs":[{"internalType":"uint32","name":"","type":"uint32"}],"name":"domainToContractAddress","outputs":[{"internalType":"bytes32","name":"","type":"bytes32"}],"stateMutability":"view","type":"function"},{"inputs":[{"internalType":"uint32","name":"domainId","type":"uint32"}],"name":"getChainlinkContractAddress","outputs":[{"internalType":"address","name":"","type":"address"}],"stateMutability":"view","type":"function"},{"inputs":[{"internalType":"uint32","name":"domainId","type":"uint32"},{"internalType":"address","name":"nftContractAddress","type":"address"},{"internalType":"uint256","name":"tokenId","type":"uint256"}],"name":"getListInformation","outputs":[{"internalType":"address","name":"","type":"address"},{"internalType":"uint256","name":"","type":"uint256"},{"internalType":"uint32","name":"","type":"uint32"}],"stateMutability":"view","type":"function"},{"inputs":[{"internalType":"uint32","name":"domainId","type":"uint32"}],"name":"getResisteredContract","outputs":[{"internalType":"address","name":"","type":"address"}],"stateMutability":"view","type":"function"},{"inputs":[{"internalType":"uint32","name":"_origin","type":"uint32"},{"internalType":"bytes32","name":"_sender","type":"bytes32"},{"internalType":"bytes","name":"_messageBody","type":"bytes"}],"name":"handle","outputs":[],"stateMutability":"nonpayable","type":"function"},{"inputs":[{"internalType":"address","name":"nftContractAddress","type":"address"},{"internalType":"uint256","name":"tokenId","type":"uint256"},{"internalType":"uint256","name":"price","type":"uint256"},{"internalType":"uint32","name":"currencyId","type":"uint32"},{"internalType":"uint32","name":"domainIdTo","type":"uint32"},{"internalType":"address","name":"ourContractAddress","type":"address"}],"name":"list","outputs":[],"stateMutability":"nonpayable","type":"function"},{"inputs":[{"internalType":"bytes32","name":"","type":"bytes32"}],"name":"listedCurrency","outputs":[{"internalType":"uint32","name":"","type":"uint32"}],"stateMutability":"view","type":"function"},{"inputs":[{"internalType":"bytes32","name":"","type":"bytes32"}],"name":"listedPrice","outputs":[{"internalType":"uint256","name":"","type":"uint256"}],"stateMutability":"view","type":"function"},{"inputs":[],"name":"outbox","outputs":[{"internalType":"address","name":"","type":"address"}],"stateMutability":"view","type":"function"},{"inputs":[],"name":"owner","outputs":[{"internalType":"address","name":"","type":"address"}],"stateMutability":"view","type":"function"},{"inputs":[{"internalType":"bytes32","name":"","type":"bytes32"}],"name":"paidPrice","outputs":[{"internalType":"uint256","name":"","type":"uint256"}],"stateMutability":"view","type":"function"},{"inputs":[],"name":"renounceOwnership","outputs":[],"stateMutability":"nonpayable","type":"function"},{"inputs":[],"name":"selfDomainId","outputs":[{"internalType":"uint32","name":"","type":"uint32"}],"stateMutability":"view","type":"function"},{"inputs":[{"internalType":"bytes32","name":"","type":"bytes32"}],"name":"sellerAddress","outputs":[{"internalType":"address","name":"","type":"address"}],"stateMutability":"view","type":"function"},{"inputs":[{"internalType":"uint32","name":"currencyId","type":"uint32"},{"internalType":"address","name":"contractAddress","type":"address"}],"name":"setChainlinkContract","outputs":[],"stateMutability":"nonpayable","type":"function"},{"inputs":[{"internalType":"uint32","name":"domainId","type":"uint32"},{"internalType":"address","name":"contractAddress","type":"address"}],"name":"setContract","outputs":[],"stateMutability":"nonpayable","type":"function"},{"inputs":[{"internalType":"uint32","name":"currencyId","type":"uint32"},{"internalType":"address","name":"currencyContractAddress","type":"address"}],"name":"setCurrencyContractAddress","outputs":[],"stateMutability":"nonpayable","type":"function"},{"inputs":[{"internalType":"uint32","name":"domainId","type":"uint32"}],"name":"setSelfDomainId","outputs":[],"stateMutability":"nonpayable","type":"function"},{"inputs":[{"internalType":"uint32","name":"domainId","type":"uint32"},{"internalType":"address","name":"nftContractAddress","type":"address"},{"internalType":"uint256","name":"tokenId","type":"uint256"},{"internalType":"address payable","name":"seller","type":"address"},{"internalType":"uint32","name":"currencyId","type":"uint32"},{"internalType":"uint256","name":"msgValue","type":"uint256"}],"name":"testGetPriceMultiple","outputs":[{"internalType":"uint256[2]","name":"","type":"uint256[2]"}],"stateMutability":"view","type":"function"},{"inputs":[{"internalType":"address","name":"newOwner","type":"address"}],"name":"transferOwnership","outputs":[],"stateMutability":"nonpayable","type":"function"}],"evm":{"bytecode":{"linkReferences":{},"object":"60806040523480156200001157600080fd5b5060405162003f3438038062003f34833981810160405281019062000037919062000238565b620000576200004b620000c160201b60201c565b620000c960201b60201c565b81600260006101000a81548173ffffffffffffffffffffffffffffffffffffffff021916908373ffffffffffffffffffffffffffffffffffffffff16021790555080600260146101000a81548163ffffffff021916908363ffffffff16021790555050506200027f565b600033905090565b60008060009054906101000a900473ffffffffffffffffffffffffffffffffffffffff169050816000806101000a81548173ffffffffffffffffffffffffffffffffffffffff021916908373ffffffffffffffffffffffffffffffffffffffff1602179055508173ffffffffffffffffffffffffffffffffffffffff168173ffffffffffffffffffffffffffffffffffffffff167f8be0079c531659141344cd1fd0a4f28419497f9722a3daafe3b4186f6b6457e060405160405180910390a35050565b600080fd5b600073ffffffffffffffffffffffffffffffffffffffff82169050919050565b6000620001bf8262000192565b9050919050565b620001d181620001b2565b8114620001dd57600080fd5b50565b600081519050620001f181620001c6565b92915050565b600063ffffffff82169050919050565b6200021281620001f7565b81146200021e57600080fd5b50565b600081519050620002328162000207565b92915050565b600080604083850312156200025257620002516200018d565b5b60006200026285828601620001e0565b9250506020620002758582860162000221565b9150509250929050565b613ca5806200028f6000396000f3fe6080604052600436106101665760003560e01c80637c62cb7c116100d1578063b2ddee061161008a578063ce11e6ab11610064578063ce11e6ab14610577578063dbb11b1d146105a2578063e20d27f2146105df578063f2fde38b1461060857610166565b8063b2ddee06146104d4578063b5b57b89146104fd578063c1e6ac711461053a57610166565b80637c62cb7c1461038a5780637f51c0ae146103c7578063805898f6146104045780638461b2f01461042d5780638da5cb5b1461046c578063a80e1a3d1461049757610166565b80633f669f30116101235780633f669f301461029257806356d5d475146102bb5780635b96635e146102e45780636383847c14610321578063715018a61461034a57806378cd336f1461036157610166565b806308bfc7001461016b5780630c34d698146101a857806310ac595c146101d3578063131d9343146101fc5780632b79a4bf146102395780632e36a5db14610255575b600080fd5b34801561017757600080fd5b50610192600480360381019061018d919061269d565b610631565b60405161019f919061270b565b60405180910390f35b3480156101b457600080fd5b506101bd610664565b6040516101ca9190612745565b60405180910390f35b3480156101df57600080fd5b506101fa60048036038101906101f591906127b8565b61067a565b005b34801561020857600080fd5b50610223600480360381019061021e919061269d565b6106e4565b6040516102309190612811565b60405180910390f35b610253600480360381019061024e9190612896565b6106fc565b005b34801561026157600080fd5b5061027c6004803603810190610277919061269d565b610c01565b6040516102899190612811565b60405180910390f35b34801561029e57600080fd5b506102b960048036038101906102b491906127b8565b610c19565b005b3480156102c757600080fd5b506102e260048036038101906102dd9190612988565b610c83565b005b3480156102f057600080fd5b5061030b600480360381019061030691906129fc565b6112d4565b6040516103189190612b34565b60405180910390f35b34801561032d57600080fd5b50610348600480360381019061034391906127b8565b611544565b005b34801561035657600080fd5b5061035f61157c565b005b34801561036d57600080fd5b5061038860048036038101906103839190612b4f565b611590565b005b34801561039657600080fd5b506103b160048036038101906103ac9190612bf1565b611c12565b6040516103be919061270b565b60405180910390f35b3480156103d357600080fd5b506103ee60048036038101906103e99190612bf1565b611c5b565b6040516103fb919061270b565b60405180910390f35b34801561041057600080fd5b5061042b60048036038101906104269190612bf1565b611c8c565b005b34801561043957600080fd5b50610454600480360381019061044f9190612c1e565b611cb8565b60405161046393929190612c71565b60405180910390f35b34801561047857600080fd5b50610481611da8565b60405161048e919061270b565b60405180910390f35b3480156104a357600080fd5b506104be60048036038101906104b99190612bf1565b611dd1565b6040516104cb9190612cb7565b60405180910390f35b3480156104e057600080fd5b506104fb60048036038101906104f69190612cd2565b611de9565b005b34801561050957600080fd5b50610524600480360381019061051f919061269d565b611f41565b6040516105319190612745565b60405180910390f35b34801561054657600080fd5b50610561600480360381019061055c9190612bf1565b611f64565b60405161056e919061270b565b60405180910390f35b34801561058357600080fd5b5061058c611f97565b604051610599919061270b565b60405180910390f35b3480156105ae57600080fd5b506105c960048036038101906105c49190612bf1565b611fbd565b6040516105d6919061270b565b60405180910390f35b3480156105eb57600080fd5b5061060660048036038101906106019190612d12565b611ff0565b005b34801561061457600080fd5b5061062f600480360381019061062a9190612d9f565b612208565b005b60036020528060005260406000206000915054906101000a900473ffffffffffffffffffffffffffffffffffffffff1681565b600260149054906101000a900463ffffffff1681565b61068261228c565b80600960008463ffffffff1663ffffffff16815260200190815260200160002060006101000a81548173ffffffffffffffffffffffffffffffffffffffff021916908373ffffffffffffffffffffffffffffffffffffffff1602179055505050565b60066020528060005260406000206000915090505481565b600073ffffffffffffffffffffffffffffffffffffffff16600860008363ffffffff1663ffffffff16815260200190815260200160002060009054906101000a900473ffffffffffffffffffffffffffffffffffffffff1673ffffffffffffffffffffffffffffffffffffffff1614156107ab576040517f08c379a00000000000000000000000000000000000000000000000000000000081526004016107a290612e29565b60405180910390fd5b6000868585856040516020016107c49493929190612f11565b60405160208183030381529060405280519060200120905060006004600083815260200190815260200160002054141580610829575060006005600083815260200190815260200160002060009054906101000a900463ffffffff1663ffffffff1614155b61083257600080fd5b6005600082815260200190815260200160002060009054906101000a900463ffffffff1663ffffffff168263ffffffff16141561092c57346004600083815260200190815260200160002054111561088957600080fd5b6000878686336040516020016108a29493929190612f5f565b60405160208183030381529060405280519060200120905034600660008381526020019081526020016000208190555061091a88888888333489600260149054906101000a900463ffffffff16306040516020016109069796959493929190612ff0565b60405160208183030381529060405261230a565b610926888787876123c9565b50610ba8565b6000600860008463ffffffff1663ffffffff16815260200190815260200160002060009054906101000a900473ffffffffffffffffffffffffffffffffffffffff1690506000600860006005600086815260200190815260200160002060009054906101000a900463ffffffff1663ffffffff1663ffffffff16815260200190815260200160002060009054906101000a900473ffffffffffffffffffffffffffffffffffffffff16905060008273ffffffffffffffffffffffffffffffffffffffff1663feaf968c6040518163ffffffff1660e01b815260040160a06040518083038186803b158015610a1f57600080fd5b505afa158015610a33573d6000803e3d6000fd5b505050506040513d601f19601f82011682018060405250810190610a579190613100565b50505091505060008273ffffffffffffffffffffffffffffffffffffffff1663feaf968c6040518163ffffffff1660e01b815260040160a06040518083038186803b158015610aa557600080fd5b505afa158015610ab9573d6000803e3d6000fd5b505050506040513d601f19601f82011682018060405250810190610add9190613100565b5050509150503482610aef91906131aa565b600460008781526020019081526020016000205482610b0e91906131aa565b1115610b4f576040517f08c379a0000000000000000000000000000000000000000000000000000000008152600401610b4690613276565b60405180910390fd5b610b978b8b8b8b33348c600260149054906101000a900463ffffffff1630604051602001610b839796959493929190612ff0565b60405160208183030381529060405261230a565b610ba38b8a8a8a6123c9565b505050505b7fbe39bcb4b5645ce3e99dc49d095db856201db6af874a4d39b96cd1ed4a06a11d8585856004600086815260200190815260200160002054604051610bf094939291906132f5565b60405180910390a150505050505050565b60046020528060005260406000206000915090505481565b610c2161228c565b80600860008463ffffffff1663ffffffff16815260200190815260200160002060006101000a81548173ffffffffffffffffffffffffffffffffffffffff021916908373ffffffffffffffffffffffffffffffffffffffff1602179055505050565b8383600080600760008563ffffffff1663ffffffff16815260200190815260200160002054905080831415610cb757600191505b6000806000806000806000808d8d810190610cd2919061347b565b97509750975097509750975097509750600082888888604051602001610cfb949392919061354d565b604051602081830303815290604052805190602001209050600060036000600260149054906101000a900463ffffffff168b8b604051602001610d409392919061359b565b60405160208183030381529060405280519060200120815260200190815260200160002060009054906101000a900473ffffffffffffffffffffffffffffffffffffffff1690506000600260149054906101000a900463ffffffff168a8a84604051602001610db2949392919061354d565b6040516020818303038152906040528051906020012090506000858b8b604051602001610de19392919061359b565b604051602081830303815290604052805190602001209050610e388c6040518060400160405280600781526020017f4c697374696e67000000000000000000000000000000000000000000000000008152506124dc565b15610ede57886003600083815260200190815260200160002060006101000a81548173ffffffffffffffffffffffffffffffffffffffff021916908373ffffffffffffffffffffffffffffffffffffffff160217905550876004600086815260200190815260200160002081905550866005600086815260200190815260200160002060006101000a81548163ffffffff021916908363ffffffff1602179055506112bd565b610f1d8c6040518060400160405280600781526020017f54726164696e67000000000000000000000000000000000000000000000000008152506124dc565b1561106f57600060046000848152602001908152602001600020541480610f6d575060006005600084815260200190815260200160002060009054906101000a900463ffffffff1663ffffffff16145b15610fb957610fa886868d8d8d8d8d8d8d604051602001610f949796959493929190613624565b60405160208183030381529060405261230a565b5050505050505050505050506112ca565b8a73ffffffffffffffffffffffffffffffffffffffff166323b872dd308b8d6040518463ffffffff1660e01b8152600401610ff6939291906136a7565b600060405180830381600087803b15801561101057600080fd5b505af1158015611024573d6000803e3d6000fd5b5050505061105e86868d8d8d8d8d8d8d60405160200161104a979695949392919061372a565b60405160208183030381529060405261230a565b61106a868c8c866123c9565b6112bc565b6110ae8c6040518060400160405280600781526020017f436f6e6669726d000000000000000000000000000000000000000000000000008152506124dc565b156111dd5760036000600260149054906101000a900463ffffffff168d8d6040516020016110de9392919061359b565b60405160208183030381529060405280519060200120815260200190815260200160002060009054906101000a900473ffffffffffffffffffffffffffffffffffffffff1673ffffffffffffffffffffffffffffffffffffffff166108fc60066000600260149054906101000a900463ffffffff168f8f8f604051602001611169949392919061354d565b604051602081830303815290604052805190602001208152602001908152602001600020549081150290604051600060405180830381858888f193505050501580156111b9573d6000803e3d6000fd5b506111d8600260149054906101000a900463ffffffff168c8c8c6123c9565b6112bb565b61121c8c6040518060400160405280600881526020017f52657665727465640000000000000000000000000000000000000000000000008152506124dc565b156112ba578873ffffffffffffffffffffffffffffffffffffffff166108fc60066000600260149054906101000a900463ffffffff168f8f8f604051602001611268949392919061354d565b604051602081830303815290604052805190602001208152602001908152602001600020549081150290604051600060405180830381858888f193505050501580156112b8573d6000803e3d6000fd5b505b5b5b5b5050505050505050505050505b5050505050505050565b6112dc612631565b6112e4612631565b6000888888886040516020016112fd9493929190612f11565b6040516020818303038152906040528051906020012090506000600860008763ffffffff1663ffffffff16815260200190815260200160002060009054906101000a900473ffffffffffffffffffffffffffffffffffffffff1690506000600860006005600086815260200190815260200160002060009054906101000a900463ffffffff1663ffffffff1663ffffffff16815260200190815260200160002060009054906101000a900473ffffffffffffffffffffffffffffffffffffffff16905060008273ffffffffffffffffffffffffffffffffffffffff1663feaf968c6040518163ffffffff1660e01b815260040160a06040518083038186803b15801561140857600080fd5b505afa15801561141c573d6000803e3d6000fd5b505050506040513d601f19601f820116820180604052508101906114409190613100565b50505091505060008273ffffffffffffffffffffffffffffffffffffffff1663feaf968c6040518163ffffffff1660e01b815260040160a06040518083038186803b15801561148e57600080fd5b505afa1580156114a2573d6000803e3d6000fd5b505050506040513d601f19601f820116820180604052508101906114c69190613100565b5050509150506004600086815260200190815260200160002054816114eb91906131aa565b866000600281106114ff576114fe6137ad565b5b602002018181525050878261151491906131aa565b86600160028110611528576115276137ad565b5b6020020181815250508596505050505050509695505050505050565b61154c61228c565b61155581612535565b600760008463ffffffff1663ffffffff168152602001908152602001600020819055505050565b61158461228c565b61158e6000612558565b565b600073ffffffffffffffffffffffffffffffffffffffff16600860008463ffffffff1663ffffffff16815260200190815260200160002060009054906101000a900473ffffffffffffffffffffffffffffffffffffffff1673ffffffffffffffffffffffffffffffffffffffff16141561163f576040517f08c379a000000000000000000000000000000000000000000000000000000000815260040161163690612e29565b60405180910390fd5b6000878686866040516020016116589493929190612f11565b604051602081830303815290604052805190602001209050600060046000838152602001908152602001600020541415806116bd575060006005600083815260200190815260200160002060009054906101000a900463ffffffff1663ffffffff1614155b6116c657600080fd5b6005600082815260200190815260200160002060009054906101000a900463ffffffff1663ffffffff168363ffffffff16141561185957816004600083815260200190815260200160002054111561171d57600080fd5b600960008463ffffffff1663ffffffff16815260200190815260200160002060009054906101000a900473ffffffffffffffffffffffffffffffffffffffff1673ffffffffffffffffffffffffffffffffffffffff166323b872dd333060046000868152602001908152602001600020546040518463ffffffff1660e01b81526004016117ac939291906136a7565b602060405180830381600087803b1580156117c657600080fd5b505af11580156117da573d6000803e3d6000fd5b505050506040513d601f19601f820116820180604052508101906117fe9190613814565b506118488888888833600080600260149054906101000a900463ffffffff16306040516020016118349796959493929190613889565b60405160208183030381529060405261230a565b611854888787876123c9565b611bb8565b6000600860008563ffffffff1663ffffffff16815260200190815260200160002060009054906101000a900473ffffffffffffffffffffffffffffffffffffffff1690506000600860006005600086815260200190815260200160002060009054906101000a900463ffffffff1663ffffffff1663ffffffff16815260200190815260200160002060009054906101000a900473ffffffffffffffffffffffffffffffffffffffff16905060008273ffffffffffffffffffffffffffffffffffffffff1663feaf968c6040518163ffffffff1660e01b815260040160a06040518083038186803b15801561194c57600080fd5b505afa158015611960573d6000803e3d6000fd5b505050506040513d601f19601f820116820180604052508101906119849190613100565b50505091505060008273ffffffffffffffffffffffffffffffffffffffff1663feaf968c6040518163ffffffff1660e01b815260040160a06040518083038186803b1580156119d257600080fd5b505afa1580156119e6573d6000803e3d6000fd5b505050506040513d601f19601f82011682018060405250810190611a0a9190613100565b5050509150508582611a1c91906131aa565b600460008781526020019081526020016000205482611a3b91906131aa565b1115611a7c576040517f08c379a0000000000000000000000000000000000000000000000000000000008152600401611a7390613276565b60405180910390fd5b600960008863ffffffff1663ffffffff16815260200190815260200160002060009054906101000a900473ffffffffffffffffffffffffffffffffffffffff1673ffffffffffffffffffffffffffffffffffffffff166323b872dd3330600460008a8152602001908152602001600020546040518463ffffffff1660e01b8152600401611b0b939291906136a7565b602060405180830381600087803b158015611b2557600080fd5b505af1158015611b39573d6000803e3d6000fd5b505050506040513d601f19601f82011682018060405250810190611b5d9190613814565b50611ba78c8c8c8c33600080600260149054906101000a900463ffffffff1630604051602001611b939796959493929190613889565b60405160208183030381529060405261230a565b611bb38c8b8b8b6123c9565b505050505b7fbe39bcb4b5645ce3e99dc49d095db856201db6af874a4d39b96cd1ed4a06a11d8686866004600086815260200190815260200160002054604051611c0094939291906132f5565b60405180910390a15050505050505050565b6000600860008363ffffffff1663ffffffff16815260200190815260200160002060009054906101000a900473ffffffffffffffffffffffffffffffffffffffff169050919050565b6000611c85600760008463ffffffff1663ffffffff1681526020019081526020016000205461261c565b9050919050565b611c9461228c565b80600260146101000a81548163ffffffff021916908363ffffffff16021790555050565b600080600080868686604051602001611cd39392919061359b565b60405160208183030381529060405280519060200120905060006003600083815260200190815260200160002060009054906101000a900473ffffffffffffffffffffffffffffffffffffffff16905087878783604051602001611d3a949392919061354d565b60405160208183030381529060405280519060200120915060006004600084815260200190815260200160002054905060006005600085815260200190815260200160002060009054906101000a900463ffffffff1690508282829650965096505050505093509350939050565b60008060009054906101000a900473ffffffffffffffffffffffffffffffffffffffff16905090565b60076020528060005260406000206000915090505481565b6000600260149054906101000a900463ffffffff168383604051602001611e129392919061359b565b6040516020818303038152906040528051906020012090506003600082815260200190815260200160002060009054906101000a900473ffffffffffffffffffffffffffffffffffffffff1673ffffffffffffffffffffffffffffffffffffffff163373ffffffffffffffffffffffffffffffffffffffff1614611e9557600080fd5b8273ffffffffffffffffffffffffffffffffffffffff166323b872dd3033856040518463ffffffff1660e01b8152600401611ed2939291906136a7565b600060405180830381600087803b158015611eec57600080fd5b505af1158015611f00573d6000803e3d6000fd5b50505050600073ffffffffffffffffffffffffffffffffffffffff166003600083815260200190815260200160002060009054906101000a90505050505050565b60056020528060005260406000206000915054906101000a900463ffffffff1681565b60086020528060005260406000206000915054906101000a900473ffffffffffffffffffffffffffffffffffffffff1681565b600260009054906101000a900473ffffffffffffffffffffffffffffffffffffffff1681565b60096020528060005260406000206000915054906101000a900473ffffffffffffffffffffffffffffffffffffffff1681565b8573ffffffffffffffffffffffffffffffffffffffff166323b872dd3330886040518463ffffffff1660e01b815260040161202d939291906136a7565b600060405180830381600087803b15801561204757600080fd5b505af115801561205b573d6000803e3d6000fd5b505050503360036000600260149054906101000a900463ffffffff16898960405160200161208b9392919061359b565b60405160208183030381529060405280519060200120815260200190815260200160002060006101000a81548173ffffffffffffffffffffffffffffffffffffffff021916908373ffffffffffffffffffffffffffffffffffffffff16021790555061213582828888338989600260149054906101000a900463ffffffff16306040516020016121219796959493929190613958565b60405160208183030381529060405261230a565b6000600260149054906101000a900463ffffffff16878733604051602001612160949392919061354d565b604051602081830303815290604052805190602001209050846004600083815260200190815260200160002081905550836005600083815260200190815260200160002060006101000a81548163ffffffff021916908363ffffffff1602179055507f8b06cda60618abf2b2d07227f9dd63ec6349ca3269ce0eb18d49122a48362ad8878733886040516121f794939291906139db565b60405180910390a150505050505050565b61221061228c565b600073ffffffffffffffffffffffffffffffffffffffff168173ffffffffffffffffffffffffffffffffffffffff161415612280576040517f08c379a000000000000000000000000000000000000000000000000000000000815260040161227790613a92565b60405180910390fd5b61228981612558565b50565b612294612629565b73ffffffffffffffffffffffffffffffffffffffff166122b2611da8565b73ffffffffffffffffffffffffffffffffffffffff1614612308576040517f08c379a00000000000000000000000000000000000000000000000000000000081526004016122ff90613afe565b60405180910390fd5b565b600260009054906101000a900473ffffffffffffffffffffffffffffffffffffffff1673ffffffffffffffffffffffffffffffffffffffff1663fa31de018461235285612535565b846040518463ffffffff1660e01b815260040161237193929190613ba6565b602060405180830381600087803b15801561238b57600080fd5b505af115801561239f573d6000803e3d6000fd5b505050506040513d601f19601f820116820180604052508101906123c39190613be4565b50505050565b600060036000600260149054906101000a900463ffffffff1686866040516020016123f69392919061359b565b60405160208183030381529060405280519060200120815260200190815260200160002060006101000a81548173ffffffffffffffffffffffffffffffffffffffff021916908373ffffffffffffffffffffffffffffffffffffffff160217905550600084848484604051602001612471949392919061354d565b60405160208183030381529060405280519060200120905060006005600083815260200190815260200160002060006101000a81548163ffffffff021916908363ffffffff160217905550600060046000838152602001908152602001600020819055505050505050565b6000816040516020016124ef9190613c58565b60405160208183030381529060405280519060200120836040516020016125169190613c58565b6040516020818303038152906040528051906020012014905092915050565b60008173ffffffffffffffffffffffffffffffffffffffff1660001b9050919050565b60008060009054906101000a900473ffffffffffffffffffffffffffffffffffffffff169050816000806101000a81548173ffffffffffffffffffffffffffffffffffffffff021916908373ffffffffffffffffffffffffffffffffffffffff1602179055508173ffffffffffffffffffffffffffffffffffffffff168173ffffffffffffffffffffffffffffffffffffffff167f8be0079c531659141344cd1fd0a4f28419497f9722a3daafe3b4186f6b6457e060405160405180910390a35050565b60008160001c9050919050565b600033905090565b6040518060400160405280600290602082028036833780820191505090505090565b6000604051905090565b600080fd5b600080fd5b6000819050919050565b61267a81612667565b811461268557600080fd5b50565b60008135905061269781612671565b92915050565b6000602082840312156126b3576126b261265d565b5b60006126c184828501612688565b91505092915050565b600073ffffffffffffffffffffffffffffffffffffffff82169050919050565b60006126f5826126ca565b9050919050565b612705816126ea565b82525050565b600060208201905061272060008301846126fc565b92915050565b600063ffffffff82169050919050565b61273f81612726565b82525050565b600060208201905061275a6000830184612736565b92915050565b61276981612726565b811461277457600080fd5b50565b60008135905061278681612760565b92915050565b612795816126ea565b81146127a057600080fd5b50565b6000813590506127b28161278c565b92915050565b600080604083850312156127cf576127ce61265d565b5b60006127dd85828601612777565b92505060206127ee858286016127a3565b9150509250929050565b6000819050919050565b61280b816127f8565b82525050565b60006020820190506128266000830184612802565b92915050565b612835816127f8565b811461284057600080fd5b50565b6000813590506128528161282c565b92915050565b6000612863826126ca565b9050919050565b61287381612858565b811461287e57600080fd5b50565b6000813590506128908161286a565b92915050565b60008060008060008060c087890312156128b3576128b261265d565b5b60006128c189828a01612777565b96505060206128d289828a016127a3565b95505060406128e389828a016127a3565b94505060606128f489828a01612843565b935050608061290589828a01612881565b92505060a061291689828a01612777565b9150509295509295509295565b600080fd5b600080fd5b600080fd5b60008083601f84011261294857612947612923565b5b8235905067ffffffffffffffff81111561296557612964612928565b5b6020830191508360018202830111156129815761298061292d565b5b9250929050565b600080600080606085870312156129a2576129a161265d565b5b60006129b087828801612777565b94505060206129c187828801612688565b935050604085013567ffffffffffffffff8111156129e2576129e1612662565b5b6129ee87828801612932565b925092505092959194509250565b60008060008060008060c08789031215612a1957612a1861265d565b5b6000612a2789828a01612777565b9650506020612a3889828a016127a3565b9550506040612a4989828a01612843565b9450506060612a5a89828a01612881565b9350506080612a6b89828a01612777565b92505060a0612a7c89828a01612843565b9150509295509295509295565b600060029050919050565b600081905092915050565b6000819050919050565b612ab2816127f8565b82525050565b6000612ac48383612aa9565b60208301905092915050565b6000602082019050919050565b612ae681612a89565b612af08184612a94565b9250612afb82612a9f565b8060005b83811015612b2c578151612b138782612ab8565b9650612b1e83612ad0565b925050600181019050612aff565b505050505050565b6000604082019050612b496000830184612add565b92915050565b600080600080600080600060e0888a031215612b6e57612b6d61265d565b5b6000612b7c8a828b01612777565b9750506020612b8d8a828b016127a3565b9650506040612b9e8a828b016127a3565b9550506060612baf8a828b01612843565b9450506080612bc08a828b01612881565b93505060a0612bd18a828b01612777565b92505060c0612be28a828b01612843565b91505092959891949750929550565b600060208284031215612c0757612c0661265d565b5b6000612c1584828501612777565b91505092915050565b600080600060608486031215612c3757612c3661265d565b5b6000612c4586828701612777565b9350506020612c56868287016127a3565b9250506040612c6786828701612843565b9150509250925092565b6000606082019050612c8660008301866126fc565b612c936020830185612802565b612ca06040830184612736565b949350505050565b612cb181612667565b82525050565b6000602082019050612ccc6000830184612ca8565b92915050565b60008060408385031215612ce957612ce861265d565b5b6000612cf7858286016127a3565b9250506020612d0885828601612843565b9150509250929050565b60008060008060008060c08789031215612d2f57612d2e61265d565b5b6000612d3d89828a016127a3565b9650506020612d4e89828a01612843565b9550506040612d5f89828a01612843565b9450506060612d7089828a01612777565b9350506080612d8189828a01612777565b92505060a0612d9289828a016127a3565b9150509295509295509295565b600060208284031215612db557612db461265d565b5b6000612dc3848285016127a3565b91505092915050565b600082825260208201905092915050565b7f546869732063757272656e63792069736e277420737570706f72746564000000600082015250565b6000612e13601d83612dcc565b9150612e1e82612ddd565b602082019050919050565b60006020820190508181036000830152612e4281612e06565b9050919050565b60008160e01b9050919050565b6000612e6182612e49565b9050919050565b612e79612e7482612726565b612e56565b82525050565b60008160601b9050919050565b6000612e9782612e7f565b9050919050565b6000612ea982612e8c565b9050919050565b612ec1612ebc826126ea565b612e9e565b82525050565b6000819050919050565b612ee2612edd826127f8565b612ec7565b82525050565b6000612ef382612e8c565b9050919050565b612f0b612f0682612858565b612ee8565b82525050565b6000612f1d8287612e68565b600482019150612f2d8286612eb0565b601482019150612f3d8285612ed1565b602082019150612f4d8284612efa565b60148201915081905095945050505050565b6000608082019050612f746000830187612736565b612f8160208301866126fc565b612f8e6040830185612802565b612f9b60608301846126fc565b95945050505050565b7f54726164696e6700000000000000000000000000000000000000000000000000600082015250565b6000612fda600783612dcc565b9150612fe582612fa4565b602082019050919050565b600061010082019050818103600083015261300a81612fcd565b9050613019602083018a6126fc565b6130266040830189612802565b61303360608301886126fc565b6130406080830187612802565b61304d60a0830186612736565b61305a60c0830185612736565b61306760e08301846126fc565b98975050505050505050565b600069ffffffffffffffffffff82169050919050565b61309281613073565b811461309d57600080fd5b50565b6000815190506130af81613089565b92915050565b6000819050919050565b6130c8816130b5565b81146130d357600080fd5b50565b6000815190506130e5816130bf565b92915050565b6000815190506130fa8161282c565b92915050565b600080600080600060a0868803121561311c5761311b61265d565b5b600061312a888289016130a0565b955050602061313b888289016130d6565b945050604061314c888289016130eb565b935050606061315d888289016130eb565b925050608061316e888289016130a0565b9150509295509295909350565b7f4e487b7100000000000000000000000000000000000000000000000000000000600052601160045260246000fd5b60006131b5826127f8565b91506131c0836127f8565b9250817fffffffffffffffffffffffffffffffffffffffffffffffffffffffffffffffff04831182151516156131f9576131f861317b565b5b828202905092915050565b7f4d61726b65742e736f6c3a206c6973746564507269636520616e642053656e6460008201527f696e67507269636520617265206e6f74206d6174636865640000000000000000602082015250565b6000613260603883612dcc565b915061326b82613204565b604082019050919050565b6000602082019050818103600083015261328f81613253565b9050919050565b6000819050919050565b60006132bb6132b66132b1846126ca565b613296565b6126ca565b9050919050565b60006132cd826132a0565b9050919050565b60006132df826132c2565b9050919050565b6132ef816132d4565b82525050565b600060808201905061330a60008301876126fc565b6133176020830186612802565b61332460408301856132e6565b6133316060830184612802565b95945050505050565b600080fd5b6000601f19601f8301169050919050565b7f4e487b7100000000000000000000000000000000000000000000000000000000600052604160045260246000fd5b6133888261333f565b810181811067ffffffffffffffff821117156133a7576133a6613350565b5b80604052505050565b60006133ba612653565b90506133c6828261337f565b919050565b600067ffffffffffffffff8211156133e6576133e5613350565b5b6133ef8261333f565b9050602081019050919050565b82818337600083830152505050565b600061341e613419846133cb565b6133b0565b90508281526020810184848401111561343a5761343961333a565b5b6134458482856133fc565b509392505050565b600082601f83011261346257613461612923565b5b813561347284826020860161340b565b91505092915050565b600080600080600080600080610100898b03121561349c5761349b61265d565b5b600089013567ffffffffffffffff8111156134ba576134b9612662565b5b6134c68b828c0161344d565b98505060206134d78b828c01612881565b97505060406134e88b828c01612843565b96505060606134f98b828c01612881565b955050608061350a8b828c01612843565b94505060a061351b8b828c01612777565b93505060c061352c8b828c01612777565b92505060e061353d8b828c01612881565b9150509295985092959890939650565b60006135598287612e68565b6004820191506135698286612eb0565b6014820191506135798285612ed1565b6020820191506135898284612eb0565b60148201915081905095945050505050565b60006135a78286612e68565b6004820191506135b78285612eb0565b6014820191506135c78284612ed1565b602082019150819050949350505050565b7f5265766572746564000000000000000000000000000000000000000000000000600082015250565b600061360e600883612dcc565b9150613619826135d8565b602082019050919050565b600061010082019050818103600083015261363e81613601565b905061364d602083018a6126fc565b61365a6040830189612802565b61366760608301886126fc565b6136746080830187612802565b61368160a0830186612736565b61368e60c0830185612736565b61369b60e08301846126fc565b98975050505050505050565b60006060820190506136bc60008301866126fc565b6136c960208301856126fc565b6136d66040830184612802565b949350505050565b7f436f6e6669726d64000000000000000000000000000000000000000000000000600082015250565b6000613714600883612dcc565b915061371f826136de565b602082019050919050565b600061010082019050818103600083015261374481613707565b9050613753602083018a6126fc565b6137606040830189612802565b61376d60608301886126fc565b61377a6080830187612802565b61378760a0830186612736565b61379460c0830185612736565b6137a160e08301846126fc565b98975050505050505050565b7f4e487b7100000000000000000000000000000000000000000000000000000000600052603260045260246000fd5b60008115159050919050565b6137f1816137dc565b81146137fc57600080fd5b50565b60008151905061380e816137e8565b92915050565b60006020828403121561382a5761382961265d565b5b6000613838848285016137ff565b91505092915050565b6000819050919050565b600060ff82169050919050565b600061387361386e61386984613841565b613296565b61384b565b9050919050565b61388381613858565b82525050565b60006101008201905081810360008301526138a381612fcd565b90506138b2602083018a6126fc565b6138bf6040830189612802565b6138cc60608301886126fc565b6138d9608083018761387a565b6138e660a083018661387a565b6138f360c0830185612736565b61390060e08301846126fc565b98975050505050505050565b7f4c697374696e6700000000000000000000000000000000000000000000000000600082015250565b6000613942600783612dcc565b915061394d8261390c565b602082019050919050565b600061010082019050818103600083015261397281613935565b9050613981602083018a6126fc565b61398e6040830189612802565b61399b60608301886126fc565b6139a86080830187612802565b6139b560a0830186612736565b6139c260c0830185612736565b6139cf60e08301846126fc565b98975050505050505050565b60006080820190506139f060008301876126fc565b6139fd6020830186612802565b613a0a60408301856126fc565b613a176060830184612802565b95945050505050565b7f4f776e61626c653a206e6577206f776e657220697320746865207a65726f206160008201527f6464726573730000000000000000000000000000000000000000000000000000602082015250565b6000613a7c602683612dcc565b9150613a8782613a20565b604082019050919050565b60006020820190508181036000830152613aab81613a6f565b9050919050565b7f4f776e61626c653a2063616c6c6572206973206e6f7420746865206f776e6572600082015250565b6000613ae8602083612dcc565b9150613af382613ab2565b602082019050919050565b60006020820190508181036000830152613b1781613adb565b9050919050565b600081519050919050565b600082825260208201905092915050565b60005b83811015613b58578082015181840152602081019050613b3d565b83811115613b67576000848401525b50505050565b6000613b7882613b1e565b613b828185613b29565b9350613b92818560208601613b3a565b613b9b8161333f565b840191505092915050565b6000606082019050613bbb6000830186612736565b613bc86020830185612ca8565b8181036040830152613bda8184613b6d565b9050949350505050565b600060208284031215613bfa57613bf961265d565b5b6000613c08848285016130eb565b91505092915050565b600081519050919050565b600081905092915050565b6000613c3282613c11565b613c3c8185613c1c565b9350613c4c818560208601613b3a565b80840191505092915050565b6000613c648284613c27565b91508190509291505056fea2646970667358221220ca5dea8298d076276768eafac597079f04bcc2815595ec897e368193dd047d2064736f6c63430008090033","opcodes":"PUSH1 0x80 PUSH1 0x40 MSTORE CALLVALUE DUP1 ISZERO PUSH3 0x11 JUMPI PUSH1 0x0 DUP1 REVERT JUMPDEST POP PUSH1 0x40 MLOAD PUSH3 0x3F34 CODESIZE SUB DUP1 PUSH3 0x3F34 DUP4 CODECOPY DUP2 DUP2 ADD PUSH1 0x40 MSTORE DUP2 ADD SWAP1 PUSH3 0x37 SWAP2 SWAP1 PUSH3 0x238 JUMP JUMPDEST PUSH3 0x57 PUSH3 0x4B PUSH3 0xC1 PUSH1 0x20 SHL PUSH1 0x20 SHR JUMP JUMPDEST PUSH3 0xC9 PUSH1 0x20 SHL PUSH1 0x20 SHR JUMP JUMPDEST DUP2 PUSH1 0x2 PUSH1 0x0 PUSH2 0x100 EXP DUP2 SLOAD DUP2 PUSH20 0xFFFFFFFFFFFFFFFFFFFFFFFFFFFFFFFFFFFFFFFF MUL NOT AND SWAP1 DUP4 PUSH20 0xFFFFFFFFFFFFFFFFFFFFFFFFFFFFFFFFFFFFFFFF AND MUL OR SWAP1 SSTORE POP DUP1 PUSH1 0x2 PUSH1 0x14 PUSH2 0x100 EXP DUP2 SLOAD DUP2 PUSH4 0xFFFFFFFF MUL NOT AND SWAP1 DUP4 PUSH4 0xFFFFFFFF AND MUL OR SWAP1 SSTORE POP POP POP PUSH3 0x27F JUMP JUMPDEST PUSH1 0x0 CALLER SWAP1 POP SWAP1 JUMP JUMPDEST PUSH1 0x0 DUP1 PUSH1 0x0 SWAP1 SLOAD SWAP1 PUSH2 0x100 EXP SWAP1 DIV PUSH20 0xFFFFFFFFFFFFFFFFFFFFFFFFFFFFFFFFFFFFFFFF AND SWAP1 POP DUP2 PUSH1 0x0 DUP1 PUSH2 0x100 EXP DUP2 SLOAD DUP2 PUSH20 0xFFFFFFFFFFFFFFFFFFFFFFFFFFFFFFFFFFFFFFFF MUL NOT AND SWAP1 DUP4 PUSH20 0xFFFFFFFFFFFFFFFFFFFFFFFFFFFFFFFFFFFFFFFF AND MUL OR SWAP1 SSTORE POP DUP2 PUSH20 0xFFFFFFFFFFFFFFFFFFFFFFFFFFFFFFFFFFFFFFFF AND DUP2 PUSH20 0xFFFFFFFFFFFFFFFFFFFFFFFFFFFFFFFFFFFFFFFF AND PUSH32 0x8BE0079C531659141344CD1FD0A4F28419497F9722A3DAAFE3B4186F6B6457E0 PUSH1 0x40 MLOAD PUSH1 0x40 MLOAD DUP1 SWAP2 SUB SWAP1 LOG3 POP POP JUMP JUMPDEST PUSH1 0x0 DUP1 REVERT JUMPDEST PUSH1 0x0 PUSH20 0xFFFFFFFFFFFFFFFFFFFFFFFFFFFFFFFFFFFFFFFF DUP3 AND SWAP1 POP SWAP2 SWAP1 POP JUMP JUMPDEST PUSH1 0x0 PUSH3 0x1BF DUP3 PUSH3 0x192 JUMP JUMPDEST SWAP1 POP SWAP2 SWAP1 POP JUMP JUMPDEST PUSH3 0x1D1 DUP2 PUSH3 0x1B2 JUMP JUMPDEST DUP2 EQ PUSH3 0x1DD JUMPI PUSH1 0x0 DUP1 REVERT JUMPDEST POP JUMP JUMPDEST PUSH1 0x0 DUP2 MLOAD SWAP1 POP PUSH3 0x1F1 DUP2 PUSH3 0x1C6 JUMP JUMPDEST SWAP3 SWAP2 POP POP JUMP JUMPDEST PUSH1 0x0 PUSH4 0xFFFFFFFF DUP3 AND SWAP1 POP SWAP2 SWAP1 POP JUMP JUMPDEST PUSH3 0x212 DUP2 PUSH3 0x1F7 JUMP JUMPDEST DUP2 EQ PUSH3 0x21E JUMPI PUSH1 0x0 DUP1 REVERT JUMPDEST POP JUMP JUMPDEST PUSH1 0x0 DUP2 MLOAD SWAP1 POP PUSH3 0x232 DUP2 PUSH3 0x207 JUMP JUMPDEST SWAP3 SWAP2 POP POP JUMP JUMPDEST PUSH1 0x0 DUP1 PUSH1 0x40 DUP4 DUP6 SUB SLT ISZERO PUSH3 0x252 JUMPI PUSH3 0x251 PUSH3 0x18D JUMP JUMPDEST JUMPDEST PUSH1 0x0 PUSH3 0x262 DUP6 DUP3 DUP7 ADD PUSH3 0x1E0 JUMP JUMPDEST SWAP3 POP POP PUSH1 0x20 PUSH3 0x275 DUP6 DUP3 DUP7 ADD PUSH3 0x221 JUMP JUMPDEST SWAP2 POP POP SWAP3 POP SWAP3 SWAP1 POP JUMP JUMPDEST PUSH2 0x3CA5 DUP1 PUSH3 0x28F PUSH1 0x0 CODECOPY PUSH1 0x0 RETURN INVALID PUSH1 0x80 PUSH1 0x40 MSTORE PUSH1 0x4 CALLDATASIZE LT PUSH2 0x166 JUMPI PUSH1 0x0 CALLDATALOAD PUSH1 0xE0 SHR DUP1 PUSH4 0x7C62CB7C GT PUSH2 0xD1 JUMPI DUP1 PUSH4 0xB2DDEE06 GT PUSH2 0x8A JUMPI DUP1 PUSH4 0xCE11E6AB GT PUSH2 0x64 JUMPI DUP1 PUSH4 0xCE11E6AB EQ PUSH2 0x577 JUMPI DUP1 PUSH4 0xDBB11B1D EQ PUSH2 0x5A2 JUMPI DUP1 PUSH4 0xE20D27F2 EQ PUSH2 0x5DF JUMPI DUP1 PUSH4 0xF2FDE38B EQ PUSH2 0x608 JUMPI PUSH2 0x166 JUMP JUMPDEST DUP1 PUSH4 0xB2DDEE06 EQ PUSH2 0x4D4 JUMPI DUP1 PUSH4 0xB5B57B89 EQ PUSH2 0x4FD JUMPI DUP1 PUSH4 0xC1E6AC71 EQ PUSH2 0x53A JUMPI PUSH2 0x166 JUMP JUMPDEST DUP1 PUSH4 0x7C62CB7C EQ PUSH2 0x38A JUMPI DUP1 PUSH4 0x7F51C0AE EQ PUSH2 0x3C7 JUMPI DUP1 PUSH4 0x805898F6 EQ PUSH2 0x404 JUMPI DUP1 PUSH4 0x8461B2F0 EQ PUSH2 0x42D JUMPI DUP1 PUSH4 0x8DA5CB5B EQ PUSH2 0x46C JUMPI DUP1 PUSH4 0xA80E1A3D EQ PUSH2 0x497 JUMPI PUSH2 0x166 JUMP JUMPDEST DUP1 PUSH4 0x3F669F30 GT PUSH2 0x123 JUMPI DUP1 PUSH4 0x3F669F30 EQ PUSH2 0x292 JUMPI DUP1 PUSH4 0x56D5D475 EQ PUSH2 0x2BB JUMPI DUP1 PUSH4 0x5B96635E EQ PUSH2 0x2E4 JUMPI DUP1 PUSH4 0x6383847C EQ PUSH2 0x321 JUMPI DUP1 PUSH4 0x715018A6 EQ PUSH2 0x34A JUMPI DUP1 PUSH4 0x78CD336F EQ PUSH2 0x361 JUMPI PUSH2 0x166 JUMP JUMPDEST DUP1 PUSH4 0x8BFC700 EQ PUSH2 0x16B JUMPI DUP1 PUSH4 0xC34D698 EQ PUSH2 0x1A8 JUMPI DUP1 PUSH4 0x10AC595C EQ PUSH2 0x1D3 JUMPI DUP1 PUSH4 0x131D9343 EQ PUSH2 0x1FC JUMPI DUP1 PUSH4 0x2B79A4BF EQ PUSH2 0x239 JUMPI DUP1 PUSH4 0x2E36A5DB EQ PUSH2 0x255 JUMPI JUMPDEST PUSH1 0x0 DUP1 REVERT JUMPDEST CALLVALUE DUP1 ISZERO PUSH2 0x177 JUMPI PUSH1 0x0 DUP1 REVERT JUMPDEST POP PUSH2 0x192 PUSH1 0x4 DUP1 CALLDATASIZE SUB DUP2 ADD SWAP1 PUSH2 0x18D SWAP2 SWAP1 PUSH2 0x269D JUMP JUMPDEST PUSH2 0x631 JUMP JUMPDEST PUSH1 0x40 MLOAD PUSH2 0x19F SWAP2 SWAP1 PUSH2 0x270B JUMP JUMPDEST PUSH1 0x40 MLOAD DUP1 SWAP2 SUB SWAP1 RETURN JUMPDEST CALLVALUE DUP1 ISZERO PUSH2 0x1B4 JUMPI PUSH1 0x0 DUP1 REVERT JUMPDEST POP PUSH2 0x1BD PUSH2 0x664 JUMP JUMPDEST PUSH1 0x40 MLOAD PUSH2 0x1CA SWAP2 SWAP1 PUSH2 0x2745 JUMP JUMPDEST PUSH1 0x40 MLOAD DUP1 SWAP2 SUB SWAP1 RETURN JUMPDEST CALLVALUE DUP1 ISZERO PUSH2 0x1DF JUMPI PUSH1 0x0 DUP1 REVERT JUMPDEST POP PUSH2 0x1FA PUSH1 0x4 DUP1 CALLDATASIZE SUB DUP2 ADD SWAP1 PUSH2 0x1F5 SWAP2 SWAP1 PUSH2 0x27B8 JUMP JUMPDEST PUSH2 0x67A JUMP JUMPDEST STOP JUMPDEST CALLVALUE DUP1 ISZERO PUSH2 0x208 JUMPI PUSH1 0x0 DUP1 REVERT JUMPDEST POP PUSH2 0x223 PUSH1 0x4 DUP1 CALLDATASIZE SUB DUP2 ADD SWAP1 PUSH2 0x21E SWAP2 SWAP1 PUSH2 0x269D JUMP JUMPDEST PUSH2 0x6E4 JUMP JUMPDEST PUSH1 0x40 MLOAD PUSH2 0x230 SWAP2 SWAP1 PUSH2 0x2811 JUMP JUMPDEST PUSH1 0x40 MLOAD DUP1 SWAP2 SUB SWAP1 RETURN JUMPDEST PUSH2 0x253 PUSH1 0x4 DUP1 CALLDATASIZE SUB DUP2 ADD SWAP1 PUSH2 0x24E SWAP2 SWAP1 PUSH2 0x2896 JUMP JUMPDEST PUSH2 0x6FC JUMP JUMPDEST STOP JUMPDEST CALLVALUE DUP1 ISZERO PUSH2 0x261 JUMPI PUSH1 0x0 DUP1 REVERT JUMPDEST POP PUSH2 0x27C PUSH1 0x4 DUP1 CALLDATASIZE SUB DUP2 ADD SWAP1 PUSH2 0x277 SWAP2 SWAP1 PUSH2 0x269D JUMP JUMPDEST PUSH2 0xC01 JUMP JUMPDEST PUSH1 0x40 MLOAD PUSH2 0x289 SWAP2 SWAP1 PUSH2 0x2811 JUMP JUMPDEST PUSH1 0x40 MLOAD DUP1 SWAP2 SUB SWAP1 RETURN JUMPDEST CALLVALUE DUP1 ISZERO PUSH2 0x29E JUMPI PUSH1 0x0 DUP1 REVERT JUMPDEST POP PUSH2 0x2B9 PUSH1 0x4 DUP1 CALLDATASIZE SUB DUP2 ADD SWAP1 PUSH2 0x2B4 SWAP2 SWAP1 PUSH2 0x27B8 JUMP JUMPDEST PUSH2 0xC19 JUMP JUMPDEST STOP JUMPDEST CALLVALUE DUP1 ISZERO PUSH2 0x2C7 JUMPI PUSH1 0x0 DUP1 REVERT JUMPDEST POP PUSH2 0x2E2 PUSH1 0x4 DUP1 CALLDATASIZE SUB DUP2 ADD SWAP1 PUSH2 0x2DD SWAP2 SWAP1 PUSH2 0x2988 JUMP JUMPDEST PUSH2 0xC83 JUMP JUMPDEST STOP JUMPDEST CALLVALUE DUP1 ISZERO PUSH2 0x2F0 JUMPI PUSH1 0x0 DUP1 REVERT JUMPDEST POP PUSH2 0x30B PUSH1 0x4 DUP1 CALLDATASIZE SUB DUP2 ADD SWAP1 PUSH2 0x306 SWAP2 SWAP1 PUSH2 0x29FC JUMP JUMPDEST PUSH2 0x12D4 JUMP JUMPDEST PUSH1 0x40 MLOAD PUSH2 0x318 SWAP2 SWAP1 PUSH2 0x2B34 JUMP JUMPDEST PUSH1 0x40 MLOAD DUP1 SWAP2 SUB SWAP1 RETURN JUMPDEST CALLVALUE DUP1 ISZERO PUSH2 0x32D JUMPI PUSH1 0x0 DUP1 REVERT JUMPDEST POP PUSH2 0x348 PUSH1 0x4 DUP1 CALLDATASIZE SUB DUP2 ADD SWAP1 PUSH2 0x343 SWAP2 SWAP1 PUSH2 0x27B8 JUMP JUMPDEST PUSH2 0x1544 JUMP JUMPDEST STOP JUMPDEST CALLVALUE DUP1 ISZERO PUSH2 0x356 JUMPI PUSH1 0x0 DUP1 REVERT JUMPDEST POP PUSH2 0x35F PUSH2 0x157C JUMP JUMPDEST STOP JUMPDEST CALLVALUE DUP1 ISZERO PUSH2 0x36D JUMPI PUSH1 0x0 DUP1 REVERT JUMPDEST POP PUSH2 0x388 PUSH1 0x4 DUP1 CALLDATASIZE SUB DUP2 ADD SWAP1 PUSH2 0x383 SWAP2 SWAP1 PUSH2 0x2B4F JUMP JUMPDEST PUSH2 0x1590 JUMP JUMPDEST STOP JUMPDEST CALLVALUE DUP1 ISZERO PUSH2 0x396 JUMPI PUSH1 0x0 DUP1 REVERT JUMPDEST POP PUSH2 0x3B1 PUSH1 0x4 DUP1 CALLDATASIZE SUB DUP2 ADD SWAP1 PUSH2 0x3AC SWAP2 SWAP1 PUSH2 0x2BF1 JUMP JUMPDEST PUSH2 0x1C12 JUMP JUMPDEST PUSH1 0x40 MLOAD PUSH2 0x3BE SWAP2 SWAP1 PUSH2 0x270B JUMP JUMPDEST PUSH1 0x40 MLOAD DUP1 SWAP2 SUB SWAP1 RETURN JUMPDEST CALLVALUE DUP1 ISZERO PUSH2 0x3D3 JUMPI PUSH1 0x0 DUP1 REVERT JUMPDEST POP PUSH2 0x3EE PUSH1 0x4 DUP1 CALLDATASIZE SUB DUP2 ADD SWAP1 PUSH2 0x3E9 SWAP2 SWAP1 PUSH2 0x2BF1 JUMP JUMPDEST PUSH2 0x1C5B JUMP JUMPDEST PUSH1 0x40 MLOAD PUSH2 0x3FB SWAP2 SWAP1 PUSH2 0x270B JUMP JUMPDEST PUSH1 0x40 MLOAD DUP1 SWAP2 SUB SWAP1 RETURN JUMPDEST CALLVALUE DUP1 ISZERO PUSH2 0x410 JUMPI PUSH1 0x0 DUP1 REVERT JUMPDEST POP PUSH2 0x42B PUSH1 0x4 DUP1 CALLDATASIZE SUB DUP2 ADD SWAP1 PUSH2 0x426 SWAP2 SWAP1 PUSH2 0x2BF1 JUMP JUMPDEST PUSH2 0x1C8C JUMP JUMPDEST STOP JUMPDEST CALLVALUE DUP1 ISZERO PUSH2 0x439 JUMPI PUSH1 0x0 DUP1 REVERT JUMPDEST POP PUSH2 0x454 PUSH1 0x4 DUP1 CALLDATASIZE SUB DUP2 ADD SWAP1 PUSH2 0x44F SWAP2 SWAP1 PUSH2 0x2C1E JUMP JUMPDEST PUSH2 0x1CB8 JUMP JUMPDEST PUSH1 0x40 MLOAD PUSH2 0x463 SWAP4 SWAP3 SWAP2 SWAP1 PUSH2 0x2C71 JUMP JUMPDEST PUSH1 0x40 MLOAD DUP1 SWAP2 SUB SWAP1 RETURN JUMPDEST CALLVALUE DUP1 ISZERO PUSH2 0x478 JUMPI PUSH1 0x0 DUP1 REVERT JUMPDEST POP PUSH2 0x481 PUSH2 0x1DA8 JUMP JUMPDEST PUSH1 0x40 MLOAD PUSH2 0x48E SWAP2 SWAP1 PUSH2 0x270B JUMP JUMPDEST PUSH1 0x40 MLOAD DUP1 SWAP2 SUB SWAP1 RETURN JUMPDEST CALLVALUE DUP1 ISZERO PUSH2 0x4A3 JUMPI PUSH1 0x0 DUP1 REVERT JUMPDEST POP PUSH2 0x4BE PUSH1 0x4 DUP1 CALLDATASIZE SUB DUP2 ADD SWAP1 PUSH2 0x4B9 SWAP2 SWAP1 PUSH2 0x2BF1 JUMP JUMPDEST PUSH2 0x1DD1 JUMP JUMPDEST PUSH1 0x40 MLOAD PUSH2 0x4CB SWAP2 SWAP1 PUSH2 0x2CB7 JUMP JUMPDEST PUSH1 0x40 MLOAD DUP1 SWAP2 SUB SWAP1 RETURN JUMPDEST CALLVALUE DUP1 ISZERO PUSH2 0x4E0 JUMPI PUSH1 0x0 DUP1 REVERT JUMPDEST POP PUSH2 0x4FB PUSH1 0x4 DUP1 CALLDATASIZE SUB DUP2 ADD SWAP1 PUSH2 0x4F6 SWAP2 SWAP1 PUSH2 0x2CD2 JUMP JUMPDEST PUSH2 0x1DE9 JUMP JUMPDEST STOP JUMPDEST CALLVALUE DUP1 ISZERO PUSH2 0x509 JUMPI PUSH1 0x0 DUP1 REVERT JUMPDEST POP PUSH2 0x524 PUSH1 0x4 DUP1 CALLDATASIZE SUB DUP2 ADD SWAP1 PUSH2 0x51F SWAP2 SWAP1 PUSH2 0x269D JUMP JUMPDEST PUSH2 0x1F41 JUMP JUMPDEST PUSH1 0x40 MLOAD PUSH2 0x531 SWAP2 SWAP1 PUSH2 0x2745 JUMP JUMPDEST PUSH1 0x40 MLOAD DUP1 SWAP2 SUB SWAP1 RETURN JUMPDEST CALLVALUE DUP1 ISZERO PUSH2 0x546 JUMPI PUSH1 0x0 DUP1 REVERT JUMPDEST POP PUSH2 0x561 PUSH1 0x4 DUP1 CALLDATASIZE SUB DUP2 ADD SWAP1 PUSH2 0x55C SWAP2 SWAP1 PUSH2 0x2BF1 JUMP JUMPDEST PUSH2 0x1F64 JUMP JUMPDEST PUSH1 0x40 MLOAD PUSH2 0x56E SWAP2 SWAP1 PUSH2 0x270B JUMP JUMPDEST PUSH1 0x40 MLOAD DUP1 SWAP2 SUB SWAP1 RETURN JUMPDEST CALLVALUE DUP1 ISZERO PUSH2 0x583 JUMPI PUSH1 0x0 DUP1 REVERT JUMPDEST POP PUSH2 0x58C PUSH2 0x1F97 JUMP JUMPDEST PUSH1 0x40 MLOAD PUSH2 0x599 SWAP2 SWAP1 PUSH2 0x270B JUMP JUMPDEST PUSH1 0x40 MLOAD DUP1 SWAP2 SUB SWAP1 RETURN JUMPDEST CALLVALUE DUP1 ISZERO PUSH2 0x5AE JUMPI PUSH1 0x0 DUP1 REVERT JUMPDEST POP PUSH2 0x5C9 PUSH1 0x4 DUP1 CALLDATASIZE SUB DUP2 ADD SWAP1 PUSH2 0x5C4 SWAP2 SWAP1 PUSH2 0x2BF1 JUMP JUMPDEST PUSH2 0x1FBD JUMP JUMPDEST PUSH1 0x40 MLOAD PUSH2 0x5D6 SWAP2 SWAP1 PUSH2 0x270B JUMP JUMPDEST PUSH1 0x40 MLOAD DUP1 SWAP2 SUB SWAP1 RETURN JUMPDEST CALLVALUE DUP1 ISZERO PUSH2 0x5EB JUMPI PUSH1 0x0 DUP1 REVERT JUMPDEST POP PUSH2 0x606 PUSH1 0x4 DUP1 CALLDATASIZE SUB DUP2 ADD SWAP1 PUSH2 0x601 SWAP2 SWAP1 PUSH2 0x2D12 JUMP JUMPDEST PUSH2 0x1FF0 JUMP JUMPDEST STOP JUMPDEST CALLVALUE DUP1 ISZERO PUSH2 0x614 JUMPI PUSH1 0x0 DUP1 REVERT JUMPDEST POP PUSH2 0x62F PUSH1 0x4 DUP1 CALLDATASIZE SUB DUP2 ADD SWAP1 PUSH2 0x62A SWAP2 SWAP1 PUSH2 0x2D9F JUMP JUMPDEST PUSH2 0x2208 JUMP JUMPDEST STOP JUMPDEST PUSH1 0x3 PUSH1 0x20 MSTORE DUP1 PUSH1 0x0 MSTORE PUSH1 0x40 PUSH1 0x0 KECCAK256 PUSH1 0x0 SWAP2 POP SLOAD SWAP1 PUSH2 0x100 EXP SWAP1 DIV PUSH20 0xFFFFFFFFFFFFFFFFFFFFFFFFFFFFFFFFFFFFFFFF AND DUP2 JUMP JUMPDEST PUSH1 0x2 PUSH1 0x14 SWAP1 SLOAD SWAP1 PUSH2 0x100 EXP SWAP1 DIV PUSH4 0xFFFFFFFF AND DUP2 JUMP JUMPDEST PUSH2 0x682 PUSH2 0x228C JUMP JUMPDEST DUP1 PUSH1 0x9 PUSH1 0x0 DUP5 PUSH4 0xFFFFFFFF AND PUSH4 0xFFFFFFFF AND DUP2 MSTORE PUSH1 0x20 ADD SWAP1 DUP2 MSTORE PUSH1 0x20 ADD PUSH1 0x0 KECCAK256 PUSH1 0x0 PUSH2 0x100 EXP DUP2 SLOAD DUP2 PUSH20 0xFFFFFFFFFFFFFFFFFFFFFFFFFFFFFFFFFFFFFFFF MUL NOT AND SWAP1 DUP4 PUSH20 0xFFFFFFFFFFFFFFFFFFFFFFFFFFFFFFFFFFFFFFFF AND MUL OR SWAP1 SSTORE POP POP POP JUMP JUMPDEST PUSH1 0x6 PUSH1 0x20 MSTORE DUP1 PUSH1 0x0 MSTORE PUSH1 0x40 PUSH1 0x0 KECCAK256 PUSH1 0x0 SWAP2 POP SWAP1 POP SLOAD DUP2 JUMP JUMPDEST PUSH1 0x0 PUSH20 0xFFFFFFFFFFFFFFFFFFFFFFFFFFFFFFFFFFFFFFFF AND PUSH1 0x8 PUSH1 0x0 DUP4 PUSH4 0xFFFFFFFF AND PUSH4 0xFFFFFFFF AND DUP2 MSTORE PUSH1 0x20 ADD SWAP1 DUP2 MSTORE PUSH1 0x20 ADD PUSH1 0x0 KECCAK256 PUSH1 0x0 SWAP1 SLOAD SWAP1 PUSH2 0x100 EXP SWAP1 DIV PUSH20 0xFFFFFFFFFFFFFFFFFFFFFFFFFFFFFFFFFFFFFFFF AND PUSH20 0xFFFFFFFFFFFFFFFFFFFFFFFFFFFFFFFFFFFFFFFF AND EQ ISZERO PUSH2 0x7AB JUMPI PUSH1 0x40 MLOAD PUSH32 0x8C379A000000000000000000000000000000000000000000000000000000000 DUP2 MSTORE PUSH1 0x4 ADD PUSH2 0x7A2 SWAP1 PUSH2 0x2E29 JUMP JUMPDEST PUSH1 0x40 MLOAD DUP1 SWAP2 SUB SWAP1 REVERT JUMPDEST PUSH1 0x0 DUP7 DUP6 DUP6 DUP6 PUSH1 0x40 MLOAD PUSH1 0x20 ADD PUSH2 0x7C4 SWAP5 SWAP4 SWAP3 SWAP2 SWAP1 PUSH2 0x2F11 JUMP JUMPDEST PUSH1 0x40 MLOAD PUSH1 0x20 DUP2 DUP4 SUB SUB DUP2 MSTORE SWAP1 PUSH1 0x40 MSTORE DUP1 MLOAD SWAP1 PUSH1 0x20 ADD KECCAK256 SWAP1 POP PUSH1 0x0 PUSH1 0x4 PUSH1 0x0 DUP4 DUP2 MSTORE PUSH1 0x20 ADD SWAP1 DUP2 MSTORE PUSH1 0x20 ADD PUSH1 0x0 KECCAK256 SLOAD EQ ISZERO DUP1 PUSH2 0x829 JUMPI POP PUSH1 0x0 PUSH1 0x5 PUSH1 0x0 DUP4 DUP2 MSTORE PUSH1 0x20 ADD SWAP1 DUP2 MSTORE PUSH1 0x20 ADD PUSH1 0x0 KECCAK256 PUSH1 0x0 SWAP1 SLOAD SWAP1 PUSH2 0x100 EXP SWAP1 DIV PUSH4 0xFFFFFFFF AND PUSH4 0xFFFFFFFF AND EQ ISZERO JUMPDEST PUSH2 0x832 JUMPI PUSH1 0x0 DUP1 REVERT JUMPDEST PUSH1 0x5 PUSH1 0x0 DUP3 DUP2 MSTORE PUSH1 0x20 ADD SWAP1 DUP2 MSTORE PUSH1 0x20 ADD PUSH1 0x0 KECCAK256 PUSH1 0x0 SWAP1 SLOAD SWAP1 PUSH2 0x100 EXP SWAP1 DIV PUSH4 0xFFFFFFFF AND PUSH4 0xFFFFFFFF AND DUP3 PUSH4 0xFFFFFFFF AND EQ ISZERO PUSH2 0x92C JUMPI CALLVALUE PUSH1 0x4 PUSH1 0x0 DUP4 DUP2 MSTORE PUSH1 0x20 ADD SWAP1 DUP2 MSTORE PUSH1 0x20 ADD PUSH1 0x0 KECCAK256 SLOAD GT ISZERO PUSH2 0x889 JUMPI PUSH1 0x0 DUP1 REVERT JUMPDEST PUSH1 0x0 DUP8 DUP7 DUP7 CALLER PUSH1 0x40 MLOAD PUSH1 0x20 ADD PUSH2 0x8A2 SWAP5 SWAP4 SWAP3 SWAP2 SWAP1 PUSH2 0x2F5F JUMP JUMPDEST PUSH1 0x40 MLOAD PUSH1 0x20 DUP2 DUP4 SUB SUB DUP2 MSTORE SWAP1 PUSH1 0x40 MSTORE DUP1 MLOAD SWAP1 PUSH1 0x20 ADD KECCAK256 SWAP1 POP CALLVALUE PUSH1 0x6 PUSH1 0x0 DUP4 DUP2 MSTORE PUSH1 0x20 ADD SWAP1 DUP2 MSTORE PUSH1 0x20 ADD PUSH1 0x0 KECCAK256 DUP2 SWAP1 SSTORE POP PUSH2 0x91A DUP9 DUP9 DUP9 DUP9 CALLER CALLVALUE DUP10 PUSH1 0x2 PUSH1 0x14 SWAP1 SLOAD SWAP1 PUSH2 0x100 EXP SWAP1 DIV PUSH4 0xFFFFFFFF AND ADDRESS PUSH1 0x40 MLOAD PUSH1 0x20 ADD PUSH2 0x906 SWAP8 SWAP7 SWAP6 SWAP5 SWAP4 SWAP3 SWAP2 SWAP1 PUSH2 0x2FF0 JUMP JUMPDEST PUSH1 0x40 MLOAD PUSH1 0x20 DUP2 DUP4 SUB SUB DUP2 MSTORE SWAP1 PUSH1 0x40 MSTORE PUSH2 0x230A JUMP JUMPDEST PUSH2 0x926 DUP9 DUP8 DUP8 DUP8 PUSH2 0x23C9 JUMP JUMPDEST POP PUSH2 0xBA8 JUMP JUMPDEST PUSH1 0x0 PUSH1 0x8 PUSH1 0x0 DUP5 PUSH4 0xFFFFFFFF AND PUSH4 0xFFFFFFFF AND DUP2 MSTORE PUSH1 0x20 ADD SWAP1 DUP2 MSTORE PUSH1 0x20 ADD PUSH1 0x0 KECCAK256 PUSH1 0x0 SWAP1 SLOAD SWAP1 PUSH2 0x100 EXP SWAP1 DIV PUSH20 0xFFFFFFFFFFFFFFFFFFFFFFFFFFFFFFFFFFFFFFFF AND SWAP1 POP PUSH1 0x0 PUSH1 0x8 PUSH1 0x0 PUSH1 0x5 PUSH1 0x0 DUP7 DUP2 MSTORE PUSH1 0x20 ADD SWAP1 DUP2 MSTORE PUSH1 0x20 ADD PUSH1 0x0 KECCAK256 PUSH1 0x0 SWAP1 SLOAD SWAP1 PUSH2 0x100 EXP SWAP1 DIV PUSH4 0xFFFFFFFF AND PUSH4 0xFFFFFFFF AND PUSH4 0xFFFFFFFF AND DUP2 MSTORE PUSH1 0x20 ADD SWAP1 DUP2 MSTORE PUSH1 0x20 ADD PUSH1 0x0 KECCAK256 PUSH1 0x0 SWAP1 SLOAD SWAP1 PUSH2 0x100 EXP SWAP1 DIV PUSH20 0xFFFFFFFFFFFFFFFFFFFFFFFFFFFFFFFFFFFFFFFF AND SWAP1 POP PUSH1 0x0 DUP3 PUSH20 0xFFFFFFFFFFFFFFFFFFFFFFFFFFFFFFFFFFFFFFFF AND PUSH4 0xFEAF968C PUSH1 0x40 MLOAD DUP2 PUSH4 0xFFFFFFFF AND PUSH1 0xE0 SHL DUP2 MSTORE PUSH1 0x4 ADD PUSH1 0xA0 PUSH1 0x40 MLOAD DUP1 DUP4 SUB DUP2 DUP7 DUP1 EXTCODESIZE ISZERO DUP1 ISZERO PUSH2 0xA1F JUMPI PUSH1 0x0 DUP1 REVERT JUMPDEST POP GAS STATICCALL ISZERO DUP1 ISZERO PUSH2 0xA33 JUMPI RETURNDATASIZE PUSH1 0x0 DUP1 RETURNDATACOPY RETURNDATASIZE PUSH1 0x0 REVERT JUMPDEST POP POP POP POP PUSH1 0x40 MLOAD RETURNDATASIZE PUSH1 0x1F NOT PUSH1 0x1F DUP3 ADD AND DUP3 ADD DUP1 PUSH1 0x40 MSTORE POP DUP2 ADD SWAP1 PUSH2 0xA57 SWAP2 SWAP1 PUSH2 0x3100 JUMP JUMPDEST POP POP POP SWAP2 POP POP PUSH1 0x0 DUP3 PUSH20 0xFFFFFFFFFFFFFFFFFFFFFFFFFFFFFFFFFFFFFFFF AND PUSH4 0xFEAF968C PUSH1 0x40 MLOAD DUP2 PUSH4 0xFFFFFFFF AND PUSH1 0xE0 SHL DUP2 MSTORE PUSH1 0x4 ADD PUSH1 0xA0 PUSH1 0x40 MLOAD DUP1 DUP4 SUB DUP2 DUP7 DUP1 EXTCODESIZE ISZERO DUP1 ISZERO PUSH2 0xAA5 JUMPI PUSH1 0x0 DUP1 REVERT JUMPDEST POP GAS STATICCALL ISZERO DUP1 ISZERO PUSH2 0xAB9 JUMPI RETURNDATASIZE PUSH1 0x0 DUP1 RETURNDATACOPY RETURNDATASIZE PUSH1 0x0 REVERT JUMPDEST POP POP POP POP PUSH1 0x40 MLOAD RETURNDATASIZE PUSH1 0x1F NOT PUSH1 0x1F DUP3 ADD AND DUP3 ADD DUP1 PUSH1 0x40 MSTORE POP DUP2 ADD SWAP1 PUSH2 0xADD SWAP2 SWAP1 PUSH2 0x3100 JUMP JUMPDEST POP POP POP SWAP2 POP POP CALLVALUE DUP3 PUSH2 0xAEF SWAP2 SWAP1 PUSH2 0x31AA JUMP JUMPDEST PUSH1 0x4 PUSH1 0x0 DUP8 DUP2 MSTORE PUSH1 0x20 ADD SWAP1 DUP2 MSTORE PUSH1 0x20 ADD PUSH1 0x0 KECCAK256 SLOAD DUP3 PUSH2 0xB0E SWAP2 SWAP1 PUSH2 0x31AA JUMP JUMPDEST GT ISZERO PUSH2 0xB4F JUMPI PUSH1 0x40 MLOAD PUSH32 0x8C379A000000000000000000000000000000000000000000000000000000000 DUP2 MSTORE PUSH1 0x4 ADD PUSH2 0xB46 SWAP1 PUSH2 0x3276 JUMP JUMPDEST PUSH1 0x40 MLOAD DUP1 SWAP2 SUB SWAP1 REVERT JUMPDEST PUSH2 0xB97 DUP12 DUP12 DUP12 DUP12 CALLER CALLVALUE DUP13 PUSH1 0x2 PUSH1 0x14 SWAP1 SLOAD SWAP1 PUSH2 0x100 EXP SWAP1 DIV PUSH4 0xFFFFFFFF AND ADDRESS PUSH1 0x40 MLOAD PUSH1 0x20 ADD PUSH2 0xB83 SWAP8 SWAP7 SWAP6 SWAP5 SWAP4 SWAP3 SWAP2 SWAP1 PUSH2 0x2FF0 JUMP JUMPDEST PUSH1 0x40 MLOAD PUSH1 0x20 DUP2 DUP4 SUB SUB DUP2 MSTORE SWAP1 PUSH1 0x40 MSTORE PUSH2 0x230A JUMP JUMPDEST PUSH2 0xBA3 DUP12 DUP11 DUP11 DUP11 PUSH2 0x23C9 JUMP JUMPDEST POP POP POP POP JUMPDEST PUSH32 0xBE39BCB4B5645CE3E99DC49D095DB856201DB6AF874A4D39B96CD1ED4A06A11D DUP6 DUP6 DUP6 PUSH1 0x4 PUSH1 0x0 DUP7 DUP2 MSTORE PUSH1 0x20 ADD SWAP1 DUP2 MSTORE PUSH1 0x20 ADD PUSH1 0x0 KECCAK256 SLOAD PUSH1 0x40 MLOAD PUSH2 0xBF0 SWAP5 SWAP4 SWAP3 SWAP2 SWAP1 PUSH2 0x32F5 JUMP JUMPDEST PUSH1 0x40 MLOAD DUP1 SWAP2 SUB SWAP1 LOG1 POP POP POP POP POP POP POP JUMP JUMPDEST PUSH1 0x4 PUSH1 0x20 MSTORE DUP1 PUSH1 0x0 MSTORE PUSH1 0x40 PUSH1 0x0 KECCAK256 PUSH1 0x0 SWAP2 POP SWAP1 POP SLOAD DUP2 JUMP JUMPDEST PUSH2 0xC21 PUSH2 0x228C JUMP JUMPDEST DUP1 PUSH1 0x8 PUSH1 0x0 DUP5 PUSH4 0xFFFFFFFF AND PUSH4 0xFFFFFFFF AND DUP2 MSTORE PUSH1 0x20 ADD SWAP1 DUP2 MSTORE PUSH1 0x20 ADD PUSH1 0x0 KECCAK256 PUSH1 0x0 PUSH2 0x100 EXP DUP2 SLOAD DUP2 PUSH20 0xFFFFFFFFFFFFFFFFFFFFFFFFFFFFFFFFFFFFFFFF MUL NOT AND SWAP1 DUP4 PUSH20 0xFFFFFFFFFFFFFFFFFFFFFFFFFFFFFFFFFFFFFFFF AND MUL OR SWAP1 SSTORE POP POP POP JUMP JUMPDEST DUP4 DUP4 PUSH1 0x0 DUP1 PUSH1 0x7 PUSH1 0x0 DUP6 PUSH4 0xFFFFFFFF AND PUSH4 0xFFFFFFFF AND DUP2 MSTORE PUSH1 0x20 ADD SWAP1 DUP2 MSTORE PUSH1 0x20 ADD PUSH1 0x0 KECCAK256 SLOAD SWAP1 POP DUP1 DUP4 EQ ISZERO PUSH2 0xCB7 JUMPI PUSH1 0x1 SWAP2 POP JUMPDEST PUSH1 0x0 DUP1 PUSH1 0x0 DUP1 PUSH1 0x0 DUP1 PUSH1 0x0 DUP1 DUP14 DUP14 DUP2 ADD SWAP1 PUSH2 0xCD2 SWAP2 SWAP1 PUSH2 0x347B JUMP JUMPDEST SWAP8 POP SWAP8 POP SWAP8 POP SWAP8 POP SWAP8 POP SWAP8 POP SWAP8 POP SWAP8 POP PUSH1 0x0 DUP3 DUP9 DUP9 DUP9 PUSH1 0x40 MLOAD PUSH1 0x20 ADD PUSH2 0xCFB SWAP5 SWAP4 SWAP3 SWAP2 SWAP1 PUSH2 0x354D JUMP JUMPDEST PUSH1 0x40 MLOAD PUSH1 0x20 DUP2 DUP4 SUB SUB DUP2 MSTORE SWAP1 PUSH1 0x40 MSTORE DUP1 MLOAD SWAP1 PUSH1 0x20 ADD KECCAK256 SWAP1 POP PUSH1 0x0 PUSH1 0x3 PUSH1 0x0 PUSH1 0x2 PUSH1 0x14 SWAP1 SLOAD SWAP1 PUSH2 0x100 EXP SWAP1 DIV PUSH4 0xFFFFFFFF AND DUP12 DUP12 PUSH1 0x40 MLOAD PUSH1 0x20 ADD PUSH2 0xD40 SWAP4 SWAP3 SWAP2 SWAP1 PUSH2 0x359B JUMP JUMPDEST PUSH1 0x40 MLOAD PUSH1 0x20 DUP2 DUP4 SUB SUB DUP2 MSTORE SWAP1 PUSH1 0x40 MSTORE DUP1 MLOAD SWAP1 PUSH1 0x20 ADD KECCAK256 DUP2 MSTORE PUSH1 0x20 ADD SWAP1 DUP2 MSTORE PUSH1 0x20 ADD PUSH1 0x0 KECCAK256 PUSH1 0x0 SWAP1 SLOAD SWAP1 PUSH2 0x100 EXP SWAP1 DIV PUSH20 0xFFFFFFFFFFFFFFFFFFFFFFFFFFFFFFFFFFFFFFFF AND SWAP1 POP PUSH1 0x0 PUSH1 0x2 PUSH1 0x14 SWAP1 SLOAD SWAP1 PUSH2 0x100 EXP SWAP1 DIV PUSH4 0xFFFFFFFF AND DUP11 DUP11 DUP5 PUSH1 0x40 MLOAD PUSH1 0x20 ADD PUSH2 0xDB2 SWAP5 SWAP4 SWAP3 SWAP2 SWAP1 PUSH2 0x354D JUMP JUMPDEST PUSH1 0x40 MLOAD PUSH1 0x20 DUP2 DUP4 SUB SUB DUP2 MSTORE SWAP1 PUSH1 0x40 MSTORE DUP1 MLOAD SWAP1 PUSH1 0x20 ADD KECCAK256 SWAP1 POP PUSH1 0x0 DUP6 DUP12 DUP12 PUSH1 0x40 MLOAD PUSH1 0x20 ADD PUSH2 0xDE1 SWAP4 SWAP3 SWAP2 SWAP1 PUSH2 0x359B JUMP JUMPDEST PUSH1 0x40 MLOAD PUSH1 0x20 DUP2 DUP4 SUB SUB DUP2 MSTORE SWAP1 PUSH1 0x40 MSTORE DUP1 MLOAD SWAP1 PUSH1 0x20 ADD KECCAK256 SWAP1 POP PUSH2 0xE38 DUP13 PUSH1 0x40 MLOAD DUP1 PUSH1 0x40 ADD PUSH1 0x40 MSTORE DUP1 PUSH1 0x7 DUP2 MSTORE PUSH1 0x20 ADD PUSH32 0x4C697374696E6700000000000000000000000000000000000000000000000000 DUP2 MSTORE POP PUSH2 0x24DC JUMP JUMPDEST ISZERO PUSH2 0xEDE JUMPI DUP9 PUSH1 0x3 PUSH1 0x0 DUP4 DUP2 MSTORE PUSH1 0x20 ADD SWAP1 DUP2 MSTORE PUSH1 0x20 ADD PUSH1 0x0 KECCAK256 PUSH1 0x0 PUSH2 0x100 EXP DUP2 SLOAD DUP2 PUSH20 0xFFFFFFFFFFFFFFFFFFFFFFFFFFFFFFFFFFFFFFFF MUL NOT AND SWAP1 DUP4 PUSH20 0xFFFFFFFFFFFFFFFFFFFFFFFFFFFFFFFFFFFFFFFF AND MUL OR SWAP1 SSTORE POP DUP8 PUSH1 0x4 PUSH1 0x0 DUP7 DUP2 MSTORE PUSH1 0x20 ADD SWAP1 DUP2 MSTORE PUSH1 0x20 ADD PUSH1 0x0 KECCAK256 DUP2 SWAP1 SSTORE POP DUP7 PUSH1 0x5 PUSH1 0x0 DUP7 DUP2 MSTORE PUSH1 0x20 ADD SWAP1 DUP2 MSTORE PUSH1 0x20 ADD PUSH1 0x0 KECCAK256 PUSH1 0x0 PUSH2 0x100 EXP DUP2 SLOAD DUP2 PUSH4 0xFFFFFFFF MUL NOT AND SWAP1 DUP4 PUSH4 0xFFFFFFFF AND MUL OR SWAP1 SSTORE POP PUSH2 0x12BD JUMP JUMPDEST PUSH2 0xF1D DUP13 PUSH1 0x40 MLOAD DUP1 PUSH1 0x40 ADD PUSH1 0x40 MSTORE DUP1 PUSH1 0x7 DUP2 MSTORE PUSH1 0x20 ADD PUSH32 0x54726164696E6700000000000000000000000000000000000000000000000000 DUP2 MSTORE POP PUSH2 0x24DC JUMP JUMPDEST ISZERO PUSH2 0x106F JUMPI PUSH1 0x0 PUSH1 0x4 PUSH1 0x0 DUP5 DUP2 MSTORE PUSH1 0x20 ADD SWAP1 DUP2 MSTORE PUSH1 0x20 ADD PUSH1 0x0 KECCAK256 SLOAD EQ DUP1 PUSH2 0xF6D JUMPI POP PUSH1 0x0 PUSH1 0x5 PUSH1 0x0 DUP5 DUP2 MSTORE PUSH1 0x20 ADD SWAP1 DUP2 MSTORE PUSH1 0x20 ADD PUSH1 0x0 KECCAK256 PUSH1 0x0 SWAP1 SLOAD SWAP1 PUSH2 0x100 EXP SWAP1 DIV PUSH4 0xFFFFFFFF AND PUSH4 0xFFFFFFFF AND EQ JUMPDEST ISZERO PUSH2 0xFB9 JUMPI PUSH2 0xFA8 DUP7 DUP7 DUP14 DUP14 DUP14 DUP14 DUP14 DUP14 DUP14 PUSH1 0x40 MLOAD PUSH1 0x20 ADD PUSH2 0xF94 SWAP8 SWAP7 SWAP6 SWAP5 SWAP4 SWAP3 SWAP2 SWAP1 PUSH2 0x3624 JUMP JUMPDEST PUSH1 0x40 MLOAD PUSH1 0x20 DUP2 DUP4 SUB SUB DUP2 MSTORE SWAP1 PUSH1 0x40 MSTORE PUSH2 0x230A JUMP JUMPDEST POP POP POP POP POP POP POP POP POP POP POP POP PUSH2 0x12CA JUMP JUMPDEST DUP11 PUSH20 0xFFFFFFFFFFFFFFFFFFFFFFFFFFFFFFFFFFFFFFFF AND PUSH4 0x23B872DD ADDRESS DUP12 DUP14 PUSH1 0x40 MLOAD DUP5 PUSH4 0xFFFFFFFF AND PUSH1 0xE0 SHL DUP2 MSTORE PUSH1 0x4 ADD PUSH2 0xFF6 SWAP4 SWAP3 SWAP2 SWAP1 PUSH2 0x36A7 JUMP JUMPDEST PUSH1 0x0 PUSH1 0x40 MLOAD DUP1 DUP4 SUB DUP2 PUSH1 0x0 DUP8 DUP1 EXTCODESIZE ISZERO DUP1 ISZERO PUSH2 0x1010 JUMPI PUSH1 0x0 DUP1 REVERT JUMPDEST POP GAS CALL ISZERO DUP1 ISZERO PUSH2 0x1024 JUMPI RETURNDATASIZE PUSH1 0x0 DUP1 RETURNDATACOPY RETURNDATASIZE PUSH1 0x0 REVERT JUMPDEST POP POP POP POP PUSH2 0x105E DUP7 DUP7 DUP14 DUP14 DUP14 DUP14 DUP14 DUP14 DUP14 PUSH1 0x40 MLOAD PUSH1 0x20 ADD PUSH2 0x104A SWAP8 SWAP7 SWAP6 SWAP5 SWAP4 SWAP3 SWAP2 SWAP1 PUSH2 0x372A JUMP JUMPDEST PUSH1 0x40 MLOAD PUSH1 0x20 DUP2 DUP4 SUB SUB DUP2 MSTORE SWAP1 PUSH1 0x40 MSTORE PUSH2 0x230A JUMP JUMPDEST PUSH2 0x106A DUP7 DUP13 DUP13 DUP7 PUSH2 0x23C9 JUMP JUMPDEST PUSH2 0x12BC JUMP JUMPDEST PUSH2 0x10AE DUP13 PUSH1 0x40 MLOAD DUP1 PUSH1 0x40 ADD PUSH1 0x40 MSTORE DUP1 PUSH1 0x7 DUP2 MSTORE PUSH1 0x20 ADD PUSH32 0x436F6E6669726D00000000000000000000000000000000000000000000000000 DUP2 MSTORE POP PUSH2 0x24DC JUMP JUMPDEST ISZERO PUSH2 0x11DD JUMPI PUSH1 0x3 PUSH1 0x0 PUSH1 0x2 PUSH1 0x14 SWAP1 SLOAD SWAP1 PUSH2 0x100 EXP SWAP1 DIV PUSH4 0xFFFFFFFF AND DUP14 DUP14 PUSH1 0x40 MLOAD PUSH1 0x20 ADD PUSH2 0x10DE SWAP4 SWAP3 SWAP2 SWAP1 PUSH2 0x359B JUMP JUMPDEST PUSH1 0x40 MLOAD PUSH1 0x20 DUP2 DUP4 SUB SUB DUP2 MSTORE SWAP1 PUSH1 0x40 MSTORE DUP1 MLOAD SWAP1 PUSH1 0x20 ADD KECCAK256 DUP2 MSTORE PUSH1 0x20 ADD SWAP1 DUP2 MSTORE PUSH1 0x20 ADD PUSH1 0x0 KECCAK256 PUSH1 0x0 SWAP1 SLOAD SWAP1 PUSH2 0x100 EXP SWAP1 DIV PUSH20 0xFFFFFFFFFFFFFFFFFFFFFFFFFFFFFFFFFFFFFFFF AND PUSH20 0xFFFFFFFFFFFFFFFFFFFFFFFFFFFFFFFFFFFFFFFF AND PUSH2 0x8FC PUSH1 0x6 PUSH1 0x0 PUSH1 0x2 PUSH1 0x14 SWAP1 SLOAD SWAP1 PUSH2 0x100 EXP SWAP1 DIV PUSH4 0xFFFFFFFF AND DUP16 DUP16 DUP16 PUSH1 0x40 MLOAD PUSH1 0x20 ADD PUSH2 0x1169 SWAP5 SWAP4 SWAP3 SWAP2 SWAP1 PUSH2 0x354D JUMP JUMPDEST PUSH1 0x40 MLOAD PUSH1 0x20 DUP2 DUP4 SUB SUB DUP2 MSTORE SWAP1 PUSH1 0x40 MSTORE DUP1 MLOAD SWAP1 PUSH1 0x20 ADD KECCAK256 DUP2 MSTORE PUSH1 0x20 ADD SWAP1 DUP2 MSTORE PUSH1 0x20 ADD PUSH1 0x0 KECCAK256 SLOAD SWAP1 DUP2 ISZERO MUL SWAP1 PUSH1 0x40 MLOAD PUSH1 0x0 PUSH1 0x40 MLOAD DUP1 DUP4 SUB DUP2 DUP6 DUP9 DUP9 CALL SWAP4 POP POP POP POP ISZERO DUP1 ISZERO PUSH2 0x11B9 JUMPI RETURNDATASIZE PUSH1 0x0 DUP1 RETURNDATACOPY RETURNDATASIZE PUSH1 0x0 REVERT JUMPDEST POP PUSH2 0x11D8 PUSH1 0x2 PUSH1 0x14 SWAP1 SLOAD SWAP1 PUSH2 0x100 EXP SWAP1 DIV PUSH4 0xFFFFFFFF AND DUP13 DUP13 DUP13 PUSH2 0x23C9 JUMP JUMPDEST PUSH2 0x12BB JUMP JUMPDEST PUSH2 0x121C DUP13 PUSH1 0x40 MLOAD DUP1 PUSH1 0x40 ADD PUSH1 0x40 MSTORE DUP1 PUSH1 0x8 DUP2 MSTORE PUSH1 0x20 ADD PUSH32 0x5265766572746564000000000000000000000000000000000000000000000000 DUP2 MSTORE POP PUSH2 0x24DC JUMP JUMPDEST ISZERO PUSH2 0x12BA JUMPI DUP9 PUSH20 0xFFFFFFFFFFFFFFFFFFFFFFFFFFFFFFFFFFFFFFFF AND PUSH2 0x8FC PUSH1 0x6 PUSH1 0x0 PUSH1 0x2 PUSH1 0x14 SWAP1 SLOAD SWAP1 PUSH2 0x100 EXP SWAP1 DIV PUSH4 0xFFFFFFFF AND DUP16 DUP16 DUP16 PUSH1 0x40 MLOAD PUSH1 0x20 ADD PUSH2 0x1268 SWAP5 SWAP4 SWAP3 SWAP2 SWAP1 PUSH2 0x354D JUMP JUMPDEST PUSH1 0x40 MLOAD PUSH1 0x20 DUP2 DUP4 SUB SUB DUP2 MSTORE SWAP1 PUSH1 0x40 MSTORE DUP1 MLOAD SWAP1 PUSH1 0x20 ADD KECCAK256 DUP2 MSTORE PUSH1 0x20 ADD SWAP1 DUP2 MSTORE PUSH1 0x20 ADD PUSH1 0x0 KECCAK256 SLOAD SWAP1 DUP2 ISZERO MUL SWAP1 PUSH1 0x40 MLOAD PUSH1 0x0 PUSH1 0x40 MLOAD DUP1 DUP4 SUB DUP2 DUP6 DUP9 DUP9 CALL SWAP4 POP POP POP POP ISZERO DUP1 ISZERO PUSH2 0x12B8 JUMPI RETURNDATASIZE PUSH1 0x0 DUP1 RETURNDATACOPY RETURNDATASIZE PUSH1 0x0 REVERT JUMPDEST POP JUMPDEST JUMPDEST JUMPDEST JUMPDEST POP POP POP POP POP POP POP POP POP POP POP POP JUMPDEST POP POP POP POP POP POP POP POP JUMP JUMPDEST PUSH2 0x12DC PUSH2 0x2631 JUMP JUMPDEST PUSH2 0x12E4 PUSH2 0x2631 JUMP JUMPDEST PUSH1 0x0 DUP9 DUP9 DUP9 DUP9 PUSH1 0x40 MLOAD PUSH1 0x20 ADD PUSH2 0x12FD SWAP5 SWAP4 SWAP3 SWAP2 SWAP1 PUSH2 0x2F11 JUMP JUMPDEST PUSH1 0x40 MLOAD PUSH1 0x20 DUP2 DUP4 SUB SUB DUP2 MSTORE SWAP1 PUSH1 0x40 MSTORE DUP1 MLOAD SWAP1 PUSH1 0x20 ADD KECCAK256 SWAP1 POP PUSH1 0x0 PUSH1 0x8 PUSH1 0x0 DUP8 PUSH4 0xFFFFFFFF AND PUSH4 0xFFFFFFFF AND DUP2 MSTORE PUSH1 0x20 ADD SWAP1 DUP2 MSTORE PUSH1 0x20 ADD PUSH1 0x0 KECCAK256 PUSH1 0x0 SWAP1 SLOAD SWAP1 PUSH2 0x100 EXP SWAP1 DIV PUSH20 0xFFFFFFFFFFFFFFFFFFFFFFFFFFFFFFFFFFFFFFFF AND SWAP1 POP PUSH1 0x0 PUSH1 0x8 PUSH1 0x0 PUSH1 0x5 PUSH1 0x0 DUP7 DUP2 MSTORE PUSH1 0x20 ADD SWAP1 DUP2 MSTORE PUSH1 0x20 ADD PUSH1 0x0 KECCAK256 PUSH1 0x0 SWAP1 SLOAD SWAP1 PUSH2 0x100 EXP SWAP1 DIV PUSH4 0xFFFFFFFF AND PUSH4 0xFFFFFFFF AND PUSH4 0xFFFFFFFF AND DUP2 MSTORE PUSH1 0x20 ADD SWAP1 DUP2 MSTORE PUSH1 0x20 ADD PUSH1 0x0 KECCAK256 PUSH1 0x0 SWAP1 SLOAD SWAP1 PUSH2 0x100 EXP SWAP1 DIV PUSH20 0xFFFFFFFFFFFFFFFFFFFFFFFFFFFFFFFFFFFFFFFF AND SWAP1 POP PUSH1 0x0 DUP3 PUSH20 0xFFFFFFFFFFFFFFFFFFFFFFFFFFFFFFFFFFFFFFFF AND PUSH4 0xFEAF968C PUSH1 0x40 MLOAD DUP2 PUSH4 0xFFFFFFFF AND PUSH1 0xE0 SHL DUP2 MSTORE PUSH1 0x4 ADD PUSH1 0xA0 PUSH1 0x40 MLOAD DUP1 DUP4 SUB DUP2 DUP7 DUP1 EXTCODESIZE ISZERO DUP1 ISZERO PUSH2 0x1408 JUMPI PUSH1 0x0 DUP1 REVERT JUMPDEST POP GAS STATICCALL ISZERO DUP1 ISZERO PUSH2 0x141C JUMPI RETURNDATASIZE PUSH1 0x0 DUP1 RETURNDATACOPY RETURNDATASIZE PUSH1 0x0 REVERT JUMPDEST POP POP POP POP PUSH1 0x40 MLOAD RETURNDATASIZE PUSH1 0x1F NOT PUSH1 0x1F DUP3 ADD AND DUP3 ADD DUP1 PUSH1 0x40 MSTORE POP DUP2 ADD SWAP1 PUSH2 0x1440 SWAP2 SWAP1 PUSH2 0x3100 JUMP JUMPDEST POP POP POP SWAP2 POP POP PUSH1 0x0 DUP3 PUSH20 0xFFFFFFFFFFFFFFFFFFFFFFFFFFFFFFFFFFFFFFFF AND PUSH4 0xFEAF968C PUSH1 0x40 MLOAD DUP2 PUSH4 0xFFFFFFFF AND PUSH1 0xE0 SHL DUP2 MSTORE PUSH1 0x4 ADD PUSH1 0xA0 PUSH1 0x40 MLOAD DUP1 DUP4 SUB DUP2 DUP7 DUP1 EXTCODESIZE ISZERO DUP1 ISZERO PUSH2 0x148E JUMPI PUSH1 0x0 DUP1 REVERT JUMPDEST POP GAS STATICCALL ISZERO DUP1 ISZERO PUSH2 0x14A2 JUMPI RETURNDATASIZE PUSH1 0x0 DUP1 RETURNDATACOPY RETURNDATASIZE PUSH1 0x0 REVERT JUMPDEST POP POP POP POP PUSH1 0x40 MLOAD RETURNDATASIZE PUSH1 0x1F NOT PUSH1 0x1F DUP3 ADD AND DUP3 ADD DUP1 PUSH1 0x40 MSTORE POP DUP2 ADD SWAP1 PUSH2 0x14C6 SWAP2 SWAP1 PUSH2 0x3100 JUMP JUMPDEST POP POP POP SWAP2 POP POP PUSH1 0x4 PUSH1 0x0 DUP7 DUP2 MSTORE PUSH1 0x20 ADD SWAP1 DUP2 MSTORE PUSH1 0x20 ADD PUSH1 0x0 KECCAK256 SLOAD DUP2 PUSH2 0x14EB SWAP2 SWAP1 PUSH2 0x31AA JUMP JUMPDEST DUP7 PUSH1 0x0 PUSH1 0x2 DUP2 LT PUSH2 0x14FF JUMPI PUSH2 0x14FE PUSH2 0x37AD JUMP JUMPDEST JUMPDEST PUSH1 0x20 MUL ADD DUP2 DUP2 MSTORE POP POP DUP8 DUP3 PUSH2 0x1514 SWAP2 SWAP1 PUSH2 0x31AA JUMP JUMPDEST DUP7 PUSH1 0x1 PUSH1 0x2 DUP2 LT PUSH2 0x1528 JUMPI PUSH2 0x1527 PUSH2 0x37AD JUMP JUMPDEST JUMPDEST PUSH1 0x20 MUL ADD DUP2 DUP2 MSTORE POP POP DUP6 SWAP7 POP POP POP POP POP POP POP SWAP7 SWAP6 POP POP POP POP POP POP JUMP JUMPDEST PUSH2 0x154C PUSH2 0x228C JUMP JUMPDEST PUSH2 0x1555 DUP2 PUSH2 0x2535 JUMP JUMPDEST PUSH1 0x7 PUSH1 0x0 DUP5 PUSH4 0xFFFFFFFF AND PUSH4 0xFFFFFFFF AND DUP2 MSTORE PUSH1 0x20 ADD SWAP1 DUP2 MSTORE PUSH1 0x20 ADD PUSH1 0x0 KECCAK256 DUP2 SWAP1 SSTORE POP POP POP JUMP JUMPDEST PUSH2 0x1584 PUSH2 0x228C JUMP JUMPDEST PUSH2 0x158E PUSH1 0x0 PUSH2 0x2558 JUMP JUMPDEST JUMP JUMPDEST PUSH1 0x0 PUSH20 0xFFFFFFFFFFFFFFFFFFFFFFFFFFFFFFFFFFFFFFFF AND PUSH1 0x8 PUSH1 0x0 DUP5 PUSH4 0xFFFFFFFF AND PUSH4 0xFFFFFFFF AND DUP2 MSTORE PUSH1 0x20 ADD SWAP1 DUP2 MSTORE PUSH1 0x20 ADD PUSH1 0x0 KECCAK256 PUSH1 0x0 SWAP1 SLOAD SWAP1 PUSH2 0x100 EXP SWAP1 DIV PUSH20 0xFFFFFFFFFFFFFFFFFFFFFFFFFFFFFFFFFFFFFFFF AND PUSH20 0xFFFFFFFFFFFFFFFFFFFFFFFFFFFFFFFFFFFFFFFF AND EQ ISZERO PUSH2 0x163F JUMPI PUSH1 0x40 MLOAD PUSH32 0x8C379A000000000000000000000000000000000000000000000000000000000 DUP2 MSTORE PUSH1 0x4 ADD PUSH2 0x1636 SWAP1 PUSH2 0x2E29 JUMP JUMPDEST PUSH1 0x40 MLOAD DUP1 SWAP2 SUB SWAP1 REVERT JUMPDEST PUSH1 0x0 DUP8 DUP7 DUP7 DUP7 PUSH1 0x40 MLOAD PUSH1 0x20 ADD PUSH2 0x1658 SWAP5 SWAP4 SWAP3 SWAP2 SWAP1 PUSH2 0x2F11 JUMP JUMPDEST PUSH1 0x40 MLOAD PUSH1 0x20 DUP2 DUP4 SUB SUB DUP2 MSTORE SWAP1 PUSH1 0x40 MSTORE DUP1 MLOAD SWAP1 PUSH1 0x20 ADD KECCAK256 SWAP1 POP PUSH1 0x0 PUSH1 0x4 PUSH1 0x0 DUP4 DUP2 MSTORE PUSH1 0x20 ADD SWAP1 DUP2 MSTORE PUSH1 0x20 ADD PUSH1 0x0 KECCAK256 SLOAD EQ ISZERO DUP1 PUSH2 0x16BD JUMPI POP PUSH1 0x0 PUSH1 0x5 PUSH1 0x0 DUP4 DUP2 MSTORE PUSH1 0x20 ADD SWAP1 DUP2 MSTORE PUSH1 0x20 ADD PUSH1 0x0 KECCAK256 PUSH1 0x0 SWAP1 SLOAD SWAP1 PUSH2 0x100 EXP SWAP1 DIV PUSH4 0xFFFFFFFF AND PUSH4 0xFFFFFFFF AND EQ ISZERO JUMPDEST PUSH2 0x16C6 JUMPI PUSH1 0x0 DUP1 REVERT JUMPDEST PUSH1 0x5 PUSH1 0x0 DUP3 DUP2 MSTORE PUSH1 0x20 ADD SWAP1 DUP2 MSTORE PUSH1 0x20 ADD PUSH1 0x0 KECCAK256 PUSH1 0x0 SWAP1 SLOAD SWAP1 PUSH2 0x100 EXP SWAP1 DIV PUSH4 0xFFFFFFFF AND PUSH4 0xFFFFFFFF AND DUP4 PUSH4 0xFFFFFFFF AND EQ ISZERO PUSH2 0x1859 JUMPI DUP2 PUSH1 0x4 PUSH1 0x0 DUP4 DUP2 MSTORE PUSH1 0x20 ADD SWAP1 DUP2 MSTORE PUSH1 0x20 ADD PUSH1 0x0 KECCAK256 SLOAD GT ISZERO PUSH2 0x171D JUMPI PUSH1 0x0 DUP1 REVERT JUMPDEST PUSH1 0x9 PUSH1 0x0 DUP5 PUSH4 0xFFFFFFFF AND PUSH4 0xFFFFFFFF AND DUP2 MSTORE PUSH1 0x20 ADD SWAP1 DUP2 MSTORE PUSH1 0x20 ADD PUSH1 0x0 KECCAK256 PUSH1 0x0 SWAP1 SLOAD SWAP1 PUSH2 0x100 EXP SWAP1 DIV PUSH20 0xFFFFFFFFFFFFFFFFFFFFFFFFFFFFFFFFFFFFFFFF AND PUSH20 0xFFFFFFFFFFFFFFFFFFFFFFFFFFFFFFFFFFFFFFFF AND PUSH4 0x23B872DD CALLER ADDRESS PUSH1 0x4 PUSH1 0x0 DUP7 DUP2 MSTORE PUSH1 0x20 ADD SWAP1 DUP2 MSTORE PUSH1 0x20 ADD PUSH1 0x0 KECCAK256 SLOAD PUSH1 0x40 MLOAD DUP5 PUSH4 0xFFFFFFFF AND PUSH1 0xE0 SHL DUP2 MSTORE PUSH1 0x4 ADD PUSH2 0x17AC SWAP4 SWAP3 SWAP2 SWAP1 PUSH2 0x36A7 JUMP JUMPDEST PUSH1 0x20 PUSH1 0x40 MLOAD DUP1 DUP4 SUB DUP2 PUSH1 0x0 DUP8 DUP1 EXTCODESIZE ISZERO DUP1 ISZERO PUSH2 0x17C6 JUMPI PUSH1 0x0 DUP1 REVERT JUMPDEST POP GAS CALL ISZERO DUP1 ISZERO PUSH2 0x17DA JUMPI RETURNDATASIZE PUSH1 0x0 DUP1 RETURNDATACOPY RETURNDATASIZE PUSH1 0x0 REVERT JUMPDEST POP POP POP POP PUSH1 0x40 MLOAD RETURNDATASIZE PUSH1 0x1F NOT PUSH1 0x1F DUP3 ADD AND DUP3 ADD DUP1 PUSH1 0x40 MSTORE POP DUP2 ADD SWAP1 PUSH2 0x17FE SWAP2 SWAP1 PUSH2 0x3814 JUMP JUMPDEST POP PUSH2 0x1848 DUP9 DUP9 DUP9 DUP9 CALLER PUSH1 0x0 DUP1 PUSH1 0x2 PUSH1 0x14 SWAP1 SLOAD SWAP1 PUSH2 0x100 EXP SWAP1 DIV PUSH4 0xFFFFFFFF AND ADDRESS PUSH1 0x40 MLOAD PUSH1 0x20 ADD PUSH2 0x1834 SWAP8 SWAP7 SWAP6 SWAP5 SWAP4 SWAP3 SWAP2 SWAP1 PUSH2 0x3889 JUMP JUMPDEST PUSH1 0x40 MLOAD PUSH1 0x20 DUP2 DUP4 SUB SUB DUP2 MSTORE SWAP1 PUSH1 0x40 MSTORE PUSH2 0x230A JUMP JUMPDEST PUSH2 0x1854 DUP9 DUP8 DUP8 DUP8 PUSH2 0x23C9 JUMP JUMPDEST PUSH2 0x1BB8 JUMP JUMPDEST PUSH1 0x0 PUSH1 0x8 PUSH1 0x0 DUP6 PUSH4 0xFFFFFFFF AND PUSH4 0xFFFFFFFF AND DUP2 MSTORE PUSH1 0x20 ADD SWAP1 DUP2 MSTORE PUSH1 0x20 ADD PUSH1 0x0 KECCAK256 PUSH1 0x0 SWAP1 SLOAD SWAP1 PUSH2 0x100 EXP SWAP1 DIV PUSH20 0xFFFFFFFFFFFFFFFFFFFFFFFFFFFFFFFFFFFFFFFF AND SWAP1 POP PUSH1 0x0 PUSH1 0x8 PUSH1 0x0 PUSH1 0x5 PUSH1 0x0 DUP7 DUP2 MSTORE PUSH1 0x20 ADD SWAP1 DUP2 MSTORE PUSH1 0x20 ADD PUSH1 0x0 KECCAK256 PUSH1 0x0 SWAP1 SLOAD SWAP1 PUSH2 0x100 EXP SWAP1 DIV PUSH4 0xFFFFFFFF AND PUSH4 0xFFFFFFFF AND PUSH4 0xFFFFFFFF AND DUP2 MSTORE PUSH1 0x20 ADD SWAP1 DUP2 MSTORE PUSH1 0x20 ADD PUSH1 0x0 KECCAK256 PUSH1 0x0 SWAP1 SLOAD SWAP1 PUSH2 0x100 EXP SWAP1 DIV PUSH20 0xFFFFFFFFFFFFFFFFFFFFFFFFFFFFFFFFFFFFFFFF AND SWAP1 POP PUSH1 0x0 DUP3 PUSH20 0xFFFFFFFFFFFFFFFFFFFFFFFFFFFFFFFFFFFFFFFF AND PUSH4 0xFEAF968C PUSH1 0x40 MLOAD DUP2 PUSH4 0xFFFFFFFF AND PUSH1 0xE0 SHL DUP2 MSTORE PUSH1 0x4 ADD PUSH1 0xA0 PUSH1 0x40 MLOAD DUP1 DUP4 SUB DUP2 DUP7 DUP1 EXTCODESIZE ISZERO DUP1 ISZERO PUSH2 0x194C JUMPI PUSH1 0x0 DUP1 REVERT JUMPDEST POP GAS STATICCALL ISZERO DUP1 ISZERO PUSH2 0x1960 JUMPI RETURNDATASIZE PUSH1 0x0 DUP1 RETURNDATACOPY RETURNDATASIZE PUSH1 0x0 REVERT JUMPDEST POP POP POP POP PUSH1 0x40 MLOAD RETURNDATASIZE PUSH1 0x1F NOT PUSH1 0x1F DUP3 ADD AND DUP3 ADD DUP1 PUSH1 0x40 MSTORE POP DUP2 ADD SWAP1 PUSH2 0x1984 SWAP2 SWAP1 PUSH2 0x3100 JUMP JUMPDEST POP POP POP SWAP2 POP POP PUSH1 0x0 DUP3 PUSH20 0xFFFFFFFFFFFFFFFFFFFFFFFFFFFFFFFFFFFFFFFF AND PUSH4 0xFEAF968C PUSH1 0x40 MLOAD DUP2 PUSH4 0xFFFFFFFF AND PUSH1 0xE0 SHL DUP2 MSTORE PUSH1 0x4 ADD PUSH1 0xA0 PUSH1 0x40 MLOAD DUP1 DUP4 SUB DUP2 DUP7 DUP1 EXTCODESIZE ISZERO DUP1 ISZERO PUSH2 0x19D2 JUMPI PUSH1 0x0 DUP1 REVERT JUMPDEST POP GAS STATICCALL ISZERO DUP1 ISZERO PUSH2 0x19E6 JUMPI RETURNDATASIZE PUSH1 0x0 DUP1 RETURNDATACOPY RETURNDATASIZE PUSH1 0x0 REVERT JUMPDEST POP POP POP POP PUSH1 0x40 MLOAD RETURNDATASIZE PUSH1 0x1F NOT PUSH1 0x1F DUP3 ADD AND DUP3 ADD DUP1 PUSH1 0x40 MSTORE POP DUP2 ADD SWAP1 PUSH2 0x1A0A SWAP2 SWAP1 PUSH2 0x3100 JUMP JUMPDEST POP POP POP SWAP2 POP POP DUP6 DUP3 PUSH2 0x1A1C SWAP2 SWAP1 PUSH2 0x31AA JUMP JUMPDEST PUSH1 0x4 PUSH1 0x0 DUP8 DUP2 MSTORE PUSH1 0x20 ADD SWAP1 DUP2 MSTORE PUSH1 0x20 ADD PUSH1 0x0 KECCAK256 SLOAD DUP3 PUSH2 0x1A3B SWAP2 SWAP1 PUSH2 0x31AA JUMP JUMPDEST GT ISZERO PUSH2 0x1A7C JUMPI PUSH1 0x40 MLOAD PUSH32 0x8C379A000000000000000000000000000000000000000000000000000000000 DUP2 MSTORE PUSH1 0x4 ADD PUSH2 0x1A73 SWAP1 PUSH2 0x3276 JUMP JUMPDEST PUSH1 0x40 MLOAD DUP1 SWAP2 SUB SWAP1 REVERT JUMPDEST PUSH1 0x9 PUSH1 0x0 DUP9 PUSH4 0xFFFFFFFF AND PUSH4 0xFFFFFFFF AND DUP2 MSTORE PUSH1 0x20 ADD SWAP1 DUP2 MSTORE PUSH1 0x20 ADD PUSH1 0x0 KECCAK256 PUSH1 0x0 SWAP1 SLOAD SWAP1 PUSH2 0x100 EXP SWAP1 DIV PUSH20 0xFFFFFFFFFFFFFFFFFFFFFFFFFFFFFFFFFFFFFFFF AND PUSH20 0xFFFFFFFFFFFFFFFFFFFFFFFFFFFFFFFFFFFFFFFF AND PUSH4 0x23B872DD CALLER ADDRESS PUSH1 0x4 PUSH1 0x0 DUP11 DUP2 MSTORE PUSH1 0x20 ADD SWAP1 DUP2 MSTORE PUSH1 0x20 ADD PUSH1 0x0 KECCAK256 SLOAD PUSH1 0x40 MLOAD DUP5 PUSH4 0xFFFFFFFF AND PUSH1 0xE0 SHL DUP2 MSTORE PUSH1 0x4 ADD PUSH2 0x1B0B SWAP4 SWAP3 SWAP2 SWAP1 PUSH2 0x36A7 JUMP JUMPDEST PUSH1 0x20 PUSH1 0x40 MLOAD DUP1 DUP4 SUB DUP2 PUSH1 0x0 DUP8 DUP1 EXTCODESIZE ISZERO DUP1 ISZERO PUSH2 0x1B25 JUMPI PUSH1 0x0 DUP1 REVERT JUMPDEST POP GAS CALL ISZERO DUP1 ISZERO PUSH2 0x1B39 JUMPI RETURNDATASIZE PUSH1 0x0 DUP1 RETURNDATACOPY RETURNDATASIZE PUSH1 0x0 REVERT JUMPDEST POP POP POP POP PUSH1 0x40 MLOAD RETURNDATASIZE PUSH1 0x1F NOT PUSH1 0x1F DUP3 ADD AND DUP3 ADD DUP1 PUSH1 0x40 MSTORE POP DUP2 ADD SWAP1 PUSH2 0x1B5D SWAP2 SWAP1 PUSH2 0x3814 JUMP JUMPDEST POP PUSH2 0x1BA7 DUP13 DUP13 DUP13 DUP13 CALLER PUSH1 0x0 DUP1 PUSH1 0x2 PUSH1 0x14 SWAP1 SLOAD SWAP1 PUSH2 0x100 EXP SWAP1 DIV PUSH4 0xFFFFFFFF AND ADDRESS PUSH1 0x40 MLOAD PUSH1 0x20 ADD PUSH2 0x1B93 SWAP8 SWAP7 SWAP6 SWAP5 SWAP4 SWAP3 SWAP2 SWAP1 PUSH2 0x3889 JUMP JUMPDEST PUSH1 0x40 MLOAD PUSH1 0x20 DUP2 DUP4 SUB SUB DUP2 MSTORE SWAP1 PUSH1 0x40 MSTORE PUSH2 0x230A JUMP JUMPDEST PUSH2 0x1BB3 DUP13 DUP12 DUP12 DUP12 PUSH2 0x23C9 JUMP JUMPDEST POP POP POP POP JUMPDEST PUSH32 0xBE39BCB4B5645CE3E99DC49D095DB856201DB6AF874A4D39B96CD1ED4A06A11D DUP7 DUP7 DUP7 PUSH1 0x4 PUSH1 0x0 DUP7 DUP2 MSTORE PUSH1 0x20 ADD SWAP1 DUP2 MSTORE PUSH1 0x20 ADD PUSH1 0x0 KECCAK256 SLOAD PUSH1 0x40 MLOAD PUSH2 0x1C00 SWAP5 SWAP4 SWAP3 SWAP2 SWAP1 PUSH2 0x32F5 JUMP JUMPDEST PUSH1 0x40 MLOAD DUP1 SWAP2 SUB SWAP1 LOG1 POP POP POP POP POP POP POP POP JUMP JUMPDEST PUSH1 0x0 PUSH1 0x8 PUSH1 0x0 DUP4 PUSH4 0xFFFFFFFF AND PUSH4 0xFFFFFFFF AND DUP2 MSTORE PUSH1 0x20 ADD SWAP1 DUP2 MSTORE PUSH1 0x20 ADD PUSH1 0x0 KECCAK256 PUSH1 0x0 SWAP1 SLOAD SWAP1 PUSH2 0x100 EXP SWAP1 DIV PUSH20 0xFFFFFFFFFFFFFFFFFFFFFFFFFFFFFFFFFFFFFFFF AND SWAP1 POP SWAP2 SWAP1 POP JUMP JUMPDEST PUSH1 0x0 PUSH2 0x1C85 PUSH1 0x7 PUSH1 0x0 DUP5 PUSH4 0xFFFFFFFF AND PUSH4 0xFFFFFFFF AND DUP2 MSTORE PUSH1 0x20 ADD SWAP1 DUP2 MSTORE PUSH1 0x20 ADD PUSH1 0x0 KECCAK256 SLOAD PUSH2 0x261C JUMP JUMPDEST SWAP1 POP SWAP2 SWAP1 POP JUMP JUMPDEST PUSH2 0x1C94 PUSH2 0x228C JUMP JUMPDEST DUP1 PUSH1 0x2 PUSH1 0x14 PUSH2 0x100 EXP DUP2 SLOAD DUP2 PUSH4 0xFFFFFFFF MUL NOT AND SWAP1 DUP4 PUSH4 0xFFFFFFFF AND MUL OR SWAP1 SSTORE POP POP JUMP JUMPDEST PUSH1 0x0 DUP1 PUSH1 0x0 DUP1 DUP7 DUP7 DUP7 PUSH1 0x40 MLOAD PUSH1 0x20 ADD PUSH2 0x1CD3 SWAP4 SWAP3 SWAP2 SWAP1 PUSH2 0x359B JUMP JUMPDEST PUSH1 0x40 MLOAD PUSH1 0x20 DUP2 DUP4 SUB SUB DUP2 MSTORE SWAP1 PUSH1 0x40 MSTORE DUP1 MLOAD SWAP1 PUSH1 0x20 ADD KECCAK256 SWAP1 POP PUSH1 0x0 PUSH1 0x3 PUSH1 0x0 DUP4 DUP2 MSTORE PUSH1 0x20 ADD SWAP1 DUP2 MSTORE PUSH1 0x20 ADD PUSH1 0x0 KECCAK256 PUSH1 0x0 SWAP1 SLOAD SWAP1 PUSH2 0x100 EXP SWAP1 DIV PUSH20 0xFFFFFFFFFFFFFFFFFFFFFFFFFFFFFFFFFFFFFFFF AND SWAP1 POP DUP8 DUP8 DUP8 DUP4 PUSH1 0x40 MLOAD PUSH1 0x20 ADD PUSH2 0x1D3A SWAP5 SWAP4 SWAP3 SWAP2 SWAP1 PUSH2 0x354D JUMP JUMPDEST PUSH1 0x40 MLOAD PUSH1 0x20 DUP2 DUP4 SUB SUB DUP2 MSTORE SWAP1 PUSH1 0x40 MSTORE DUP1 MLOAD SWAP1 PUSH1 0x20 ADD KECCAK256 SWAP2 POP PUSH1 0x0 PUSH1 0x4 PUSH1 0x0 DUP5 DUP2 MSTORE PUSH1 0x20 ADD SWAP1 DUP2 MSTORE PUSH1 0x20 ADD PUSH1 0x0 KECCAK256 SLOAD SWAP1 POP PUSH1 0x0 PUSH1 0x5 PUSH1 0x0 DUP6 DUP2 MSTORE PUSH1 0x20 ADD SWAP1 DUP2 MSTORE PUSH1 0x20 ADD PUSH1 0x0 KECCAK256 PUSH1 0x0 SWAP1 SLOAD SWAP1 PUSH2 0x100 EXP SWAP1 DIV PUSH4 0xFFFFFFFF AND SWAP1 POP DUP3 DUP3 DUP3 SWAP7 POP SWAP7 POP SWAP7 POP POP POP POP POP SWAP4 POP SWAP4 POP SWAP4 SWAP1 POP JUMP JUMPDEST PUSH1 0x0 DUP1 PUSH1 0x0 SWAP1 SLOAD SWAP1 PUSH2 0x100 EXP SWAP1 DIV PUSH20 0xFFFFFFFFFFFFFFFFFFFFFFFFFFFFFFFFFFFFFFFF AND SWAP1 POP SWAP1 JUMP JUMPDEST PUSH1 0x7 PUSH1 0x20 MSTORE DUP1 PUSH1 0x0 MSTORE PUSH1 0x40 PUSH1 0x0 KECCAK256 PUSH1 0x0 SWAP2 POP SWAP1 POP SLOAD DUP2 JUMP JUMPDEST PUSH1 0x0 PUSH1 0x2 PUSH1 0x14 SWAP1 SLOAD SWAP1 PUSH2 0x100 EXP SWAP1 DIV PUSH4 0xFFFFFFFF AND DUP4 DUP4 PUSH1 0x40 MLOAD PUSH1 0x20 ADD PUSH2 0x1E12 SWAP4 SWAP3 SWAP2 SWAP1 PUSH2 0x359B JUMP JUMPDEST PUSH1 0x40 MLOAD PUSH1 0x20 DUP2 DUP4 SUB SUB DUP2 MSTORE SWAP1 PUSH1 0x40 MSTORE DUP1 MLOAD SWAP1 PUSH1 0x20 ADD KECCAK256 SWAP1 POP PUSH1 0x3 PUSH1 0x0 DUP3 DUP2 MSTORE PUSH1 0x20 ADD SWAP1 DUP2 MSTORE PUSH1 0x20 ADD PUSH1 0x0 KECCAK256 PUSH1 0x0 SWAP1 SLOAD SWAP1 PUSH2 0x100 EXP SWAP1 DIV PUSH20 0xFFFFFFFFFFFFFFFFFFFFFFFFFFFFFFFFFFFFFFFF AND PUSH20 0xFFFFFFFFFFFFFFFFFFFFFFFFFFFFFFFFFFFFFFFF AND CALLER PUSH20 0xFFFFFFFFFFFFFFFFFFFFFFFFFFFFFFFFFFFFFFFF AND EQ PUSH2 0x1E95 JUMPI PUSH1 0x0 DUP1 REVERT JUMPDEST DUP3 PUSH20 0xFFFFFFFFFFFFFFFFFFFFFFFFFFFFFFFFFFFFFFFF AND PUSH4 0x23B872DD ADDRESS CALLER DUP6 PUSH1 0x40 MLOAD DUP5 PUSH4 0xFFFFFFFF AND PUSH1 0xE0 SHL DUP2 MSTORE PUSH1 0x4 ADD PUSH2 0x1ED2 SWAP4 SWAP3 SWAP2 SWAP1 PUSH2 0x36A7 JUMP JUMPDEST PUSH1 0x0 PUSH1 0x40 MLOAD DUP1 DUP4 SUB DUP2 PUSH1 0x0 DUP8 DUP1 EXTCODESIZE ISZERO DUP1 ISZERO PUSH2 0x1EEC JUMPI PUSH1 0x0 DUP1 REVERT JUMPDEST POP GAS CALL ISZERO DUP1 ISZERO PUSH2 0x1F00 JUMPI RETURNDATASIZE PUSH1 0x0 DUP1 RETURNDATACOPY RETURNDATASIZE PUSH1 0x0 REVERT JUMPDEST POP POP POP POP PUSH1 0x0 PUSH20 0xFFFFFFFFFFFFFFFFFFFFFFFFFFFFFFFFFFFFFFFF AND PUSH1 0x3 PUSH1 0x0 DUP4 DUP2 MSTORE PUSH1 0x20 ADD SWAP1 DUP2 MSTORE PUSH1 0x20 ADD PUSH1 0x0 KECCAK256 PUSH1 0x0 SWAP1 SLOAD SWAP1 PUSH2 0x100 EXP SWAP1 POP POP POP POP POP POP JUMP JUMPDEST PUSH1 0x5 PUSH1 0x20 MSTORE DUP1 PUSH1 0x0 MSTORE PUSH1 0x40 PUSH1 0x0 KECCAK256 PUSH1 0x0 SWAP2 POP SLOAD SWAP1 PUSH2 0x100 EXP SWAP1 DIV PUSH4 0xFFFFFFFF AND DUP2 JUMP JUMPDEST PUSH1 0x8 PUSH1 0x20 MSTORE DUP1 PUSH1 0x0 MSTORE PUSH1 0x40 PUSH1 0x0 KECCAK256 PUSH1 0x0 SWAP2 POP SLOAD SWAP1 PUSH2 0x100 EXP SWAP1 DIV PUSH20 0xFFFFFFFFFFFFFFFFFFFFFFFFFFFFFFFFFFFFFFFF AND DUP2 JUMP JUMPDEST PUSH1 0x2 PUSH1 0x0 SWAP1 SLOAD SWAP1 PUSH2 0x100 EXP SWAP1 DIV PUSH20 0xFFFFFFFFFFFFFFFFFFFFFFFFFFFFFFFFFFFFFFFF AND DUP2 JUMP JUMPDEST PUSH1 0x9 PUSH1 0x20 MSTORE DUP1 PUSH1 0x0 MSTORE PUSH1 0x40 PUSH1 0x0 KECCAK256 PUSH1 0x0 SWAP2 POP SLOAD SWAP1 PUSH2 0x100 EXP SWAP1 DIV PUSH20 0xFFFFFFFFFFFFFFFFFFFFFFFFFFFFFFFFFFFFFFFF AND DUP2 JUMP JUMPDEST DUP6 PUSH20 0xFFFFFFFFFFFFFFFFFFFFFFFFFFFFFFFFFFFFFFFF AND PUSH4 0x23B872DD CALLER ADDRESS DUP9 PUSH1 0x40 MLOAD DUP5 PUSH4 0xFFFFFFFF AND PUSH1 0xE0 SHL DUP2 MSTORE PUSH1 0x4 ADD PUSH2 0x202D SWAP4 SWAP3 SWAP2 SWAP1 PUSH2 0x36A7 JUMP JUMPDEST PUSH1 0x0 PUSH1 0x40 MLOAD DUP1 DUP4 SUB DUP2 PUSH1 0x0 DUP8 DUP1 EXTCODESIZE ISZERO DUP1 ISZERO PUSH2 0x2047 JUMPI PUSH1 0x0 DUP1 REVERT JUMPDEST POP GAS CALL ISZERO DUP1 ISZERO PUSH2 0x205B JUMPI RETURNDATASIZE PUSH1 0x0 DUP1 RETURNDATACOPY RETURNDATASIZE PUSH1 0x0 REVERT JUMPDEST POP POP POP POP CALLER PUSH1 0x3 PUSH1 0x0 PUSH1 0x2 PUSH1 0x14 SWAP1 SLOAD SWAP1 PUSH2 0x100 EXP SWAP1 DIV PUSH4 0xFFFFFFFF AND DUP10 DUP10 PUSH1 0x40 MLOAD PUSH1 0x20 ADD PUSH2 0x208B SWAP4 SWAP3 SWAP2 SWAP1 PUSH2 0x359B JUMP JUMPDEST PUSH1 0x40 MLOAD PUSH1 0x20 DUP2 DUP4 SUB SUB DUP2 MSTORE SWAP1 PUSH1 0x40 MSTORE DUP1 MLOAD SWAP1 PUSH1 0x20 ADD KECCAK256 DUP2 MSTORE PUSH1 0x20 ADD SWAP1 DUP2 MSTORE PUSH1 0x20 ADD PUSH1 0x0 KECCAK256 PUSH1 0x0 PUSH2 0x100 EXP DUP2 SLOAD DUP2 PUSH20 0xFFFFFFFFFFFFFFFFFFFFFFFFFFFFFFFFFFFFFFFF MUL NOT AND SWAP1 DUP4 PUSH20 0xFFFFFFFFFFFFFFFFFFFFFFFFFFFFFFFFFFFFFFFF AND MUL OR SWAP1 SSTORE POP PUSH2 0x2135 DUP3 DUP3 DUP9 DUP9 CALLER DUP10 DUP10 PUSH1 0x2 PUSH1 0x14 SWAP1 SLOAD SWAP1 PUSH2 0x100 EXP SWAP1 DIV PUSH4 0xFFFFFFFF AND ADDRESS PUSH1 0x40 MLOAD PUSH1 0x20 ADD PUSH2 0x2121 SWAP8 SWAP7 SWAP6 SWAP5 SWAP4 SWAP3 SWAP2 SWAP1 PUSH2 0x3958 JUMP JUMPDEST PUSH1 0x40 MLOAD PUSH1 0x20 DUP2 DUP4 SUB SUB DUP2 MSTORE SWAP1 PUSH1 0x40 MSTORE PUSH2 0x230A JUMP JUMPDEST PUSH1 0x0 PUSH1 0x2 PUSH1 0x14 SWAP1 SLOAD SWAP1 PUSH2 0x100 EXP SWAP1 DIV PUSH4 0xFFFFFFFF AND DUP8 DUP8 CALLER PUSH1 0x40 MLOAD PUSH1 0x20 ADD PUSH2 0x2160 SWAP5 SWAP4 SWAP3 SWAP2 SWAP1 PUSH2 0x354D JUMP JUMPDEST PUSH1 0x40 MLOAD PUSH1 0x20 DUP2 DUP4 SUB SUB DUP2 MSTORE SWAP1 PUSH1 0x40 MSTORE DUP1 MLOAD SWAP1 PUSH1 0x20 ADD KECCAK256 SWAP1 POP DUP5 PUSH1 0x4 PUSH1 0x0 DUP4 DUP2 MSTORE PUSH1 0x20 ADD SWAP1 DUP2 MSTORE PUSH1 0x20 ADD PUSH1 0x0 KECCAK256 DUP2 SWAP1 SSTORE POP DUP4 PUSH1 0x5 PUSH1 0x0 DUP4 DUP2 MSTORE PUSH1 0x20 ADD SWAP1 DUP2 MSTORE PUSH1 0x20 ADD PUSH1 0x0 KECCAK256 PUSH1 0x0 PUSH2 0x100 EXP DUP2 SLOAD DUP2 PUSH4 0xFFFFFFFF MUL NOT AND SWAP1 DUP4 PUSH4 0xFFFFFFFF AND MUL OR SWAP1 SSTORE POP PUSH32 0x8B06CDA60618ABF2B2D07227F9DD63EC6349CA3269CE0EB18D49122A48362AD8 DUP8 DUP8 CALLER DUP9 PUSH1 0x40 MLOAD PUSH2 0x21F7 SWAP5 SWAP4 SWAP3 SWAP2 SWAP1 PUSH2 0x39DB JUMP JUMPDEST PUSH1 0x40 MLOAD DUP1 SWAP2 SUB SWAP1 LOG1 POP POP POP POP POP POP POP JUMP JUMPDEST PUSH2 0x2210 PUSH2 0x228C JUMP JUMPDEST PUSH1 0x0 PUSH20 0xFFFFFFFFFFFFFFFFFFFFFFFFFFFFFFFFFFFFFFFF AND DUP2 PUSH20 0xFFFFFFFFFFFFFFFFFFFFFFFFFFFFFFFFFFFFFFFF AND EQ ISZERO PUSH2 0x2280 JUMPI PUSH1 0x40 MLOAD PUSH32 0x8C379A000000000000000000000000000000000000000000000000000000000 DUP2 MSTORE PUSH1 0x4 ADD PUSH2 0x2277 SWAP1 PUSH2 0x3A92 JUMP JUMPDEST PUSH1 0x40 MLOAD DUP1 SWAP2 SUB SWAP1 REVERT JUMPDEST PUSH2 0x2289 DUP2 PUSH2 0x2558 JUMP JUMPDEST POP JUMP JUMPDEST PUSH2 0x2294 PUSH2 0x2629 JUMP JUMPDEST PUSH20 0xFFFFFFFFFFFFFFFFFFFFFFFFFFFFFFFFFFFFFFFF AND PUSH2 0x22B2 PUSH2 0x1DA8 JUMP JUMPDEST PUSH20 0xFFFFFFFFFFFFFFFFFFFFFFFFFFFFFFFFFFFFFFFF AND EQ PUSH2 0x2308 JUMPI PUSH1 0x40 MLOAD PUSH32 0x8C379A000000000000000000000000000000000000000000000000000000000 DUP2 MSTORE PUSH1 0x4 ADD PUSH2 0x22FF SWAP1 PUSH2 0x3AFE JUMP JUMPDEST PUSH1 0x40 MLOAD DUP1 SWAP2 SUB SWAP1 REVERT JUMPDEST JUMP JUMPDEST PUSH1 0x2 PUSH1 0x0 SWAP1 SLOAD SWAP1 PUSH2 0x100 EXP SWAP1 DIV PUSH20 0xFFFFFFFFFFFFFFFFFFFFFFFFFFFFFFFFFFFFFFFF AND PUSH20 0xFFFFFFFFFFFFFFFFFFFFFFFFFFFFFFFFFFFFFFFF AND PUSH4 0xFA31DE01 DUP5 PUSH2 0x2352 DUP6 PUSH2 0x2535 JUMP JUMPDEST DUP5 PUSH1 0x40 MLOAD DUP5 PUSH4 0xFFFFFFFF AND PUSH1 0xE0 SHL DUP2 MSTORE PUSH1 0x4 ADD PUSH2 0x2371 SWAP4 SWAP3 SWAP2 SWAP1 PUSH2 0x3BA6 JUMP JUMPDEST PUSH1 0x20 PUSH1 0x40 MLOAD DUP1 DUP4 SUB DUP2 PUSH1 0x0 DUP8 DUP1 EXTCODESIZE ISZERO DUP1 ISZERO PUSH2 0x238B JUMPI PUSH1 0x0 DUP1 REVERT JUMPDEST POP GAS CALL ISZERO DUP1 ISZERO PUSH2 0x239F JUMPI RETURNDATASIZE PUSH1 0x0 DUP1 RETURNDATACOPY RETURNDATASIZE PUSH1 0x0 REVERT JUMPDEST POP POP POP POP PUSH1 0x40 MLOAD RETURNDATASIZE PUSH1 0x1F NOT PUSH1 0x1F DUP3 ADD AND DUP3 ADD DUP1 PUSH1 0x40 MSTORE POP DUP2 ADD SWAP1 PUSH2 0x23C3 SWAP2 SWAP1 PUSH2 0x3BE4 JUMP JUMPDEST POP POP POP POP JUMP JUMPDEST PUSH1 0x0 PUSH1 0x3 PUSH1 0x0 PUSH1 0x2 PUSH1 0x14 SWAP1 SLOAD SWAP1 PUSH2 0x100 EXP SWAP1 DIV PUSH4 0xFFFFFFFF AND DUP7 DUP7 PUSH1 0x40 MLOAD PUSH1 0x20 ADD PUSH2 0x23F6 SWAP4 SWAP3 SWAP2 SWAP1 PUSH2 0x359B JUMP JUMPDEST PUSH1 0x40 MLOAD PUSH1 0x20 DUP2 DUP4 SUB SUB DUP2 MSTORE SWAP1 PUSH1 0x40 MSTORE DUP1 MLOAD SWAP1 PUSH1 0x20 ADD KECCAK256 DUP2 MSTORE PUSH1 0x20 ADD SWAP1 DUP2 MSTORE PUSH1 0x20 ADD PUSH1 0x0 KECCAK256 PUSH1 0x0 PUSH2 0x100 EXP DUP2 SLOAD DUP2 PUSH20 0xFFFFFFFFFFFFFFFFFFFFFFFFFFFFFFFFFFFFFFFF MUL NOT AND SWAP1 DUP4 PUSH20 0xFFFFFFFFFFFFFFFFFFFFFFFFFFFFFFFFFFFFFFFF AND MUL OR SWAP1 SSTORE POP PUSH1 0x0 DUP5 DUP5 DUP5 DUP5 PUSH1 0x40 MLOAD PUSH1 0x20 ADD PUSH2 0x2471 SWAP5 SWAP4 SWAP3 SWAP2 SWAP1 PUSH2 0x354D JUMP JUMPDEST PUSH1 0x40 MLOAD PUSH1 0x20 DUP2 DUP4 SUB SUB DUP2 MSTORE SWAP1 PUSH1 0x40 MSTORE DUP1 MLOAD SWAP1 PUSH1 0x20 ADD KECCAK256 SWAP1 POP PUSH1 0x0 PUSH1 0x5 PUSH1 0x0 DUP4 DUP2 MSTORE PUSH1 0x20 ADD SWAP1 DUP2 MSTORE PUSH1 0x20 ADD PUSH1 0x0 KECCAK256 PUSH1 0x0 PUSH2 0x100 EXP DUP2 SLOAD DUP2 PUSH4 0xFFFFFFFF MUL NOT AND SWAP1 DUP4 PUSH4 0xFFFFFFFF AND MUL OR SWAP1 SSTORE POP PUSH1 0x0 PUSH1 0x4 PUSH1 0x0 DUP4 DUP2 MSTORE PUSH1 0x20 ADD SWAP1 DUP2 MSTORE PUSH1 0x20 ADD PUSH1 0x0 KECCAK256 DUP2 SWAP1 SSTORE POP POP POP POP POP POP JUMP JUMPDEST PUSH1 0x0 DUP2 PUSH1 0x40 MLOAD PUSH1 0x20 ADD PUSH2 0x24EF SWAP2 SWAP1 PUSH2 0x3C58 JUMP JUMPDEST PUSH1 0x40 MLOAD PUSH1 0x20 DUP2 DUP4 SUB SUB DUP2 MSTORE SWAP1 PUSH1 0x40 MSTORE DUP1 MLOAD SWAP1 PUSH1 0x20 ADD KECCAK256 DUP4 PUSH1 0x40 MLOAD PUSH1 0x20 ADD PUSH2 0x2516 SWAP2 SWAP1 PUSH2 0x3C58 JUMP JUMPDEST PUSH1 0x40 MLOAD PUSH1 0x20 DUP2 DUP4 SUB SUB DUP2 MSTORE SWAP1 PUSH1 0x40 MSTORE DUP1 MLOAD SWAP1 PUSH1 0x20 ADD KECCAK256 EQ SWAP1 POP SWAP3 SWAP2 POP POP JUMP JUMPDEST PUSH1 0x0 DUP2 PUSH20 0xFFFFFFFFFFFFFFFFFFFFFFFFFFFFFFFFFFFFFFFF AND PUSH1 0x0 SHL SWAP1 POP SWAP2 SWAP1 POP JUMP JUMPDEST PUSH1 0x0 DUP1 PUSH1 0x0 SWAP1 SLOAD SWAP1 PUSH2 0x100 EXP SWAP1 DIV PUSH20 0xFFFFFFFFFFFFFFFFFFFFFFFFFFFFFFFFFFFFFFFF AND SWAP1 POP DUP2 PUSH1 0x0 DUP1 PUSH2 0x100 EXP DUP2 SLOAD DUP2 PUSH20 0xFFFFFFFFFFFFFFFFFFFFFFFFFFFFFFFFFFFFFFFF MUL NOT AND SWAP1 DUP4 PUSH20 0xFFFFFFFFFFFFFFFFFFFFFFFFFFFFFFFFFFFFFFFF AND MUL OR SWAP1 SSTORE POP DUP2 PUSH20 0xFFFFFFFFFFFFFFFFFFFFFFFFFFFFFFFFFFFFFFFF AND DUP2 PUSH20 0xFFFFFFFFFFFFFFFFFFFFFFFFFFFFFFFFFFFFFFFF AND PUSH32 0x8BE0079C531659141344CD1FD0A4F28419497F9722A3DAAFE3B4186F6B6457E0 PUSH1 0x40 MLOAD PUSH1 0x40 MLOAD DUP1 SWAP2 SUB SWAP1 LOG3 POP POP JUMP JUMPDEST PUSH1 0x0 DUP2 PUSH1 0x0 SHR SWAP1 POP SWAP2 SWAP1 POP JUMP JUMPDEST PUSH1 0x0 CALLER SWAP1 POP SWAP1 JUMP JUMPDEST PUSH1 0x40 MLOAD DUP1 PUSH1 0x40 ADD PUSH1 0x40 MSTORE DUP1 PUSH1 0x2 SWAP1 PUSH1 0x20 DUP3 MUL DUP1 CALLDATASIZE DUP4 CALLDATACOPY DUP1 DUP3 ADD SWAP2 POP POP SWAP1 POP POP SWAP1 JUMP JUMPDEST PUSH1 0x0 PUSH1 0x40 MLOAD SWAP1 POP SWAP1 JUMP JUMPDEST PUSH1 0x0 DUP1 REVERT JUMPDEST PUSH1 0x0 DUP1 REVERT JUMPDEST PUSH1 0x0 DUP2 SWAP1 POP SWAP2 SWAP1 POP JUMP JUMPDEST PUSH2 0x267A DUP2 PUSH2 0x2667 JUMP JUMPDEST DUP2 EQ PUSH2 0x2685 JUMPI PUSH1 0x0 DUP1 REVERT JUMPDEST POP JUMP JUMPDEST PUSH1 0x0 DUP2 CALLDATALOAD SWAP1 POP PUSH2 0x2697 DUP2 PUSH2 0x2671 JUMP JUMPDEST SWAP3 SWAP2 POP POP JUMP JUMPDEST PUSH1 0x0 PUSH1 0x20 DUP3 DUP5 SUB SLT ISZERO PUSH2 0x26B3 JUMPI PUSH2 0x26B2 PUSH2 0x265D JUMP JUMPDEST JUMPDEST PUSH1 0x0 PUSH2 0x26C1 DUP5 DUP3 DUP6 ADD PUSH2 0x2688 JUMP JUMPDEST SWAP2 POP POP SWAP3 SWAP2 POP POP JUMP JUMPDEST PUSH1 0x0 PUSH20 0xFFFFFFFFFFFFFFFFFFFFFFFFFFFFFFFFFFFFFFFF DUP3 AND SWAP1 POP SWAP2 SWAP1 POP JUMP JUMPDEST PUSH1 0x0 PUSH2 0x26F5 DUP3 PUSH2 0x26CA JUMP JUMPDEST SWAP1 POP SWAP2 SWAP1 POP JUMP JUMPDEST PUSH2 0x2705 DUP2 PUSH2 0x26EA JUMP JUMPDEST DUP3 MSTORE POP POP JUMP JUMPDEST PUSH1 0x0 PUSH1 0x20 DUP3 ADD SWAP1 POP PUSH2 0x2720 PUSH1 0x0 DUP4 ADD DUP5 PUSH2 0x26FC JUMP JUMPDEST SWAP3 SWAP2 POP POP JUMP JUMPDEST PUSH1 0x0 PUSH4 0xFFFFFFFF DUP3 AND SWAP1 POP SWAP2 SWAP1 POP JUMP JUMPDEST PUSH2 0x273F DUP2 PUSH2 0x2726 JUMP JUMPDEST DUP3 MSTORE POP POP JUMP JUMPDEST PUSH1 0x0 PUSH1 0x20 DUP3 ADD SWAP1 POP PUSH2 0x275A PUSH1 0x0 DUP4 ADD DUP5 PUSH2 0x2736 JUMP JUMPDEST SWAP3 SWAP2 POP POP JUMP JUMPDEST PUSH2 0x2769 DUP2 PUSH2 0x2726 JUMP JUMPDEST DUP2 EQ PUSH2 0x2774 JUMPI PUSH1 0x0 DUP1 REVERT JUMPDEST POP JUMP JUMPDEST PUSH1 0x0 DUP2 CALLDATALOAD SWAP1 POP PUSH2 0x2786 DUP2 PUSH2 0x2760 JUMP JUMPDEST SWAP3 SWAP2 POP POP JUMP JUMPDEST PUSH2 0x2795 DUP2 PUSH2 0x26EA JUMP JUMPDEST DUP2 EQ PUSH2 0x27A0 JUMPI PUSH1 0x0 DUP1 REVERT JUMPDEST POP JUMP JUMPDEST PUSH1 0x0 DUP2 CALLDATALOAD SWAP1 POP PUSH2 0x27B2 DUP2 PUSH2 0x278C JUMP JUMPDEST SWAP3 SWAP2 POP POP JUMP JUMPDEST PUSH1 0x0 DUP1 PUSH1 0x40 DUP4 DUP6 SUB SLT ISZERO PUSH2 0x27CF JUMPI PUSH2 0x27CE PUSH2 0x265D JUMP JUMPDEST JUMPDEST PUSH1 0x0 PUSH2 0x27DD DUP6 DUP3 DUP7 ADD PUSH2 0x2777 JUMP JUMPDEST SWAP3 POP POP PUSH1 0x20 PUSH2 0x27EE DUP6 DUP3 DUP7 ADD PUSH2 0x27A3 JUMP JUMPDEST SWAP2 POP POP SWAP3 POP SWAP3 SWAP1 POP JUMP JUMPDEST PUSH1 0x0 DUP2 SWAP1 POP SWAP2 SWAP1 POP JUMP JUMPDEST PUSH2 0x280B DUP2 PUSH2 0x27F8 JUMP JUMPDEST DUP3 MSTORE POP POP JUMP JUMPDEST PUSH1 0x0 PUSH1 0x20 DUP3 ADD SWAP1 POP PUSH2 0x2826 PUSH1 0x0 DUP4 ADD DUP5 PUSH2 0x2802 JUMP JUMPDEST SWAP3 SWAP2 POP POP JUMP JUMPDEST PUSH2 0x2835 DUP2 PUSH2 0x27F8 JUMP JUMPDEST DUP2 EQ PUSH2 0x2840 JUMPI PUSH1 0x0 DUP1 REVERT JUMPDEST POP JUMP JUMPDEST PUSH1 0x0 DUP2 CALLDATALOAD SWAP1 POP PUSH2 0x2852 DUP2 PUSH2 0x282C JUMP JUMPDEST SWAP3 SWAP2 POP POP JUMP JUMPDEST PUSH1 0x0 PUSH2 0x2863 DUP3 PUSH2 0x26CA JUMP JUMPDEST SWAP1 POP SWAP2 SWAP1 POP JUMP JUMPDEST PUSH2 0x2873 DUP2 PUSH2 0x2858 JUMP JUMPDEST DUP2 EQ PUSH2 0x287E JUMPI PUSH1 0x0 DUP1 REVERT JUMPDEST POP JUMP JUMPDEST PUSH1 0x0 DUP2 CALLDATALOAD SWAP1 POP PUSH2 0x2890 DUP2 PUSH2 0x286A JUMP JUMPDEST SWAP3 SWAP2 POP POP JUMP JUMPDEST PUSH1 0x0 DUP1 PUSH1 0x0 DUP1 PUSH1 0x0 DUP1 PUSH1 0xC0 DUP8 DUP10 SUB SLT ISZERO PUSH2 0x28B3 JUMPI PUSH2 0x28B2 PUSH2 0x265D JUMP JUMPDEST JUMPDEST PUSH1 0x0 PUSH2 0x28C1 DUP10 DUP3 DUP11 ADD PUSH2 0x2777 JUMP JUMPDEST SWAP7 POP POP PUSH1 0x20 PUSH2 0x28D2 DUP10 DUP3 DUP11 ADD PUSH2 0x27A3 JUMP JUMPDEST SWAP6 POP POP PUSH1 0x40 PUSH2 0x28E3 DUP10 DUP3 DUP11 ADD PUSH2 0x27A3 JUMP JUMPDEST SWAP5 POP POP PUSH1 0x60 PUSH2 0x28F4 DUP10 DUP3 DUP11 ADD PUSH2 0x2843 JUMP JUMPDEST SWAP4 POP POP PUSH1 0x80 PUSH2 0x2905 DUP10 DUP3 DUP11 ADD PUSH2 0x2881 JUMP JUMPDEST SWAP3 POP POP PUSH1 0xA0 PUSH2 0x2916 DUP10 DUP3 DUP11 ADD PUSH2 0x2777 JUMP JUMPDEST SWAP2 POP POP SWAP3 SWAP6 POP SWAP3 SWAP6 POP SWAP3 SWAP6 JUMP JUMPDEST PUSH1 0x0 DUP1 REVERT JUMPDEST PUSH1 0x0 DUP1 REVERT JUMPDEST PUSH1 0x0 DUP1 REVERT JUMPDEST PUSH1 0x0 DUP1 DUP4 PUSH1 0x1F DUP5 ADD SLT PUSH2 0x2948 JUMPI PUSH2 0x2947 PUSH2 0x2923 JUMP JUMPDEST JUMPDEST DUP3 CALLDATALOAD SWAP1 POP PUSH8 0xFFFFFFFFFFFFFFFF DUP2 GT ISZERO PUSH2 0x2965 JUMPI PUSH2 0x2964 PUSH2 0x2928 JUMP JUMPDEST JUMPDEST PUSH1 0x20 DUP4 ADD SWAP2 POP DUP4 PUSH1 0x1 DUP3 MUL DUP4 ADD GT ISZERO PUSH2 0x2981 JUMPI PUSH2 0x2980 PUSH2 0x292D JUMP JUMPDEST JUMPDEST SWAP3 POP SWAP3 SWAP1 POP JUMP JUMPDEST PUSH1 0x0 DUP1 PUSH1 0x0 DUP1 PUSH1 0x60 DUP6 DUP8 SUB SLT ISZERO PUSH2 0x29A2 JUMPI PUSH2 0x29A1 PUSH2 0x265D JUMP JUMPDEST JUMPDEST PUSH1 0x0 PUSH2 0x29B0 DUP8 DUP3 DUP9 ADD PUSH2 0x2777 JUMP JUMPDEST SWAP5 POP POP PUSH1 0x20 PUSH2 0x29C1 DUP8 DUP3 DUP9 ADD PUSH2 0x2688 JUMP JUMPDEST SWAP4 POP POP PUSH1 0x40 DUP6 ADD CALLDATALOAD PUSH8 0xFFFFFFFFFFFFFFFF DUP2 GT ISZERO PUSH2 0x29E2 JUMPI PUSH2 0x29E1 PUSH2 0x2662 JUMP JUMPDEST JUMPDEST PUSH2 0x29EE DUP8 DUP3 DUP9 ADD PUSH2 0x2932 JUMP JUMPDEST SWAP3 POP SWAP3 POP POP SWAP3 SWAP6 SWAP2 SWAP5 POP SWAP3 POP JUMP JUMPDEST PUSH1 0x0 DUP1 PUSH1 0x0 DUP1 PUSH1 0x0 DUP1 PUSH1 0xC0 DUP8 DUP10 SUB SLT ISZERO PUSH2 0x2A19 JUMPI PUSH2 0x2A18 PUSH2 0x265D JUMP JUMPDEST JUMPDEST PUSH1 0x0 PUSH2 0x2A27 DUP10 DUP3 DUP11 ADD PUSH2 0x2777 JUMP JUMPDEST SWAP7 POP POP PUSH1 0x20 PUSH2 0x2A38 DUP10 DUP3 DUP11 ADD PUSH2 0x27A3 JUMP JUMPDEST SWAP6 POP POP PUSH1 0x40 PUSH2 0x2A49 DUP10 DUP3 DUP11 ADD PUSH2 0x2843 JUMP JUMPDEST SWAP5 POP POP PUSH1 0x60 PUSH2 0x2A5A DUP10 DUP3 DUP11 ADD PUSH2 0x2881 JUMP JUMPDEST SWAP4 POP POP PUSH1 0x80 PUSH2 0x2A6B DUP10 DUP3 DUP11 ADD PUSH2 0x2777 JUMP JUMPDEST SWAP3 POP POP PUSH1 0xA0 PUSH2 0x2A7C DUP10 DUP3 DUP11 ADD PUSH2 0x2843 JUMP JUMPDEST SWAP2 POP POP SWAP3 SWAP6 POP SWAP3 SWAP6 POP SWAP3 SWAP6 JUMP JUMPDEST PUSH1 0x0 PUSH1 0x2 SWAP1 POP SWAP2 SWAP1 POP JUMP JUMPDEST PUSH1 0x0 DUP2 SWAP1 POP SWAP3 SWAP2 POP POP JUMP JUMPDEST PUSH1 0x0 DUP2 SWAP1 POP SWAP2 SWAP1 POP JUMP JUMPDEST PUSH2 0x2AB2 DUP2 PUSH2 0x27F8 JUMP JUMPDEST DUP3 MSTORE POP POP JUMP JUMPDEST PUSH1 0x0 PUSH2 0x2AC4 DUP4 DUP4 PUSH2 0x2AA9 JUMP JUMPDEST PUSH1 0x20 DUP4 ADD SWAP1 POP SWAP3 SWAP2 POP POP JUMP JUMPDEST PUSH1 0x0 PUSH1 0x20 DUP3 ADD SWAP1 POP SWAP2 SWAP1 POP JUMP JUMPDEST PUSH2 0x2AE6 DUP2 PUSH2 0x2A89 JUMP JUMPDEST PUSH2 0x2AF0 DUP2 DUP5 PUSH2 0x2A94 JUMP JUMPDEST SWAP3 POP PUSH2 0x2AFB DUP3 PUSH2 0x2A9F JUMP JUMPDEST DUP1 PUSH1 0x0 JUMPDEST DUP4 DUP2 LT ISZERO PUSH2 0x2B2C JUMPI DUP2 MLOAD PUSH2 0x2B13 DUP8 DUP3 PUSH2 0x2AB8 JUMP JUMPDEST SWAP7 POP PUSH2 0x2B1E DUP4 PUSH2 0x2AD0 JUMP JUMPDEST SWAP3 POP POP PUSH1 0x1 DUP2 ADD SWAP1 POP PUSH2 0x2AFF JUMP JUMPDEST POP POP POP POP POP POP JUMP JUMPDEST PUSH1 0x0 PUSH1 0x40 DUP3 ADD SWAP1 POP PUSH2 0x2B49 PUSH1 0x0 DUP4 ADD DUP5 PUSH2 0x2ADD JUMP JUMPDEST SWAP3 SWAP2 POP POP JUMP JUMPDEST PUSH1 0x0 DUP1 PUSH1 0x0 DUP1 PUSH1 0x0 DUP1 PUSH1 0x0 PUSH1 0xE0 DUP9 DUP11 SUB SLT ISZERO PUSH2 0x2B6E JUMPI PUSH2 0x2B6D PUSH2 0x265D JUMP JUMPDEST JUMPDEST PUSH1 0x0 PUSH2 0x2B7C DUP11 DUP3 DUP12 ADD PUSH2 0x2777 JUMP JUMPDEST SWAP8 POP POP PUSH1 0x20 PUSH2 0x2B8D DUP11 DUP3 DUP12 ADD PUSH2 0x27A3 JUMP JUMPDEST SWAP7 POP POP PUSH1 0x40 PUSH2 0x2B9E DUP11 DUP3 DUP12 ADD PUSH2 0x27A3 JUMP JUMPDEST SWAP6 POP POP PUSH1 0x60 PUSH2 0x2BAF DUP11 DUP3 DUP12 ADD PUSH2 0x2843 JUMP JUMPDEST SWAP5 POP POP PUSH1 0x80 PUSH2 0x2BC0 DUP11 DUP3 DUP12 ADD PUSH2 0x2881 JUMP JUMPDEST SWAP4 POP POP PUSH1 0xA0 PUSH2 0x2BD1 DUP11 DUP3 DUP12 ADD PUSH2 0x2777 JUMP JUMPDEST SWAP3 POP POP PUSH1 0xC0 PUSH2 0x2BE2 DUP11 DUP3 DUP12 ADD PUSH2 0x2843 JUMP JUMPDEST SWAP2 POP POP SWAP3 SWAP6 SWAP9 SWAP2 SWAP5 SWAP8 POP SWAP3 SWAP6 POP JUMP JUMPDEST PUSH1 0x0 PUSH1 0x20 DUP3 DUP5 SUB SLT ISZERO PUSH2 0x2C07 JUMPI PUSH2 0x2C06 PUSH2 0x265D JUMP JUMPDEST JUMPDEST PUSH1 0x0 PUSH2 0x2C15 DUP5 DUP3 DUP6 ADD PUSH2 0x2777 JUMP JUMPDEST SWAP2 POP POP SWAP3 SWAP2 POP POP JUMP JUMPDEST PUSH1 0x0 DUP1 PUSH1 0x0 PUSH1 0x60 DUP5 DUP7 SUB SLT ISZERO PUSH2 0x2C37 JUMPI PUSH2 0x2C36 PUSH2 0x265D JUMP JUMPDEST JUMPDEST PUSH1 0x0 PUSH2 0x2C45 DUP7 DUP3 DUP8 ADD PUSH2 0x2777 JUMP JUMPDEST SWAP4 POP POP PUSH1 0x20 PUSH2 0x2C56 DUP7 DUP3 DUP8 ADD PUSH2 0x27A3 JUMP JUMPDEST SWAP3 POP POP PUSH1 0x40 PUSH2 0x2C67 DUP7 DUP3 DUP8 ADD PUSH2 0x2843 JUMP JUMPDEST SWAP2 POP POP SWAP3 POP SWAP3 POP SWAP3 JUMP JUMPDEST PUSH1 0x0 PUSH1 0x60 DUP3 ADD SWAP1 POP PUSH2 0x2C86 PUSH1 0x0 DUP4 ADD DUP7 PUSH2 0x26FC JUMP JUMPDEST PUSH2 0x2C93 PUSH1 0x20 DUP4 ADD DUP6 PUSH2 0x2802 JUMP JUMPDEST PUSH2 0x2CA0 PUSH1 0x40 DUP4 ADD DUP5 PUSH2 0x2736 JUMP JUMPDEST SWAP5 SWAP4 POP POP POP POP JUMP JUMPDEST PUSH2 0x2CB1 DUP2 PUSH2 0x2667 JUMP JUMPDEST DUP3 MSTORE POP POP JUMP JUMPDEST PUSH1 0x0 PUSH1 0x20 DUP3 ADD SWAP1 POP PUSH2 0x2CCC PUSH1 0x0 DUP4 ADD DUP5 PUSH2 0x2CA8 JUMP JUMPDEST SWAP3 SWAP2 POP POP JUMP JUMPDEST PUSH1 0x0 DUP1 PUSH1 0x40 DUP4 DUP6 SUB SLT ISZERO PUSH2 0x2CE9 JUMPI PUSH2 0x2CE8 PUSH2 0x265D JUMP JUMPDEST JUMPDEST PUSH1 0x0 PUSH2 0x2CF7 DUP6 DUP3 DUP7 ADD PUSH2 0x27A3 JUMP JUMPDEST SWAP3 POP POP PUSH1 0x20 PUSH2 0x2D08 DUP6 DUP3 DUP7 ADD PUSH2 0x2843 JUMP JUMPDEST SWAP2 POP POP SWAP3 POP SWAP3 SWAP1 POP JUMP JUMPDEST PUSH1 0x0 DUP1 PUSH1 0x0 DUP1 PUSH1 0x0 DUP1 PUSH1 0xC0 DUP8 DUP10 SUB SLT ISZERO PUSH2 0x2D2F JUMPI PUSH2 0x2D2E PUSH2 0x265D JUMP JUMPDEST JUMPDEST PUSH1 0x0 PUSH2 0x2D3D DUP10 DUP3 DUP11 ADD PUSH2 0x27A3 JUMP JUMPDEST SWAP7 POP POP PUSH1 0x20 PUSH2 0x2D4E DUP10 DUP3 DUP11 ADD PUSH2 0x2843 JUMP JUMPDEST SWAP6 POP POP PUSH1 0x40 PUSH2 0x2D5F DUP10 DUP3 DUP11 ADD PUSH2 0x2843 JUMP JUMPDEST SWAP5 POP POP PUSH1 0x60 PUSH2 0x2D70 DUP10 DUP3 DUP11 ADD PUSH2 0x2777 JUMP JUMPDEST SWAP4 POP POP PUSH1 0x80 PUSH2 0x2D81 DUP10 DUP3 DUP11 ADD PUSH2 0x2777 JUMP JUMPDEST SWAP3 POP POP PUSH1 0xA0 PUSH2 0x2D92 DUP10 DUP3 DUP11 ADD PUSH2 0x27A3 JUMP JUMPDEST SWAP2 POP POP SWAP3 SWAP6 POP SWAP3 SWAP6 POP SWAP3 SWAP6 JUMP JUMPDEST PUSH1 0x0 PUSH1 0x20 DUP3 DUP5 SUB SLT ISZERO PUSH2 0x2DB5 JUMPI PUSH2 0x2DB4 PUSH2 0x265D JUMP JUMPDEST JUMPDEST PUSH1 0x0 PUSH2 0x2DC3 DUP5 DUP3 DUP6 ADD PUSH2 0x27A3 JUMP JUMPDEST SWAP2 POP POP SWAP3 SWAP2 POP POP JUMP JUMPDEST PUSH1 0x0 DUP3 DUP3 MSTORE PUSH1 0x20 DUP3 ADD SWAP1 POP SWAP3 SWAP2 POP POP JUMP JUMPDEST PUSH32 0x546869732063757272656E63792069736E277420737570706F72746564000000 PUSH1 0x0 DUP3 ADD MSTORE POP JUMP JUMPDEST PUSH1 0x0 PUSH2 0x2E13 PUSH1 0x1D DUP4 PUSH2 0x2DCC JUMP JUMPDEST SWAP2 POP PUSH2 0x2E1E DUP3 PUSH2 0x2DDD JUMP JUMPDEST PUSH1 0x20 DUP3 ADD SWAP1 POP SWAP2 SWAP1 POP JUMP JUMPDEST PUSH1 0x0 PUSH1 0x20 DUP3 ADD SWAP1 POP DUP2 DUP2 SUB PUSH1 0x0 DUP4 ADD MSTORE PUSH2 0x2E42 DUP2 PUSH2 0x2E06 JUMP JUMPDEST SWAP1 POP SWAP2 SWAP1 POP JUMP JUMPDEST PUSH1 0x0 DUP2 PUSH1 0xE0 SHL SWAP1 POP SWAP2 SWAP1 POP JUMP JUMPDEST PUSH1 0x0 PUSH2 0x2E61 DUP3 PUSH2 0x2E49 JUMP JUMPDEST SWAP1 POP SWAP2 SWAP1 POP JUMP JUMPDEST PUSH2 0x2E79 PUSH2 0x2E74 DUP3 PUSH2 0x2726 JUMP JUMPDEST PUSH2 0x2E56 JUMP JUMPDEST DUP3 MSTORE POP POP JUMP JUMPDEST PUSH1 0x0 DUP2 PUSH1 0x60 SHL SWAP1 POP SWAP2 SWAP1 POP JUMP JUMPDEST PUSH1 0x0 PUSH2 0x2E97 DUP3 PUSH2 0x2E7F JUMP JUMPDEST SWAP1 POP SWAP2 SWAP1 POP JUMP JUMPDEST PUSH1 0x0 PUSH2 0x2EA9 DUP3 PUSH2 0x2E8C JUMP JUMPDEST SWAP1 POP SWAP2 SWAP1 POP JUMP JUMPDEST PUSH2 0x2EC1 PUSH2 0x2EBC DUP3 PUSH2 0x26EA JUMP JUMPDEST PUSH2 0x2E9E JUMP JUMPDEST DUP3 MSTORE POP POP JUMP JUMPDEST PUSH1 0x0 DUP2 SWAP1 POP SWAP2 SWAP1 POP JUMP JUMPDEST PUSH2 0x2EE2 PUSH2 0x2EDD DUP3 PUSH2 0x27F8 JUMP JUMPDEST PUSH2 0x2EC7 JUMP JUMPDEST DUP3 MSTORE POP POP JUMP JUMPDEST PUSH1 0x0 PUSH2 0x2EF3 DUP3 PUSH2 0x2E8C JUMP JUMPDEST SWAP1 POP SWAP2 SWAP1 POP JUMP JUMPDEST PUSH2 0x2F0B PUSH2 0x2F06 DUP3 PUSH2 0x2858 JUMP JUMPDEST PUSH2 0x2EE8 JUMP JUMPDEST DUP3 MSTORE POP POP JUMP JUMPDEST PUSH1 0x0 PUSH2 0x2F1D DUP3 DUP8 PUSH2 0x2E68 JUMP JUMPDEST PUSH1 0x4 DUP3 ADD SWAP2 POP PUSH2 0x2F2D DUP3 DUP7 PUSH2 0x2EB0 JUMP JUMPDEST PUSH1 0x14 DUP3 ADD SWAP2 POP PUSH2 0x2F3D DUP3 DUP6 PUSH2 0x2ED1 JUMP JUMPDEST PUSH1 0x20 DUP3 ADD SWAP2 POP PUSH2 0x2F4D DUP3 DUP5 PUSH2 0x2EFA JUMP JUMPDEST PUSH1 0x14 DUP3 ADD SWAP2 POP DUP2 SWAP1 POP SWAP6 SWAP5 POP POP POP POP POP JUMP JUMPDEST PUSH1 0x0 PUSH1 0x80 DUP3 ADD SWAP1 POP PUSH2 0x2F74 PUSH1 0x0 DUP4 ADD DUP8 PUSH2 0x2736 JUMP JUMPDEST PUSH2 0x2F81 PUSH1 0x20 DUP4 ADD DUP7 PUSH2 0x26FC JUMP JUMPDEST PUSH2 0x2F8E PUSH1 0x40 DUP4 ADD DUP6 PUSH2 0x2802 JUMP JUMPDEST PUSH2 0x2F9B PUSH1 0x60 DUP4 ADD DUP5 PUSH2 0x26FC JUMP JUMPDEST SWAP6 SWAP5 POP POP POP POP POP JUMP JUMPDEST PUSH32 0x54726164696E6700000000000000000000000000000000000000000000000000 PUSH1 0x0 DUP3 ADD MSTORE POP JUMP JUMPDEST PUSH1 0x0 PUSH2 0x2FDA PUSH1 0x7 DUP4 PUSH2 0x2DCC JUMP JUMPDEST SWAP2 POP PUSH2 0x2FE5 DUP3 PUSH2 0x2FA4 JUMP JUMPDEST PUSH1 0x20 DUP3 ADD SWAP1 POP SWAP2 SWAP1 POP JUMP JUMPDEST PUSH1 0x0 PUSH2 0x100 DUP3 ADD SWAP1 POP DUP2 DUP2 SUB PUSH1 0x0 DUP4 ADD MSTORE PUSH2 0x300A DUP2 PUSH2 0x2FCD JUMP JUMPDEST SWAP1 POP PUSH2 0x3019 PUSH1 0x20 DUP4 ADD DUP11 PUSH2 0x26FC JUMP JUMPDEST PUSH2 0x3026 PUSH1 0x40 DUP4 ADD DUP10 PUSH2 0x2802 JUMP JUMPDEST PUSH2 0x3033 PUSH1 0x60 DUP4 ADD DUP9 PUSH2 0x26FC JUMP JUMPDEST PUSH2 0x3040 PUSH1 0x80 DUP4 ADD DUP8 PUSH2 0x2802 JUMP JUMPDEST PUSH2 0x304D PUSH1 0xA0 DUP4 ADD DUP7 PUSH2 0x2736 JUMP JUMPDEST PUSH2 0x305A PUSH1 0xC0 DUP4 ADD DUP6 PUSH2 0x2736 JUMP JUMPDEST PUSH2 0x3067 PUSH1 0xE0 DUP4 ADD DUP5 PUSH2 0x26FC JUMP JUMPDEST SWAP9 SWAP8 POP POP POP POP POP POP POP POP JUMP JUMPDEST PUSH1 0x0 PUSH10 0xFFFFFFFFFFFFFFFFFFFF DUP3 AND SWAP1 POP SWAP2 SWAP1 POP JUMP JUMPDEST PUSH2 0x3092 DUP2 PUSH2 0x3073 JUMP JUMPDEST DUP2 EQ PUSH2 0x309D JUMPI PUSH1 0x0 DUP1 REVERT JUMPDEST POP JUMP JUMPDEST PUSH1 0x0 DUP2 MLOAD SWAP1 POP PUSH2 0x30AF DUP2 PUSH2 0x3089 JUMP JUMPDEST SWAP3 SWAP2 POP POP JUMP JUMPDEST PUSH1 0x0 DUP2 SWAP1 POP SWAP2 SWAP1 POP JUMP JUMPDEST PUSH2 0x30C8 DUP2 PUSH2 0x30B5 JUMP JUMPDEST DUP2 EQ PUSH2 0x30D3 JUMPI PUSH1 0x0 DUP1 REVERT JUMPDEST POP JUMP JUMPDEST PUSH1 0x0 DUP2 MLOAD SWAP1 POP PUSH2 0x30E5 DUP2 PUSH2 0x30BF JUMP JUMPDEST SWAP3 SWAP2 POP POP JUMP JUMPDEST PUSH1 0x0 DUP2 MLOAD SWAP1 POP PUSH2 0x30FA DUP2 PUSH2 0x282C JUMP JUMPDEST SWAP3 SWAP2 POP POP JUMP JUMPDEST PUSH1 0x0 DUP1 PUSH1 0x0 DUP1 PUSH1 0x0 PUSH1 0xA0 DUP7 DUP9 SUB SLT ISZERO PUSH2 0x311C JUMPI PUSH2 0x311B PUSH2 0x265D JUMP JUMPDEST JUMPDEST PUSH1 0x0 PUSH2 0x312A DUP9 DUP3 DUP10 ADD PUSH2 0x30A0 JUMP JUMPDEST SWAP6 POP POP PUSH1 0x20 PUSH2 0x313B DUP9 DUP3 DUP10 ADD PUSH2 0x30D6 JUMP JUMPDEST SWAP5 POP POP PUSH1 0x40 PUSH2 0x314C DUP9 DUP3 DUP10 ADD PUSH2 0x30EB JUMP JUMPDEST SWAP4 POP POP PUSH1 0x60 PUSH2 0x315D DUP9 DUP3 DUP10 ADD PUSH2 0x30EB JUMP JUMPDEST SWAP3 POP POP PUSH1 0x80 PUSH2 0x316E DUP9 DUP3 DUP10 ADD PUSH2 0x30A0 JUMP JUMPDEST SWAP2 POP POP SWAP3 SWAP6 POP SWAP3 SWAP6 SWAP1 SWAP4 POP JUMP JUMPDEST PUSH32 0x4E487B7100000000000000000000000000000000000000000000000000000000 PUSH1 0x0 MSTORE PUSH1 0x11 PUSH1 0x4 MSTORE PUSH1 0x24 PUSH1 0x0 REVERT JUMPDEST PUSH1 0x0 PUSH2 0x31B5 DUP3 PUSH2 0x27F8 JUMP JUMPDEST SWAP2 POP PUSH2 0x31C0 DUP4 PUSH2 0x27F8 JUMP JUMPDEST SWAP3 POP DUP2 PUSH32 0xFFFFFFFFFFFFFFFFFFFFFFFFFFFFFFFFFFFFFFFFFFFFFFFFFFFFFFFFFFFFFFFF DIV DUP4 GT DUP3 ISZERO ISZERO AND ISZERO PUSH2 0x31F9 JUMPI PUSH2 0x31F8 PUSH2 0x317B JUMP JUMPDEST JUMPDEST DUP3 DUP3 MUL SWAP1 POP SWAP3 SWAP2 POP POP JUMP JUMPDEST PUSH32 0x4D61726B65742E736F6C3A206C6973746564507269636520616E642053656E64 PUSH1 0x0 DUP3 ADD MSTORE PUSH32 0x696E67507269636520617265206E6F74206D6174636865640000000000000000 PUSH1 0x20 DUP3 ADD MSTORE POP JUMP JUMPDEST PUSH1 0x0 PUSH2 0x3260 PUSH1 0x38 DUP4 PUSH2 0x2DCC JUMP JUMPDEST SWAP2 POP PUSH2 0x326B DUP3 PUSH2 0x3204 JUMP JUMPDEST PUSH1 0x40 DUP3 ADD SWAP1 POP SWAP2 SWAP1 POP JUMP JUMPDEST PUSH1 0x0 PUSH1 0x20 DUP3 ADD SWAP1 POP DUP2 DUP2 SUB PUSH1 0x0 DUP4 ADD MSTORE PUSH2 0x328F DUP2 PUSH2 0x3253 JUMP JUMPDEST SWAP1 POP SWAP2 SWAP1 POP JUMP JUMPDEST PUSH1 0x0 DUP2 SWAP1 POP SWAP2 SWAP1 POP JUMP JUMPDEST PUSH1 0x0 PUSH2 0x32BB PUSH2 0x32B6 PUSH2 0x32B1 DUP5 PUSH2 0x26CA JUMP JUMPDEST PUSH2 0x3296 JUMP JUMPDEST PUSH2 0x26CA JUMP JUMPDEST SWAP1 POP SWAP2 SWAP1 POP JUMP JUMPDEST PUSH1 0x0 PUSH2 0x32CD DUP3 PUSH2 0x32A0 JUMP JUMPDEST SWAP1 POP SWAP2 SWAP1 POP JUMP JUMPDEST PUSH1 0x0 PUSH2 0x32DF DUP3 PUSH2 0x32C2 JUMP JUMPDEST SWAP1 POP SWAP2 SWAP1 POP JUMP JUMPDEST PUSH2 0x32EF DUP2 PUSH2 0x32D4 JUMP JUMPDEST DUP3 MSTORE POP POP JUMP JUMPDEST PUSH1 0x0 PUSH1 0x80 DUP3 ADD SWAP1 POP PUSH2 0x330A PUSH1 0x0 DUP4 ADD DUP8 PUSH2 0x26FC JUMP JUMPDEST PUSH2 0x3317 PUSH1 0x20 DUP4 ADD DUP7 PUSH2 0x2802 JUMP JUMPDEST PUSH2 0x3324 PUSH1 0x40 DUP4 ADD DUP6 PUSH2 0x32E6 JUMP JUMPDEST PUSH2 0x3331 PUSH1 0x60 DUP4 ADD DUP5 PUSH2 0x2802 JUMP JUMPDEST SWAP6 SWAP5 POP POP POP POP POP JUMP JUMPDEST PUSH1 0x0 DUP1 REVERT JUMPDEST PUSH1 0x0 PUSH1 0x1F NOT PUSH1 0x1F DUP4 ADD AND SWAP1 POP SWAP2 SWAP1 POP JUMP JUMPDEST PUSH32 0x4E487B7100000000000000000000000000000000000000000000000000000000 PUSH1 0x0 MSTORE PUSH1 0x41 PUSH1 0x4 MSTORE PUSH1 0x24 PUSH1 0x0 REVERT JUMPDEST PUSH2 0x3388 DUP3 PUSH2 0x333F JUMP JUMPDEST DUP2 ADD DUP2 DUP2 LT PUSH8 0xFFFFFFFFFFFFFFFF DUP3 GT OR ISZERO PUSH2 0x33A7 JUMPI PUSH2 0x33A6 PUSH2 0x3350 JUMP JUMPDEST JUMPDEST DUP1 PUSH1 0x40 MSTORE POP POP POP JUMP JUMPDEST PUSH1 0x0 PUSH2 0x33BA PUSH2 0x2653 JUMP JUMPDEST SWAP1 POP PUSH2 0x33C6 DUP3 DUP3 PUSH2 0x337F JUMP JUMPDEST SWAP2 SWAP1 POP JUMP JUMPDEST PUSH1 0x0 PUSH8 0xFFFFFFFFFFFFFFFF DUP3 GT ISZERO PUSH2 0x33E6 JUMPI PUSH2 0x33E5 PUSH2 0x3350 JUMP JUMPDEST JUMPDEST PUSH2 0x33EF DUP3 PUSH2 0x333F JUMP JUMPDEST SWAP1 POP PUSH1 0x20 DUP2 ADD SWAP1 POP SWAP2 SWAP1 POP JUMP JUMPDEST DUP3 DUP2 DUP4 CALLDATACOPY PUSH1 0x0 DUP4 DUP4 ADD MSTORE POP POP POP JUMP JUMPDEST PUSH1 0x0 PUSH2 0x341E PUSH2 0x3419 DUP5 PUSH2 0x33CB JUMP JUMPDEST PUSH2 0x33B0 JUMP JUMPDEST SWAP1 POP DUP3 DUP2 MSTORE PUSH1 0x20 DUP2 ADD DUP5 DUP5 DUP5 ADD GT ISZERO PUSH2 0x343A JUMPI PUSH2 0x3439 PUSH2 0x333A JUMP JUMPDEST JUMPDEST PUSH2 0x3445 DUP5 DUP3 DUP6 PUSH2 0x33FC JUMP JUMPDEST POP SWAP4 SWAP3 POP POP POP JUMP JUMPDEST PUSH1 0x0 DUP3 PUSH1 0x1F DUP4 ADD SLT PUSH2 0x3462 JUMPI PUSH2 0x3461 PUSH2 0x2923 JUMP JUMPDEST JUMPDEST DUP2 CALLDATALOAD PUSH2 0x3472 DUP5 DUP3 PUSH1 0x20 DUP7 ADD PUSH2 0x340B JUMP JUMPDEST SWAP2 POP POP SWAP3 SWAP2 POP POP JUMP JUMPDEST PUSH1 0x0 DUP1 PUSH1 0x0 DUP1 PUSH1 0x0 DUP1 PUSH1 0x0 DUP1 PUSH2 0x100 DUP10 DUP12 SUB SLT ISZERO PUSH2 0x349C JUMPI PUSH2 0x349B PUSH2 0x265D JUMP JUMPDEST JUMPDEST PUSH1 0x0 DUP10 ADD CALLDATALOAD PUSH8 0xFFFFFFFFFFFFFFFF DUP2 GT ISZERO PUSH2 0x34BA JUMPI PUSH2 0x34B9 PUSH2 0x2662 JUMP JUMPDEST JUMPDEST PUSH2 0x34C6 DUP12 DUP3 DUP13 ADD PUSH2 0x344D JUMP JUMPDEST SWAP9 POP POP PUSH1 0x20 PUSH2 0x34D7 DUP12 DUP3 DUP13 ADD PUSH2 0x2881 JUMP JUMPDEST SWAP8 POP POP PUSH1 0x40 PUSH2 0x34E8 DUP12 DUP3 DUP13 ADD PUSH2 0x2843 JUMP JUMPDEST SWAP7 POP POP PUSH1 0x60 PUSH2 0x34F9 DUP12 DUP3 DUP13 ADD PUSH2 0x2881 JUMP JUMPDEST SWAP6 POP POP PUSH1 0x80 PUSH2 0x350A DUP12 DUP3 DUP13 ADD PUSH2 0x2843 JUMP JUMPDEST SWAP5 POP POP PUSH1 0xA0 PUSH2 0x351B DUP12 DUP3 DUP13 ADD PUSH2 0x2777 JUMP JUMPDEST SWAP4 POP POP PUSH1 0xC0 PUSH2 0x352C DUP12 DUP3 DUP13 ADD PUSH2 0x2777 JUMP JUMPDEST SWAP3 POP POP PUSH1 0xE0 PUSH2 0x353D DUP12 DUP3 DUP13 ADD PUSH2 0x2881 JUMP JUMPDEST SWAP2 POP POP SWAP3 SWAP6 SWAP9 POP SWAP3 SWAP6 SWAP9 SWAP1 SWAP4 SWAP7 POP JUMP JUMPDEST PUSH1 0x0 PUSH2 0x3559 DUP3 DUP8 PUSH2 0x2E68 JUMP JUMPDEST PUSH1 0x4 DUP3 ADD SWAP2 POP PUSH2 0x3569 DUP3 DUP7 PUSH2 0x2EB0 JUMP JUMPDEST PUSH1 0x14 DUP3 ADD SWAP2 POP PUSH2 0x3579 DUP3 DUP6 PUSH2 0x2ED1 JUMP JUMPDEST PUSH1 0x20 DUP3 ADD SWAP2 POP PUSH2 0x3589 DUP3 DUP5 PUSH2 0x2EB0 JUMP JUMPDEST PUSH1 0x14 DUP3 ADD SWAP2 POP DUP2 SWAP1 POP SWAP6 SWAP5 POP POP POP POP POP JUMP JUMPDEST PUSH1 0x0 PUSH2 0x35A7 DUP3 DUP7 PUSH2 0x2E68 JUMP JUMPDEST PUSH1 0x4 DUP3 ADD SWAP2 POP PUSH2 0x35B7 DUP3 DUP6 PUSH2 0x2EB0 JUMP JUMPDEST PUSH1 0x14 DUP3 ADD SWAP2 POP PUSH2 0x35C7 DUP3 DUP5 PUSH2 0x2ED1 JUMP JUMPDEST PUSH1 0x20 DUP3 ADD SWAP2 POP DUP2 SWAP1 POP SWAP5 SWAP4 POP POP POP POP JUMP JUMPDEST PUSH32 0x5265766572746564000000000000000000000000000000000000000000000000 PUSH1 0x0 DUP3 ADD MSTORE POP JUMP JUMPDEST PUSH1 0x0 PUSH2 0x360E PUSH1 0x8 DUP4 PUSH2 0x2DCC JUMP JUMPDEST SWAP2 POP PUSH2 0x3619 DUP3 PUSH2 0x35D8 JUMP JUMPDEST PUSH1 0x20 DUP3 ADD SWAP1 POP SWAP2 SWAP1 POP JUMP JUMPDEST PUSH1 0x0 PUSH2 0x100 DUP3 ADD SWAP1 POP DUP2 DUP2 SUB PUSH1 0x0 DUP4 ADD MSTORE PUSH2 0x363E DUP2 PUSH2 0x3601 JUMP JUMPDEST SWAP1 POP PUSH2 0x364D PUSH1 0x20 DUP4 ADD DUP11 PUSH2 0x26FC JUMP JUMPDEST PUSH2 0x365A PUSH1 0x40 DUP4 ADD DUP10 PUSH2 0x2802 JUMP JUMPDEST PUSH2 0x3667 PUSH1 0x60 DUP4 ADD DUP9 PUSH2 0x26FC JUMP JUMPDEST PUSH2 0x3674 PUSH1 0x80 DUP4 ADD DUP8 PUSH2 0x2802 JUMP JUMPDEST PUSH2 0x3681 PUSH1 0xA0 DUP4 ADD DUP7 PUSH2 0x2736 JUMP JUMPDEST PUSH2 0x368E PUSH1 0xC0 DUP4 ADD DUP6 PUSH2 0x2736 JUMP JUMPDEST PUSH2 0x369B PUSH1 0xE0 DUP4 ADD DUP5 PUSH2 0x26FC JUMP JUMPDEST SWAP9 SWAP8 POP POP POP POP POP POP POP POP JUMP JUMPDEST PUSH1 0x0 PUSH1 0x60 DUP3 ADD SWAP1 POP PUSH2 0x36BC PUSH1 0x0 DUP4 ADD DUP7 PUSH2 0x26FC JUMP JUMPDEST PUSH2 0x36C9 PUSH1 0x20 DUP4 ADD DUP6 PUSH2 0x26FC JUMP JUMPDEST PUSH2 0x36D6 PUSH1 0x40 DUP4 ADD DUP5 PUSH2 0x2802 JUMP JUMPDEST SWAP5 SWAP4 POP POP POP POP JUMP JUMPDEST PUSH32 0x436F6E6669726D64000000000000000000000000000000000000000000000000 PUSH1 0x0 DUP3 ADD MSTORE POP JUMP JUMPDEST PUSH1 0x0 PUSH2 0x3714 PUSH1 0x8 DUP4 PUSH2 0x2DCC JUMP JUMPDEST SWAP2 POP PUSH2 0x371F DUP3 PUSH2 0x36DE JUMP JUMPDEST PUSH1 0x20 DUP3 ADD SWAP1 POP SWAP2 SWAP1 POP JUMP JUMPDEST PUSH1 0x0 PUSH2 0x100 DUP3 ADD SWAP1 POP DUP2 DUP2 SUB PUSH1 0x0 DUP4 ADD MSTORE PUSH2 0x3744 DUP2 PUSH2 0x3707 JUMP JUMPDEST SWAP1 POP PUSH2 0x3753 PUSH1 0x20 DUP4 ADD DUP11 PUSH2 0x26FC JUMP JUMPDEST PUSH2 0x3760 PUSH1 0x40 DUP4 ADD DUP10 PUSH2 0x2802 JUMP JUMPDEST PUSH2 0x376D PUSH1 0x60 DUP4 ADD DUP9 PUSH2 0x26FC JUMP JUMPDEST PUSH2 0x377A PUSH1 0x80 DUP4 ADD DUP8 PUSH2 0x2802 JUMP JUMPDEST PUSH2 0x3787 PUSH1 0xA0 DUP4 ADD DUP7 PUSH2 0x2736 JUMP JUMPDEST PUSH2 0x3794 PUSH1 0xC0 DUP4 ADD DUP6 PUSH2 0x2736 JUMP JUMPDEST PUSH2 0x37A1 PUSH1 0xE0 DUP4 ADD DUP5 PUSH2 0x26FC JUMP JUMPDEST SWAP9 SWAP8 POP POP POP POP POP POP POP POP JUMP JUMPDEST PUSH32 0x4E487B7100000000000000000000000000000000000000000000000000000000 PUSH1 0x0 MSTORE PUSH1 0x32 PUSH1 0x4 MSTORE PUSH1 0x24 PUSH1 0x0 REVERT JUMPDEST PUSH1 0x0 DUP2 ISZERO ISZERO SWAP1 POP SWAP2 SWAP1 POP JUMP JUMPDEST PUSH2 0x37F1 DUP2 PUSH2 0x37DC JUMP JUMPDEST DUP2 EQ PUSH2 0x37FC JUMPI PUSH1 0x0 DUP1 REVERT JUMPDEST POP JUMP JUMPDEST PUSH1 0x0 DUP2 MLOAD SWAP1 POP PUSH2 0x380E DUP2 PUSH2 0x37E8 JUMP JUMPDEST SWAP3 SWAP2 POP POP JUMP JUMPDEST PUSH1 0x0 PUSH1 0x20 DUP3 DUP5 SUB SLT ISZERO PUSH2 0x382A JUMPI PUSH2 0x3829 PUSH2 0x265D JUMP JUMPDEST JUMPDEST PUSH1 0x0 PUSH2 0x3838 DUP5 DUP3 DUP6 ADD PUSH2 0x37FF JUMP JUMPDEST SWAP2 POP POP SWAP3 SWAP2 POP POP JUMP JUMPDEST PUSH1 0x0 DUP2 SWAP1 POP SWAP2 SWAP1 POP JUMP JUMPDEST PUSH1 0x0 PUSH1 0xFF DUP3 AND SWAP1 POP SWAP2 SWAP1 POP JUMP JUMPDEST PUSH1 0x0 PUSH2 0x3873 PUSH2 0x386E PUSH2 0x3869 DUP5 PUSH2 0x3841 JUMP JUMPDEST PUSH2 0x3296 JUMP JUMPDEST PUSH2 0x384B JUMP JUMPDEST SWAP1 POP SWAP2 SWAP1 POP JUMP JUMPDEST PUSH2 0x3883 DUP2 PUSH2 0x3858 JUMP JUMPDEST DUP3 MSTORE POP POP JUMP JUMPDEST PUSH1 0x0 PUSH2 0x100 DUP3 ADD SWAP1 POP DUP2 DUP2 SUB PUSH1 0x0 DUP4 ADD MSTORE PUSH2 0x38A3 DUP2 PUSH2 0x2FCD JUMP JUMPDEST SWAP1 POP PUSH2 0x38B2 PUSH1 0x20 DUP4 ADD DUP11 PUSH2 0x26FC JUMP JUMPDEST PUSH2 0x38BF PUSH1 0x40 DUP4 ADD DUP10 PUSH2 0x2802 JUMP JUMPDEST PUSH2 0x38CC PUSH1 0x60 DUP4 ADD DUP9 PUSH2 0x26FC JUMP JUMPDEST PUSH2 0x38D9 PUSH1 0x80 DUP4 ADD DUP8 PUSH2 0x387A JUMP JUMPDEST PUSH2 0x38E6 PUSH1 0xA0 DUP4 ADD DUP7 PUSH2 0x387A JUMP JUMPDEST PUSH2 0x38F3 PUSH1 0xC0 DUP4 ADD DUP6 PUSH2 0x2736 JUMP JUMPDEST PUSH2 0x3900 PUSH1 0xE0 DUP4 ADD DUP5 PUSH2 0x26FC JUMP JUMPDEST SWAP9 SWAP8 POP POP POP POP POP POP POP POP JUMP JUMPDEST PUSH32 0x4C697374696E6700000000000000000000000000000000000000000000000000 PUSH1 0x0 DUP3 ADD MSTORE POP JUMP JUMPDEST PUSH1 0x0 PUSH2 0x3942 PUSH1 0x7 DUP4 PUSH2 0x2DCC JUMP JUMPDEST SWAP2 POP PUSH2 0x394D DUP3 PUSH2 0x390C JUMP JUMPDEST PUSH1 0x20 DUP3 ADD SWAP1 POP SWAP2 SWAP1 POP JUMP JUMPDEST PUSH1 0x0 PUSH2 0x100 DUP3 ADD SWAP1 POP DUP2 DUP2 SUB PUSH1 0x0 DUP4 ADD MSTORE PUSH2 0x3972 DUP2 PUSH2 0x3935 JUMP JUMPDEST SWAP1 POP PUSH2 0x3981 PUSH1 0x20 DUP4 ADD DUP11 PUSH2 0x26FC JUMP JUMPDEST PUSH2 0x398E PUSH1 0x40 DUP4 ADD DUP10 PUSH2 0x2802 JUMP JUMPDEST PUSH2 0x399B PUSH1 0x60 DUP4 ADD DUP9 PUSH2 0x26FC JUMP JUMPDEST PUSH2 0x39A8 PUSH1 0x80 DUP4 ADD DUP8 PUSH2 0x2802 JUMP JUMPDEST PUSH2 0x39B5 PUSH1 0xA0 DUP4 ADD DUP7 PUSH2 0x2736 JUMP JUMPDEST PUSH2 0x39C2 PUSH1 0xC0 DUP4 ADD DUP6 PUSH2 0x2736 JUMP JUMPDEST PUSH2 0x39CF PUSH1 0xE0 DUP4 ADD DUP5 PUSH2 0x26FC JUMP JUMPDEST SWAP9 SWAP8 POP POP POP POP POP POP POP POP JUMP JUMPDEST PUSH1 0x0 PUSH1 0x80 DUP3 ADD SWAP1 POP PUSH2 0x39F0 PUSH1 0x0 DUP4 ADD DUP8 PUSH2 0x26FC JUMP JUMPDEST PUSH2 0x39FD PUSH1 0x20 DUP4 ADD DUP7 PUSH2 0x2802 JUMP JUMPDEST PUSH2 0x3A0A PUSH1 0x40 DUP4 ADD DUP6 PUSH2 0x26FC JUMP JUMPDEST PUSH2 0x3A17 PUSH1 0x60 DUP4 ADD DUP5 PUSH2 0x2802 JUMP JUMPDEST SWAP6 SWAP5 POP POP POP POP POP JUMP JUMPDEST PUSH32 0x4F776E61626C653A206E6577206F776E657220697320746865207A65726F2061 PUSH1 0x0 DUP3 ADD MSTORE PUSH32 0x6464726573730000000000000000000000000000000000000000000000000000 PUSH1 0x20 DUP3 ADD MSTORE POP JUMP JUMPDEST PUSH1 0x0 PUSH2 0x3A7C PUSH1 0x26 DUP4 PUSH2 0x2DCC JUMP JUMPDEST SWAP2 POP PUSH2 0x3A87 DUP3 PUSH2 0x3A20 JUMP JUMPDEST PUSH1 0x40 DUP3 ADD SWAP1 POP SWAP2 SWAP1 POP JUMP JUMPDEST PUSH1 0x0 PUSH1 0x20 DUP3 ADD SWAP1 POP DUP2 DUP2 SUB PUSH1 0x0 DUP4 ADD MSTORE PUSH2 0x3AAB DUP2 PUSH2 0x3A6F JUMP JUMPDEST SWAP1 POP SWAP2 SWAP1 POP JUMP JUMPDEST PUSH32 0x4F776E61626C653A2063616C6C6572206973206E6F7420746865206F776E6572 PUSH1 0x0 DUP3 ADD MSTORE POP JUMP JUMPDEST PUSH1 0x0 PUSH2 0x3AE8 PUSH1 0x20 DUP4 PUSH2 0x2DCC JUMP JUMPDEST SWAP2 POP PUSH2 0x3AF3 DUP3 PUSH2 0x3AB2 JUMP JUMPDEST PUSH1 0x20 DUP3 ADD SWAP1 POP SWAP2 SWAP1 POP JUMP JUMPDEST PUSH1 0x0 PUSH1 0x20 DUP3 ADD SWAP1 POP DUP2 DUP2 SUB PUSH1 0x0 DUP4 ADD MSTORE PUSH2 0x3B17 DUP2 PUSH2 0x3ADB JUMP JUMPDEST SWAP1 POP SWAP2 SWAP1 POP JUMP JUMPDEST PUSH1 0x0 DUP2 MLOAD SWAP1 POP SWAP2 SWAP1 POP JUMP JUMPDEST PUSH1 0x0 DUP3 DUP3 MSTORE PUSH1 0x20 DUP3 ADD SWAP1 POP SWAP3 SWAP2 POP POP JUMP JUMPDEST PUSH1 0x0 JUMPDEST DUP4 DUP2 LT ISZERO PUSH2 0x3B58 JUMPI DUP1 DUP3 ADD MLOAD DUP2 DUP5 ADD MSTORE PUSH1 0x20 DUP2 ADD SWAP1 POP PUSH2 0x3B3D JUMP JUMPDEST DUP4 DUP2 GT ISZERO PUSH2 0x3B67 JUMPI PUSH1 0x0 DUP5 DUP5 ADD MSTORE JUMPDEST POP POP POP POP JUMP JUMPDEST PUSH1 0x0 PUSH2 0x3B78 DUP3 PUSH2 0x3B1E JUMP JUMPDEST PUSH2 0x3B82 DUP2 DUP6 PUSH2 0x3B29 JUMP JUMPDEST SWAP4 POP PUSH2 0x3B92 DUP2 DUP6 PUSH1 0x20 DUP7 ADD PUSH2 0x3B3A JUMP JUMPDEST PUSH2 0x3B9B DUP2 PUSH2 0x333F JUMP JUMPDEST DUP5 ADD SWAP2 POP POP SWAP3 SWAP2 POP POP JUMP JUMPDEST PUSH1 0x0 PUSH1 0x60 DUP3 ADD SWAP1 POP PUSH2 0x3BBB PUSH1 0x0 DUP4 ADD DUP7 PUSH2 0x2736 JUMP JUMPDEST PUSH2 0x3BC8 PUSH1 0x20 DUP4 ADD DUP6 PUSH2 0x2CA8 JUMP JUMPDEST DUP2 DUP2 SUB PUSH1 0x40 DUP4 ADD MSTORE PUSH2 0x3BDA DUP2 DUP5 PUSH2 0x3B6D JUMP JUMPDEST SWAP1 POP SWAP5 SWAP4 POP POP POP POP JUMP JUMPDEST PUSH1 0x0 PUSH1 0x20 DUP3 DUP5 SUB SLT ISZERO PUSH2 0x3BFA JUMPI PUSH2 0x3BF9 PUSH2 0x265D JUMP JUMPDEST JUMPDEST PUSH1 0x0 PUSH2 0x3C08 DUP5 DUP3 DUP6 ADD PUSH2 0x30EB JUMP JUMPDEST SWAP2 POP POP SWAP3 SWAP2 POP POP JUMP JUMPDEST PUSH1 0x0 DUP2 MLOAD SWAP1 POP SWAP2 SWAP1 POP JUMP JUMPDEST PUSH1 0x0 DUP2 SWAP1 POP SWAP3 SWAP2 POP POP JUMP JUMPDEST PUSH1 0x0 PUSH2 0x3C32 DUP3 PUSH2 0x3C11 JUMP JUMPDEST PUSH2 0x3C3C DUP2 DUP6 PUSH2 0x3C1C JUMP JUMPDEST SWAP4 POP PUSH2 0x3C4C DUP2 DUP6 PUSH1 0x20 DUP7 ADD PUSH2 0x3B3A JUMP JUMPDEST DUP1 DUP5 ADD SWAP2 POP POP SWAP3 SWAP2 POP POP JUMP JUMPDEST PUSH1 0x0 PUSH2 0x3C64 DUP3 DUP5 PUSH2 0x3C27 JUMP JUMPDEST SWAP2 POP DUP2 SWAP1 POP SWAP3 SWAP2 POP POP JUMP INVALID LOG2 PUSH5 0x6970667358 0x22 SLT KECCAK256 0xCA 0x5D 0xEA DUP3 SWAP9 0xD0 PUSH23 0x276768EAFAC597079F04BCC2815595EC897E368193DD04 PUSH30 0x2064736F6C63430008090033000000000000000000000000000000000000 "},"methodIdentifiers":{"buy(uint32,address,address,uint256,address,uint32)":"2b79a4bf","buyWithERC20(uint32,address,address,uint256,address,uint32,uint256)":"78cd336f","cancelListing(address,uint256)":"b2ddee06","currencyIdToChainlinkContract(uint32)":"c1e6ac71","currencyIdToCurrencyContractAddress(uint32)":"dbb11b1d","domainToContractAddress(uint32)":"a80e1a3d","getChainlinkContractAddress(uint32)":"7c62cb7c","getListInformation(uint32,address,uint256)":"8461b2f0","getResisteredContract(uint32)":"7f51c0ae","handle(uint32,bytes32,bytes)":"56d5d475","list(address,uint256,uint256,uint32,uint32,address)":"e20d27f2","listedCurrency(bytes32)":"b5b57b89","listedPrice(bytes32)":"2e36a5db","outbox()":"ce11e6ab","owner()":"8da5cb5b","paidPrice(bytes32)":"131d9343","renounceOwnership()":"715018a6","selfDomainId()":"0c34d698","sellerAddress(bytes32)":"08bfc700","setChainlinkContract(uint32,address)":"3f669f30","setContract(uint32,address)":"6383847c","setCurrencyContractAddress(uint32,address)":"10ac595c","setSelfDomainId(uint32)":"805898f6","testGetPriceMultiple(uint32,address,uint256,address,uint32,uint256)":"5b96635e","transferOwnership(address)":"f2fde38b"}}}}}